{
  "contractName": "MineableToken",
  "abi": [
    {
      "constant": true,
      "inputs": [],
      "name": "MAXIMUM_TARGET",
      "outputs": [
        {
          "name": "",
          "type": "uint256"
        }
      ],
      "payable": false,
      "stateMutability": "view",
      "type": "function"
    },
    {
      "constant": true,
      "inputs": [],
      "name": "name",
      "outputs": [
        {
          "name": "",
          "type": "string"
        }
      ],
      "payable": false,
      "stateMutability": "view",
      "type": "function"
    },
    {
      "constant": true,
      "inputs": [],
      "name": "TARGET_DIVISOR",
      "outputs": [
        {
          "name": "",
          "type": "uint256"
        }
      ],
      "payable": false,
      "stateMutability": "view",
      "type": "function"
    },
    {
      "constant": false,
      "inputs": [
        {
          "name": "spender",
          "type": "address"
        },
        {
          "name": "tokens",
          "type": "uint256"
        }
      ],
      "name": "approve",
      "outputs": [
        {
          "name": "success",
          "type": "bool"
        }
      ],
      "payable": false,
      "stateMutability": "nonpayable",
      "type": "function"
    },
    {
      "constant": true,
      "inputs": [],
      "name": "getMiningDifficulty",
      "outputs": [
        {
          "name": "",
          "type": "uint256"
        }
      ],
      "payable": false,
      "stateMutability": "view",
      "type": "function"
    },
    {
      "constant": true,
      "inputs": [],
      "name": "totalSupply",
      "outputs": [
        {
          "name": "",
          "type": "uint256"
        }
      ],
      "payable": false,
      "stateMutability": "view",
      "type": "function"
    },
    {
      "constant": true,
      "inputs": [],
      "name": "MAX_ADJUSTMENT_PERCENT",
      "outputs": [
        {
          "name": "",
          "type": "uint256"
        }
      ],
      "payable": false,
      "stateMutability": "view",
      "type": "function"
    },
    {
      "constant": false,
      "inputs": [
        {
          "name": "from",
          "type": "address"
        },
        {
          "name": "to",
          "type": "address"
        },
        {
          "name": "tokens",
          "type": "uint256"
        }
      ],
      "name": "transferFrom",
      "outputs": [
        {
          "name": "success",
          "type": "bool"
        }
      ],
      "payable": false,
      "stateMutability": "nonpayable",
      "type": "function"
    },
    {
      "constant": false,
      "inputs": [],
      "name": "uninstallBooster",
      "outputs": [],
      "payable": false,
      "stateMutability": "nonpayable",
      "type": "function"
    },
    {
      "constant": true,
      "inputs": [],
      "name": "rewardEra",
      "outputs": [
        {
          "name": "",
          "type": "uint256"
        }
      ],
      "payable": false,
      "stateMutability": "view",
      "type": "function"
    },
    {
      "constant": true,
      "inputs": [],
      "name": "decimals",
      "outputs": [
        {
          "name": "",
          "type": "uint8"
        }
      ],
      "payable": false,
      "stateMutability": "view",
      "type": "function"
    },
    {
      "constant": true,
      "inputs": [],
      "name": "getMiningTarget",
      "outputs": [
        {
          "name": "",
          "type": "uint256"
        }
      ],
      "payable": false,
      "stateMutability": "view",
      "type": "function"
    },
    {
      "constant": true,
      "inputs": [],
      "name": "MINING_RATE_FACTOR",
      "outputs": [
        {
          "name": "",
          "type": "uint256"
        }
      ],
      "payable": false,
      "stateMutability": "view",
      "type": "function"
    },
    {
      "constant": true,
      "inputs": [],
      "name": "_totalSupply",
      "outputs": [
        {
          "name": "",
          "type": "uint256"
        }
      ],
      "payable": false,
      "stateMutability": "view",
      "type": "function"
    },
    {
      "constant": true,
      "inputs": [],
      "name": "MAX_REWARD_ERA",
      "outputs": [
        {
          "name": "",
          "type": "uint256"
        }
      ],
      "payable": false,
      "stateMutability": "view",
      "type": "function"
    },
    {
      "constant": true,
      "inputs": [],
      "name": "getMiningReward",
      "outputs": [
        {
          "name": "",
          "type": "uint256"
        }
      ],
      "payable": false,
      "stateMutability": "view",
      "type": "function"
    },
    {
      "constant": true,
      "inputs": [],
      "name": "getChallengeNumber",
      "outputs": [
        {
          "name": "",
          "type": "bytes32"
        }
      ],
      "payable": false,
      "stateMutability": "view",
      "type": "function"
    },
    {
      "constant": true,
      "inputs": [],
      "name": "maxSupplyForEra",
      "outputs": [
        {
          "name": "",
          "type": "uint256"
        }
      ],
      "payable": false,
      "stateMutability": "view",
      "type": "function"
    },
    {
      "constant": true,
      "inputs": [],
      "name": "baseMiningReward",
      "outputs": [
        {
          "name": "",
          "type": "uint256"
        }
      ],
      "payable": false,
      "stateMutability": "view",
      "type": "function"
    },
    {
      "constant": false,
      "inputs": [
        {
          "name": "to",
          "type": "address"
        },
        {
          "name": "tokens",
          "type": "uint256"
        }
      ],
      "name": "transferFromOrigin",
      "outputs": [
        {
          "name": "success",
          "type": "bool"
        }
      ],
      "payable": false,
      "stateMutability": "nonpayable",
      "type": "function"
    },
    {
      "constant": true,
      "inputs": [],
      "name": "mithrilQuarryAddress",
      "outputs": [
        {
          "name": "",
          "type": "address"
        }
      ],
      "payable": false,
      "stateMutability": "view",
      "type": "function"
    },
    {
      "constant": true,
      "inputs": [],
      "name": "tokensMinted",
      "outputs": [
        {
          "name": "",
          "type": "uint256"
        }
      ],
      "payable": false,
      "stateMutability": "view",
      "type": "function"
    },
    {
      "constant": true,
      "inputs": [
        {
          "name": "tokenOwner",
          "type": "address"
        }
      ],
      "name": "balanceOf",
      "outputs": [
        {
          "name": "balance",
          "type": "uint256"
        }
      ],
      "payable": false,
      "stateMutability": "view",
      "type": "function"
    },
    {
      "constant": true,
      "inputs": [],
      "name": "epochCount",
      "outputs": [
        {
          "name": "",
          "type": "uint256"
        }
      ],
      "payable": false,
      "stateMutability": "view",
      "type": "function"
    },
    {
      "constant": true,
      "inputs": [],
      "name": "miningTarget",
      "outputs": [
        {
          "name": "",
          "type": "uint256"
        }
      ],
      "payable": false,
      "stateMutability": "view",
      "type": "function"
    },
    {
      "constant": true,
      "inputs": [],
      "name": "challengeNumber",
      "outputs": [
        {
          "name": "",
          "type": "bytes32"
        }
      ],
      "payable": false,
      "stateMutability": "view",
      "type": "function"
    },
    {
      "constant": true,
      "inputs": [],
      "name": "symbol",
      "outputs": [
        {
          "name": "",
          "type": "string"
        }
      ],
      "payable": false,
      "stateMutability": "view",
      "type": "function"
    },
    {
      "constant": false,
      "inputs": [
        {
          "name": "nonce",
          "type": "uint256"
        }
      ],
      "name": "mint",
      "outputs": [
        {
          "name": "success",
          "type": "bool"
        }
      ],
      "payable": false,
      "stateMutability": "nonpayable",
      "type": "function"
    },
    {
      "constant": false,
      "inputs": [
        {
          "name": "to",
          "type": "address"
        },
        {
          "name": "tokens",
          "type": "uint256"
        }
      ],
      "name": "transfer",
      "outputs": [
        {
          "name": "success",
          "type": "bool"
        }
      ],
      "payable": false,
      "stateMutability": "nonpayable",
      "type": "function"
    },
    {
      "constant": true,
      "inputs": [],
      "name": "boosterAddress",
      "outputs": [
        {
          "name": "",
          "type": "address"
        }
      ],
      "payable": false,
      "stateMutability": "view",
      "type": "function"
    },
    {
      "constant": true,
      "inputs": [],
      "name": "QUOTIENT_LIMIT",
      "outputs": [
        {
          "name": "",
          "type": "uint256"
        }
      ],
      "payable": false,
      "stateMutability": "view",
      "type": "function"
    },
    {
      "constant": false,
      "inputs": [
        {
          "name": "nonce",
          "type": "uint256"
        }
      ],
      "name": "hash",
      "outputs": [
        {
          "name": "digest",
          "type": "bytes32"
        }
      ],
      "payable": false,
      "stateMutability": "nonpayable",
      "type": "function"
    },
    {
      "constant": true,
      "inputs": [
        {
          "name": "",
          "type": "address"
        }
      ],
      "name": "installedBoosters",
      "outputs": [
        {
          "name": "",
          "type": "uint256"
        }
      ],
      "payable": false,
      "stateMutability": "view",
      "type": "function"
    },
    {
      "constant": false,
      "inputs": [
        {
          "name": "_boosterId",
          "type": "uint256"
        }
      ],
      "name": "installBooster",
      "outputs": [],
      "payable": false,
      "stateMutability": "nonpayable",
      "type": "function"
    },
    {
      "constant": true,
      "inputs": [],
      "name": "mithrilTokenAddress",
      "outputs": [
        {
          "name": "",
          "type": "address"
        }
      ],
      "payable": false,
      "stateMutability": "view",
      "type": "function"
    },
    {
      "constant": false,
      "inputs": [
        {
          "name": "spender",
          "type": "address"
        },
        {
          "name": "tokens",
          "type": "uint256"
        },
        {
          "name": "data",
          "type": "bytes"
        }
      ],
      "name": "approveAndCall",
      "outputs": [
        {
          "name": "success",
          "type": "bool"
        }
      ],
      "payable": false,
      "stateMutability": "nonpayable",
      "type": "function"
    },
    {
      "constant": true,
      "inputs": [],
      "name": "latestDifficultyPeriodStarted",
      "outputs": [
        {
          "name": "",
          "type": "uint256"
        }
      ],
      "payable": false,
      "stateMutability": "view",
      "type": "function"
    },
    {
      "constant": true,
      "inputs": [],
      "name": "blocksPerReadjustment",
      "outputs": [
        {
          "name": "",
          "type": "uint256"
        }
      ],
      "payable": false,
      "stateMutability": "view",
      "type": "function"
    },
    {
      "constant": true,
      "inputs": [
        {
          "name": "tokenOwner",
          "type": "address"
        },
        {
          "name": "spender",
          "type": "address"
        }
      ],
      "name": "allowance",
      "outputs": [
        {
          "name": "remaining",
          "type": "uint256"
        }
      ],
      "payable": false,
      "stateMutability": "view",
      "type": "function"
    },
    {
      "constant": true,
      "inputs": [],
      "name": "getInstalledBooster",
      "outputs": [
        {
          "name": "",
          "type": "uint256"
        }
      ],
      "payable": false,
      "stateMutability": "view",
      "type": "function"
    },
    {
      "constant": true,
      "inputs": [],
      "name": "MINIMUM_TARGET",
      "outputs": [
        {
          "name": "",
          "type": "uint256"
        }
      ],
      "payable": false,
      "stateMutability": "view",
      "type": "function"
    },
    {
      "constant": true,
      "inputs": [],
      "name": "getAdjustmentInterval",
      "outputs": [
        {
          "name": "",
          "type": "uint256"
        }
      ],
      "payable": false,
      "stateMutability": "view",
      "type": "function"
    },
    {
      "constant": true,
      "inputs": [],
      "name": "adjustmentInterval",
      "outputs": [
        {
          "name": "",
          "type": "uint256"
        }
      ],
      "payable": false,
      "stateMutability": "view",
      "type": "function"
    },
    {
      "constant": false,
      "inputs": [
        {
          "name": "nonce",
          "type": "uint256"
        },
        {
          "name": "mineTokens",
          "type": "address[]"
        }
      ],
      "name": "merge",
      "outputs": [
        {
          "name": "",
          "type": "bool"
        }
      ],
      "payable": false,
      "stateMutability": "nonpayable",
      "type": "function"
    },
    {
      "inputs": [
        {
          "name": "_mithrilTokenAddress",
          "type": "address"
        },
        {
          "name": "_mithrilQuarryAddress",
          "type": "address"
        },
        {
          "name": "_boosterAddress",
          "type": "address"
        },
        {
          "name": "_symbol",
          "type": "string"
        },
        {
          "name": "_name",
          "type": "string"
        },
        {
          "name": "_decimals",
          "type": "uint8"
        },
        {
          "name": "_supply",
          "type": "uint256"
        },
        {
          "name": "_reward",
          "type": "uint256"
        },
        {
          "name": "_adjustmentBlockCount",
          "type": "uint256"
        },
        {
          "name": "_initialDifficulty",
          "type": "uint256"
        }
      ],
      "payable": false,
      "stateMutability": "nonpayable",
      "type": "constructor"
    },
    {
      "payable": true,
      "stateMutability": "payable",
      "type": "fallback"
    },
    {
      "anonymous": false,
      "inputs": [
        {
          "indexed": true,
          "name": "from",
          "type": "address"
        },
        {
          "indexed": true,
          "name": "to",
          "type": "address"
        },
        {
          "indexed": false,
          "name": "tokens",
          "type": "uint256"
        }
      ],
      "name": "Transfer",
      "type": "event"
    },
    {
      "anonymous": false,
      "inputs": [
        {
          "indexed": true,
          "name": "tokenOwner",
          "type": "address"
        },
        {
          "indexed": true,
          "name": "spender",
          "type": "address"
        },
        {
          "indexed": false,
          "name": "tokens",
          "type": "uint256"
        }
      ],
      "name": "Approval",
      "type": "event"
    },
    {
      "anonymous": false,
      "inputs": [
        {
          "indexed": false,
          "name": "initialSupply",
          "type": "uint256"
        },
        {
          "indexed": false,
          "name": "tokenDecimals",
          "type": "uint8"
        },
        {
          "indexed": false,
          "name": "initialReward",
          "type": "uint256"
        },
        {
          "indexed": false,
          "name": "blocksPerDifficultyAdjustment",
          "type": "uint256"
        }
      ],
      "name": "TokenBaseInitialize",
      "type": "event"
    },
    {
      "anonymous": false,
      "inputs": [
        {
          "indexed": true,
          "name": "from",
          "type": "address"
        },
        {
          "indexed": false,
          "name": "reward_amount",
          "type": "uint256"
        },
        {
          "indexed": false,
          "name": "epochCount",
          "type": "uint256"
        },
        {
          "indexed": false,
          "name": "newChallengeNumber",
          "type": "bytes32"
        }
      ],
      "name": "Mint",
      "type": "event"
    }
  ],
  "bytecode": "0x6080604052610258600055620100006006557d040000000000000000000000000000000000000000000000000000000000600755603c60085560646009556107d0600a55620000696002600a54620003186401000000000262002052179091906401000000009004565b600b5560276011553480156200007e57600080fd5b5060405162002e8738038062002e87833981018060405281019080805190602001909291908051906020019092919080519060200190929190805182019291906020018051820192919060200180519060200190929190805190602001909291908051906020019092919080519060200190929190805190602001909291905050508787878787878787866014908051906020019062000120929190620005d7565b50856015908051906020019062000139929190620005d7565b506200015d84868585856200033e64010000000002620026a4176401000000009004565b601254601660003373ffffffffffffffffffffffffffffffffffffffff1673ffffffffffffffffffffffffffffffffffffffff168152602001908152602001600020819055503373ffffffffffffffffffffffffffffffffffffffff16600073ffffffffffffffffffffffffffffffffffffffff167fddf252ad1be2c89b69c2b068fc378daa952ba7f163c4a11628f55a4df523b3ef6012546040518082815260200191505060405180910390a35050505050505080601860006101000a81548173ffffffffffffffffffffffffffffffffffffffff021916908373ffffffffffffffffffffffffffffffffffffffff1602179055505086601490805190602001906200026c929190620005d7565b50856015908051906020019062000285929190620005d7565b5089601a60006101000a81548173ffffffffffffffffffffffffffffffffffffffff021916908373ffffffffffffffffffffffffffffffffffffffff16021790555088601b60006101000a81548173ffffffffffffffffffffffffffffffffffffffff021916908373ffffffffffffffffffffffffffffffffffffffff1602179055505050505050505050505062000686565b600080821115156200032957600080fd5b81838115156200033557fe5b04905092915050565b83600c60006101000a81548160ff021916908360ff160217905550600c60009054906101000a900460ff1660ff16600a0a850260128190555082600e819055508160048190555060006003819055506000600f81905550620003bb6002601254620003186401000000000262002052179091906401000000009004565b60108190555060008111620003d357600754620003f9565b620003f881600754620003186401000000000262002052179091906401000000009004565b5b600281905550600754600254111562000416576007546002819055505b43600d819055507f069c712e03e70f0b35d735396de7ee8ffbf881b4ffb3859fbdd328a2dca6039285858585604051808581526020018460ff1660ff16815260200183815260200182815260200194505050505060405180910390a16200048b62000493640100000000026401000000009004565b505050505050565b6000601054620004d5620004b562000572640100000000026401000000009004565b600354620005ba6401000000000262002092179091906401000000009004565b118015620004e557506027600f54105b15620004f8576001600f5401600f819055505b620005256001600f540160020a601254620003186401000000000262002052179091906401000000009004565b60125403601081905550620005556001600554620005ba6401000000000262002092179091906401000000009004565b600581905550600143034060018160001916905550600554905090565b6000620005b5600f5460020a600c60009054906101000a900460ff1660ff16600a0a600e5402620003186401000000000262002052179091906401000000009004565b905090565b60008183019050828110151515620005d157600080fd5b92915050565b828054600181600116156101000203166002900490600052602060002090601f016020900481019282601f106200061a57805160ff19168380011785556200064b565b828001600101855582156200064b579182015b828111156200064a5782518255916020019190600101906200062d565b5b5090506200065a91906200065e565b5090565b6200068391905b808211156200067f57600081600090555060010162000665565b5090565b90565b6127f180620006966000396000f30060806040526004361061021a576000357c0100000000000000000000000000000000000000000000000000000000900463ffffffff168063031052f31461021f57806306fdde031461024a578063095b6d4c146102da578063095ea7b31461030557806317da485f1461036a57806318160ddd146103955780631beddf1c146103c057806323b872dd146103eb5780632c23784e146104705780632d38bf7a14610487578063313ce567146104b257806332e99708146104e35780633426e5f51461050e5780633eaaf86b1461053957806346eed3f314610564578063490203a71461058f5780634ef37628146105ba5780634fa972e1146105ed57806354bcb164146106185780635c6bcad414610643578063662f45be146106a85780636de9f32b146106ff57806370a082311461072a578063829965cc146107815780638a769d35146107ac5780638ae0368b146107d757806395d89b411461080a578063a0712d681461089a578063a9059cbb146108df578063a99c308b14610944578063ad1dfe3b1461099b578063b189fd4c146109c6578063b5e4303d14610a0f578063c0ae084714610a66578063c5b16cc314610a93578063cae9ca5114610aea578063cb9ae70714610b95578063d87b8fcb14610bc0578063dd62ed3e14610beb578063ed30123514610c62578063f77e180e14610c8d578063f798754614610cb8578063fa4d4d8b14610ce3578063ffd43c7f14610d0e575b600080fd5b34801561022b57600080fd5b50610234610d96565b6040518082815260200191505060405180910390f35b34801561025657600080fd5b5061025f610d9c565b6040518080602001828103825283818151815260200191508051906020019080838360005b8381101561029f578082015181840152602081019050610284565b50505050905090810190601f1680156102cc5780820380516001836020036101000a031916815260200191505b509250505060405180910390f35b3480156102e657600080fd5b506102ef610e3a565b6040518082815260200191505060405180910390f35b34801561031157600080fd5b50610350600480360381019080803573ffffffffffffffffffffffffffffffffffffffff16906020019092919080359060200190929190505050610e40565b604051808215151515815260200191505060405180910390f35b34801561037657600080fd5b5061037f610f32565b6040518082815260200191505060405180910390f35b3480156103a157600080fd5b506103aa610f55565b6040518082815260200191505060405180910390f35b3480156103cc57600080fd5b506103d5610fa0565b6040518082815260200191505060405180910390f35b3480156103f757600080fd5b50610456600480360381019080803573ffffffffffffffffffffffffffffffffffffffff169060200190929190803573ffffffffffffffffffffffffffffffffffffffff16906020019092919080359060200190929190505050610fa6565b604051808215151515815260200191505060405180910390f35b34801561047c57600080fd5b50610485611251565b005b34801561049357600080fd5b5061049c611296565b6040518082815260200191505060405180910390f35b3480156104be57600080fd5b506104c761129c565b604051808260ff1660ff16815260200191505060405180910390f35b3480156104ef57600080fd5b506104f86112af565b6040518082815260200191505060405180910390f35b34801561051a57600080fd5b506105236113ac565b6040518082815260200191505060405180910390f35b34801561054557600080fd5b5061054e6113b2565b6040518082815260200191505060405180910390f35b34801561057057600080fd5b506105796113b8565b6040518082815260200191505060405180910390f35b34801561059b57600080fd5b506105a46113be565b6040518082815260200191505060405180910390f35b3480156105c657600080fd5b506105cf6113f6565b60405180826000191660001916815260200191505060405180910390f35b3480156105f957600080fd5b50610602611400565b6040518082815260200191505060405180910390f35b34801561062457600080fd5b5061062d611406565b6040518082815260200191505060405180910390f35b34801561064f57600080fd5b5061068e600480360381019080803573ffffffffffffffffffffffffffffffffffffffff1690602001909291908035906020019092919050505061140c565b604051808215151515815260200191505060405180910390f35b3480156106b457600080fd5b506106bd6115a7565b604051808273ffffffffffffffffffffffffffffffffffffffff1673ffffffffffffffffffffffffffffffffffffffff16815260200191505060405180910390f35b34801561070b57600080fd5b506107146115cd565b6040518082815260200191505060405180910390f35b34801561073657600080fd5b5061076b600480360381019080803573ffffffffffffffffffffffffffffffffffffffff1690602001909291905050506115d3565b6040518082815260200191505060405180910390f35b34801561078d57600080fd5b5061079661161c565b6040518082815260200191505060405180910390f35b3480156107b857600080fd5b506107c1611622565b6040518082815260200191505060405180910390f35b3480156107e357600080fd5b506107ec611628565b60405180826000191660001916815260200191505060405180910390f35b34801561081657600080fd5b5061081f61162e565b6040518080602001828103825283818151815260200191508051906020019080838360005b8381101561085f578082015181840152602081019050610844565b50505050905090810190601f16801561088c5780820380516001836020036101000a031916815260200191505b509250505060405180910390f35b3480156108a657600080fd5b506108c5600480360381019080803590602001909291905050506116cc565b604051808215151515815260200191505060405180910390f35b3480156108eb57600080fd5b5061092a600480360381019080803573ffffffffffffffffffffffffffffffffffffffff169060200190929190803590602001909291905050506117d3565b604051808215151515815260200191505060405180910390f35b34801561095057600080fd5b5061095961196e565b604051808273ffffffffffffffffffffffffffffffffffffffff1673ffffffffffffffffffffffffffffffffffffffff16815260200191505060405180910390f35b3480156109a757600080fd5b506109b0611994565b6040518082815260200191505060405180910390f35b3480156109d257600080fd5b506109f16004803603810190808035906020019092919050505061199a565b60405180826000191660001916815260200191505060405180910390f35b348015610a1b57600080fd5b50610a50600480360381019080803573ffffffffffffffffffffffffffffffffffffffff169060200190929190505050611b81565b6040518082815260200191505060405180910390f35b348015610a7257600080fd5b50610a9160048036038101908080359060200190929190505050611b99565b005b348015610a9f57600080fd5b50610aa8611ce5565b604051808273ffffffffffffffffffffffffffffffffffffffff1673ffffffffffffffffffffffffffffffffffffffff16815260200191505060405180910390f35b348015610af657600080fd5b50610b7b600480360381019080803573ffffffffffffffffffffffffffffffffffffffff16906020019092919080359060200190929190803590602001908201803590602001908080601f0160208091040260200160405190810160405280939291908181526020018383808284378201915050505050509192919290505050611d0b565b604051808215151515815260200191505060405180910390f35b348015610ba157600080fd5b50610baa611f5a565b6040518082815260200191505060405180910390f35b348015610bcc57600080fd5b50610bd5611f60565b6040518082815260200191505060405180910390f35b348015610bf757600080fd5b50610c4c600480360381019080803573ffffffffffffffffffffffffffffffffffffffff169060200190929190803573ffffffffffffffffffffffffffffffffffffffff169060200190929190505050611f66565b6040518082815260200191505060405180910390f35b348015610c6e57600080fd5b50610c77611fed565b6040518082815260200191505060405180910390f35b348015610c9957600080fd5b50610ca2612034565b6040518082815260200191505060405180910390f35b348015610cc457600080fd5b50610ccd61203a565b6040518082815260200191505060405180910390f35b348015610cef57600080fd5b50610cf8612044565b6040518082815260200191505060405180910390f35b348015610d1a57600080fd5b50610d7c600480360381019080803590602001909291908035906020019082018035906020019080806020026020016040519081016040528093929190818152602001838360200280828437820191505050505050919291929050505061204a565b604051808215151515815260200191505060405180910390f35b60075481565b60158054600181600116156101000203166002900480601f016020809104026020016040519081016040528092919081815260200182805460018160011615610100020316600290048015610e325780601f10610e0757610100808354040283529160200191610e32565b820191906000526020600020905b815481529060010190602001808311610e1557829003601f168201915b505050505081565b600a5481565b600081601760003373ffffffffffffffffffffffffffffffffffffffff1673ffffffffffffffffffffffffffffffffffffffff16815260200190815260200160002060008573ffffffffffffffffffffffffffffffffffffffff1673ffffffffffffffffffffffffffffffffffffffff168152602001908152602001600020819055508273ffffffffffffffffffffffffffffffffffffffff163373ffffffffffffffffffffffffffffffffffffffff167f8c5be1e5ebec7d5bd14f71427d1e84f3dd0314c0f7b2291e5b200ac8c7c3b925846040518082815260200191505060405180910390a36001905092915050565b6000610f50610f3f6112af565b60075461205290919063ffffffff16565b905090565b6000601660008073ffffffffffffffffffffffffffffffffffffffff1673ffffffffffffffffffffffffffffffffffffffff1681526020019081526020016000205460125403905090565b60095481565b6000610ffa82601660008773ffffffffffffffffffffffffffffffffffffffff1673ffffffffffffffffffffffffffffffffffffffff1681526020019081526020016000205461207690919063ffffffff16565b601660008673ffffffffffffffffffffffffffffffffffffffff1673ffffffffffffffffffffffffffffffffffffffff168152602001908152602001600020819055506110cc82601760008773ffffffffffffffffffffffffffffffffffffffff1673ffffffffffffffffffffffffffffffffffffffff16815260200190815260200160002060003373ffffffffffffffffffffffffffffffffffffffff1673ffffffffffffffffffffffffffffffffffffffff1681526020019081526020016000205461207690919063ffffffff16565b601760008673ffffffffffffffffffffffffffffffffffffffff1673ffffffffffffffffffffffffffffffffffffffff16815260200190815260200160002060003373ffffffffffffffffffffffffffffffffffffffff1673ffffffffffffffffffffffffffffffffffffffff1681526020019081526020016000208190555061119e82601660008673ffffffffffffffffffffffffffffffffffffffff1673ffffffffffffffffffffffffffffffffffffffff1681526020019081526020016000205461209290919063ffffffff16565b601660008573ffffffffffffffffffffffffffffffffffffffff1673ffffffffffffffffffffffffffffffffffffffff168152602001908152602001600020819055508273ffffffffffffffffffffffffffffffffffffffff168473ffffffffffffffffffffffffffffffffffffffff167fddf252ad1be2c89b69c2b068fc378daa952ba7f163c4a11628f55a4df523b3ef846040518082815260200191505060405180910390a3600190509392505050565b601960003373ffffffffffffffffffffffffffffffffffffffff1673ffffffffffffffffffffffffffffffffffffffff16815260200190815260200160002060009055565b600f5481565b600c60009054906101000a900460ff1681565b6000806112ba611fed565b905060008111156113a257601860009054906101000a900473ffffffffffffffffffffffffffffffffffffffff1673ffffffffffffffffffffffffffffffffffffffff1663978098fd826002546040518363ffffffff167c01000000000000000000000000000000000000000000000000000000000281526004018083815260200182815260200192505050602060405180830381600087803b15801561136057600080fd5b505af1158015611374573d6000803e3d6000fd5b505050506040513d602081101561138a57600080fd5b810190808051906020019092919050505091506113a8565b60025491505b5090565b60085481565b60125481565b60115481565b60006113f1600f5460020a600c60009054906101000a900460ff1660ff16600a0a600e540261205290919063ffffffff16565b905090565b6000600154905090565b60105481565b600e5481565b600061146082601660003273ffffffffffffffffffffffffffffffffffffffff1673ffffffffffffffffffffffffffffffffffffffff1681526020019081526020016000205461207690919063ffffffff16565b601660003273ffffffffffffffffffffffffffffffffffffffff1673ffffffffffffffffffffffffffffffffffffffff168152602001908152602001600020819055506114f582601660008673ffffffffffffffffffffffffffffffffffffffff1673ffffffffffffffffffffffffffffffffffffffff1681526020019081526020016000205461209290919063ffffffff16565b601660008573ffffffffffffffffffffffffffffffffffffffff1673ffffffffffffffffffffffffffffffffffffffff168152602001908152602001600020819055508273ffffffffffffffffffffffffffffffffffffffff163273ffffffffffffffffffffffffffffffffffffffff167fddf252ad1be2c89b69c2b068fc378daa952ba7f163c4a11628f55a4df523b3ef846040518082815260200191505060405180910390a36001905092915050565b601b60009054906101000a900473ffffffffffffffffffffffffffffffffffffffff1681565b60035481565b6000601660008373ffffffffffffffffffffffffffffffffffffffff1673ffffffffffffffffffffffffffffffffffffffff168152602001908152602001600020549050919050565b60055481565b60025481565b60015481565b60148054600181600116156101000203166002900480601f0160208091040260200160405190810160405280929190818152602001828054600181600116156101000203166002900480156116c45780601f10611699576101008083540402835291602001916116c4565b820191906000526020600020905b8154815290600101906020018083116116a757829003601f168201915b505050505081565b600080600073ffffffffffffffffffffffffffffffffffffffff163373ffffffffffffffffffffffffffffffffffffffff161415151561170b57600080fd5b6117148361199a565b5061171d6120ae565b90508060036000828254019250508190555061173761210b565b600581905550600060045460055481151561174e57fe5b06141561175f5761175d6121a7565b505b3373ffffffffffffffffffffffffffffffffffffffff167fcf6fbb9dcea7d07263ab4f5c3a92f53af33dffc421d9d121e1c74b307e68189d82600554600154604051808481526020018381526020018260001916600019168152602001935050505060405180910390a26001915050919050565b600061182782601660003373ffffffffffffffffffffffffffffffffffffffff1673ffffffffffffffffffffffffffffffffffffffff1681526020019081526020016000205461207690919063ffffffff16565b601660003373ffffffffffffffffffffffffffffffffffffffff1673ffffffffffffffffffffffffffffffffffffffff168152602001908152602001600020819055506118bc82601660008673ffffffffffffffffffffffffffffffffffffffff1673ffffffffffffffffffffffffffffffffffffffff1681526020019081526020016000205461209290919063ffffffff16565b601660008573ffffffffffffffffffffffffffffffffffffffff1673ffffffffffffffffffffffffffffffffffffffff168152602001908152602001600020819055508273ffffffffffffffffffffffffffffffffffffffff163373ffffffffffffffffffffffffffffffffffffffff167fddf252ad1be2c89b69c2b068fc378daa952ba7f163c4a11628f55a4df523b3ef846040518082815260200191505060405180910390a36001905092915050565b601860009054906101000a900473ffffffffffffffffffffffffffffffffffffffff1681565b600b5481565b6000806000806119a8611fed565b92506000831115611b6d57600154306c0100000000000000000000000002326c01000000000000000000000000021886604051808460001916600019168152602001836bffffffffffffffffffffffff19166bffffffffffffffffffffffff19168152601401828152602001935050505060405180910390209350601860009054906101000a900473ffffffffffffffffffffffffffffffffffffffff1673ffffffffffffffffffffffffffffffffffffffff1663978098fd846002546040518363ffffffff167c01000000000000000000000000000000000000000000000000000000000281526004018083815260200182815260200192505050602060405180830381600087803b158015611abe57600080fd5b505af1158015611ad2573d6000803e3d6000fd5b505050506040513d6020811015611ae857600080fd5b810190808051906020019092919050505091508184600190041115611b0c57600080fd5b6013600060015460001916600019168152602001908152602001600020549050836013600060015460001916600019168152602001908152602001600020816000191690555060006001028160001916141515611b6857600080fd5b611b79565b611b768561233d565b93505b505050919050565b60196020528060005260406000206000915090505481565b3373ffffffffffffffffffffffffffffffffffffffff16601860009054906101000a900473ffffffffffffffffffffffffffffffffffffffff1673ffffffffffffffffffffffffffffffffffffffff16636352211e836040518263ffffffff167c010000000000000000000000000000000000000000000000000000000002815260040180828152602001915050602060405180830381600087803b158015611c4157600080fd5b505af1158015611c55573d6000803e3d6000fd5b505050506040513d6020811015611c6b57600080fd5b810190808051906020019092919050505073ffffffffffffffffffffffffffffffffffffffff16141515611c9e57600080fd5b80601960003373ffffffffffffffffffffffffffffffffffffffff1673ffffffffffffffffffffffffffffffffffffffff1681526020019081526020016000208190555050565b601a60009054906101000a900473ffffffffffffffffffffffffffffffffffffffff1681565b600082601760003373ffffffffffffffffffffffffffffffffffffffff1673ffffffffffffffffffffffffffffffffffffffff16815260200190815260200160002060008673ffffffffffffffffffffffffffffffffffffffff1673ffffffffffffffffffffffffffffffffffffffff168152602001908152602001600020819055508373ffffffffffffffffffffffffffffffffffffffff163373ffffffffffffffffffffffffffffffffffffffff167f8c5be1e5ebec7d5bd14f71427d1e84f3dd0314c0f7b2291e5b200ac8c7c3b925856040518082815260200191505060405180910390a38373ffffffffffffffffffffffffffffffffffffffff16638f4ffcb1338530866040518563ffffffff167c0100000000000000000000000000000000000000000000000000000000028152600401808573ffffffffffffffffffffffffffffffffffffffff1673ffffffffffffffffffffffffffffffffffffffff1681526020018481526020018373ffffffffffffffffffffffffffffffffffffffff1673ffffffffffffffffffffffffffffffffffffffff16815260200180602001828103825283818151815260200191508051906020019080838360005b83811015611ee8578082015181840152602081019050611ecd565b50505050905090810190601f168015611f155780820380516001836020036101000a031916815260200191505b5095505050505050600060405180830381600087803b158015611f3757600080fd5b505af1158015611f4b573d6000803e3d6000fd5b50505050600190509392505050565b600d5481565b60045481565b6000601760008473ffffffffffffffffffffffffffffffffffffffff1673ffffffffffffffffffffffffffffffffffffffff16815260200190815260200160002060008373ffffffffffffffffffffffffffffffffffffffff1673ffffffffffffffffffffffffffffffffffffffff16815260200190815260200160002054905092915050565b6000601960003373ffffffffffffffffffffffffffffffffffffffff1673ffffffffffffffffffffffffffffffffffffffff16815260200190815260200160002054905090565b60065481565b6000610258905090565b60005481565b600092915050565b6000808211151561206257600080fd5b818381151561206d57fe5b04905092915050565b600082821115151561208757600080fd5b818303905092915050565b600081830190508281101515156120a857600080fd5b92915050565b60006120b861242b565b9050612108601a60009054906101000a900473ffffffffffffffffffffffffffffffffffffffff16601b60009054906101000a900473ffffffffffffffffffffffffffffffffffffffff166125d7565b90565b600060105461212c61211b6113be565b60035461209290919063ffffffff16565b11801561213b57506027600f54105b1561214d576001600f5401600f819055505b61216a6001600f540160020a60125461205290919063ffffffff16565b6012540360108190555061218a600160055461209290919063ffffffff16565b600581905550600143034060018160001916905550600554905090565b600080600080600080600080600d544303965060045495506008548602945084871015612269576121f5876121e76009548861265790919063ffffffff16565b61205290919063ffffffff16565b935061221f600b5461221160648761207690919063ffffffff16565b61268890919063ffffffff16565b925061225e61224d8461223f600a5460025461205290919063ffffffff16565b61265790919063ffffffff16565b60025461207690919063ffffffff16565b600281905550612300565b612290856122826009548a61265790919063ffffffff16565b61205290919063ffffffff16565b91506122ba600b546122ac60648561207690919063ffffffff16565b61268890919063ffffffff16565b90506122f96122e8826122da600a5460025461205290919063ffffffff16565b61265790919063ffffffff16565b60025461209290919063ffffffff16565b6002819055505b43600d81905550600654600254101561231d576006546002819055505b6007546002541115612333576007546002819055505b5050505050505090565b600080600154306c0100000000000000000000000002326c01000000000000000000000000021884604051808460001916600019168152602001836bffffffffffffffffffffffff19166bffffffffffffffffffffffff191681526014018281526020019350505050604051809103902091506123b86112af565b82600190041015156123c957600080fd5b601360006001546000191660001916815260200190815260200160002054905081601360006001546000191660001916815260200190815260200160002081600019169055506000600102816000191614151561242557600080fd5b50919050565b600080612436611fed565b9050600081111561252357601860009054906101000a900473ffffffffffffffffffffffffffffffffffffffff1673ffffffffffffffffffffffffffffffffffffffff1663912ca8b4826124886113be565b6040518363ffffffff167c01000000000000000000000000000000000000000000000000000000000281526004018083815260200182815260200192505050602060405180830381600087803b1580156124e157600080fd5b505af11580156124f5573d6000803e3d6000fd5b505050506040513d602081101561250b57600080fd5b8101908080519060200190929190505050915061252e565b61252b6113be565b91505b61258082601660003373ffffffffffffffffffffffffffffffffffffffff1673ffffffffffffffffffffffffffffffffffffffff1681526020019081526020016000205461209290919063ffffffff16565b601660003373ffffffffffffffffffffffffffffffffffffffff1673ffffffffffffffffffffffffffffffffffffffff16815260200190815260200160002081905550601054600354111515156125d357fe5b5090565b8073ffffffffffffffffffffffffffffffffffffffff1663d96a54846040518163ffffffff167c0100000000000000000000000000000000000000000000000000000000028152600401600060405180830381600087803b15801561263b57600080fd5b505af115801561264f573d6000803e3d6000fd5b505050505050565b600081830290506000831480612677575081838281151561267457fe5b04145b151561268257600080fd5b92915050565b60008183111561269a5781905061269e565b8290505b92915050565b83600c60006101000a81548160ff021916908360ff160217905550600c60009054906101000a900460ff1660ff16600a0a850260128190555082600e819055508160048190555060006003819055506000600f81905550612711600260125461205290919063ffffffff16565b601081905550600081116127275760075461273d565b61273c8160075461205290919063ffffffff16565b5b6002819055506007546002541115612759576007546002819055505b43600d819055507f069c712e03e70f0b35d735396de7ee8ffbf881b4ffb3859fbdd328a2dca6039285858585604051808581526020018460ff1660ff16815260200183815260200182815260200194505050505060405180910390a16127bd61210b565b5050505050505600a165627a7a7230582013ad3c6ea0fe2db23003381ad5ddaa4b8112b2ce75f71dfef135ea28476b9d160029",
  "source": "pragma solidity ^0.4.23;\n\nimport \"./BoostableMineableToken.sol\";\nimport \"./Antigasable.sol\";\n\ncontract MineableToken is BoostableMineableToken, Antigasable {\n\n    using SafeMath for uint;\n    \n    address public mithrilTokenAddress;\n\n    address public mithrilQuarryAddress;\n        \n    // ------------------------------------------------------------------------\n    // Constructor\n    // ------------------------------------------------------------------------\n    constructor(address _mithrilTokenAddress, address _mithrilQuarryAddress, address _boosterAddress, \n        string _symbol, string _name, uint8 _decimals, uint _supply, uint _reward, uint _adjustmentBlockCount, uint _initialDifficulty) \n        BoostableMineableToken(_boosterAddress)\n        ERC20Mineable(_symbol, _name, _decimals, _supply, _reward, _adjustmentBlockCount, _initialDifficulty)\n        public\n    {\n        symbol = _symbol;\n        name = _name;\n        mithrilTokenAddress = _mithrilTokenAddress;\n        mithrilQuarryAddress = _mithrilQuarryAddress;\n    }\n\n    function _reward() internal returns (uint amount) {\n        amount = super._reward();\n        rewardAntigas(mithrilTokenAddress, mithrilQuarryAddress);\n    }\n    \n}",
  "sourcePath": "/Users/logelj1/Documents/playground/0xMithril/mithril-repo/0xmithriltoken/contracts/MineableToken.sol",
  "compiler": {
    "name": "solc",
    "version": "0.4.23+commit.124ca40d.Emscripten.clang"
  },
  "schemaVersion": "2.0.0",
  "updatedAt": "2018-05-17T19:42:43.693Z"
}