{
  "contractName": "ChildArtifact",
  "abi": [
    {
      "constant": true,
      "inputs": [
        {
          "name": "_tokenId",
          "type": "uint256"
        }
      ],
      "name": "getApproved",
      "outputs": [
        {
          "name": "",
          "type": "address"
        }
      ],
      "payable": false,
      "stateMutability": "view",
      "type": "function"
    },
    {
      "constant": false,
      "inputs": [
        {
          "name": "_to",
          "type": "address"
        },
        {
          "name": "_tokenId",
          "type": "uint256"
        }
      ],
      "name": "approve",
      "outputs": [],
      "payable": false,
      "stateMutability": "nonpayable",
      "type": "function"
    },
    {
      "constant": true,
      "inputs": [],
      "name": "totalSupply",
      "outputs": [
        {
          "name": "",
          "type": "uint256"
        }
      ],
      "payable": false,
      "stateMutability": "view",
      "type": "function"
    },
    {
      "constant": false,
      "inputs": [
        {
          "name": "_from",
          "type": "address"
        },
        {
          "name": "_to",
          "type": "address"
        },
        {
          "name": "_tokenId",
          "type": "uint256"
        }
      ],
      "name": "transferFrom",
      "outputs": [],
      "payable": false,
      "stateMutability": "nonpayable",
      "type": "function"
    },
    {
      "constant": true,
      "inputs": [
        {
          "name": "_owner",
          "type": "address"
        },
        {
          "name": "_index",
          "type": "uint256"
        }
      ],
      "name": "tokenOfOwnerByIndex",
      "outputs": [
        {
          "name": "",
          "type": "uint256"
        }
      ],
      "payable": false,
      "stateMutability": "view",
      "type": "function"
    },
    {
      "constant": false,
      "inputs": [
        {
          "name": "_from",
          "type": "address"
        },
        {
          "name": "_to",
          "type": "address"
        },
        {
          "name": "_tokenId",
          "type": "uint256"
        }
      ],
      "name": "safeTransferFrom",
      "outputs": [],
      "payable": false,
      "stateMutability": "nonpayable",
      "type": "function"
    },
    {
      "constant": true,
      "inputs": [
        {
          "name": "_tokenId",
          "type": "uint256"
        }
      ],
      "name": "exists",
      "outputs": [
        {
          "name": "",
          "type": "bool"
        }
      ],
      "payable": false,
      "stateMutability": "view",
      "type": "function"
    },
    {
      "constant": true,
      "inputs": [
        {
          "name": "_index",
          "type": "uint256"
        }
      ],
      "name": "tokenByIndex",
      "outputs": [
        {
          "name": "",
          "type": "uint256"
        }
      ],
      "payable": false,
      "stateMutability": "view",
      "type": "function"
    },
    {
      "constant": true,
      "inputs": [
        {
          "name": "_tokenId",
          "type": "uint256"
        }
      ],
      "name": "ownerOf",
      "outputs": [
        {
          "name": "",
          "type": "address"
        }
      ],
      "payable": false,
      "stateMutability": "view",
      "type": "function"
    },
    {
      "constant": true,
      "inputs": [
        {
          "name": "_owner",
          "type": "address"
        }
      ],
      "name": "balanceOf",
      "outputs": [
        {
          "name": "",
          "type": "uint256"
        }
      ],
      "payable": false,
      "stateMutability": "view",
      "type": "function"
    },
    {
      "constant": true,
      "inputs": [],
      "name": "owner",
      "outputs": [
        {
          "name": "",
          "type": "address"
        }
      ],
      "payable": false,
      "stateMutability": "view",
      "type": "function"
    },
    {
      "constant": true,
      "inputs": [],
      "name": "symbol",
      "outputs": [
        {
          "name": "",
          "type": "string"
        }
      ],
      "payable": false,
      "stateMutability": "view",
      "type": "function"
    },
    {
      "constant": false,
      "inputs": [
        {
          "name": "_to",
          "type": "address"
        },
        {
          "name": "_approved",
          "type": "bool"
        }
      ],
      "name": "setApprovalForAll",
      "outputs": [],
      "payable": false,
      "stateMutability": "nonpayable",
      "type": "function"
    },
    {
      "constant": false,
      "inputs": [
        {
          "name": "_to",
          "type": "address"
        },
        {
          "name": "_tokenId",
          "type": "uint256"
        }
      ],
      "name": "transfer",
      "outputs": [],
      "payable": false,
      "stateMutability": "nonpayable",
      "type": "function"
    },
    {
      "constant": false,
      "inputs": [
        {
          "name": "_from",
          "type": "address"
        },
        {
          "name": "_to",
          "type": "address"
        },
        {
          "name": "_tokenId",
          "type": "uint256"
        },
        {
          "name": "_data",
          "type": "bytes"
        }
      ],
      "name": "safeTransferFrom",
      "outputs": [],
      "payable": false,
      "stateMutability": "nonpayable",
      "type": "function"
    },
    {
      "constant": true,
      "inputs": [
        {
          "name": "_tokenId",
          "type": "uint256"
        }
      ],
      "name": "tokenURI",
      "outputs": [
        {
          "name": "",
          "type": "string"
        }
      ],
      "payable": false,
      "stateMutability": "view",
      "type": "function"
    },
    {
      "constant": true,
      "inputs": [
        {
          "name": "_owner",
          "type": "address"
        },
        {
          "name": "_operator",
          "type": "address"
        }
      ],
      "name": "isApprovedForAll",
      "outputs": [
        {
          "name": "",
          "type": "bool"
        }
      ],
      "payable": false,
      "stateMutability": "view",
      "type": "function"
    },
    {
      "constant": false,
      "inputs": [
        {
          "name": "_newOwner",
          "type": "address"
        }
      ],
      "name": "transferOwnership",
      "outputs": [],
      "payable": false,
      "stateMutability": "nonpayable",
      "type": "function"
    },
    {
      "anonymous": false,
      "inputs": [
        {
          "indexed": false,
          "name": "owner",
          "type": "address"
        },
        {
          "indexed": false,
          "name": "id",
          "type": "uint256"
        },
        {
          "indexed": false,
          "name": "name",
          "type": "string"
        }
      ],
      "name": "MintChildArtifact",
      "type": "event"
    },
    {
      "anonymous": false,
      "inputs": [
        {
          "indexed": true,
          "name": "_from",
          "type": "address"
        },
        {
          "indexed": true,
          "name": "_to",
          "type": "address"
        }
      ],
      "name": "OwnershipTransferred",
      "type": "event"
    },
    {
      "anonymous": false,
      "inputs": [
        {
          "indexed": true,
          "name": "_from",
          "type": "address"
        },
        {
          "indexed": true,
          "name": "_to",
          "type": "address"
        },
        {
          "indexed": false,
          "name": "_tokenId",
          "type": "uint256"
        }
      ],
      "name": "Transfer",
      "type": "event"
    },
    {
      "anonymous": false,
      "inputs": [
        {
          "indexed": true,
          "name": "_owner",
          "type": "address"
        },
        {
          "indexed": true,
          "name": "_approved",
          "type": "address"
        },
        {
          "indexed": false,
          "name": "_tokenId",
          "type": "uint256"
        }
      ],
      "name": "Approval",
      "type": "event"
    },
    {
      "anonymous": false,
      "inputs": [
        {
          "indexed": true,
          "name": "_owner",
          "type": "address"
        },
        {
          "indexed": true,
          "name": "_operator",
          "type": "address"
        },
        {
          "indexed": false,
          "name": "_approved",
          "type": "bool"
        }
      ],
      "name": "ApprovalForAll",
      "type": "event"
    },
    {
      "constant": false,
      "inputs": [
        {
          "name": "_owner",
          "type": "address"
        },
        {
          "name": "_name",
          "type": "string"
        },
        {
          "name": "_life",
          "type": "uint256"
        },
        {
          "name": "_statisticModifiers",
          "type": "uint256[]"
        }
      ],
      "name": "mint",
      "outputs": [
        {
          "name": "_boosterId",
          "type": "uint256"
        }
      ],
      "payable": false,
      "stateMutability": "nonpayable",
      "type": "function"
    },
    {
      "constant": true,
      "inputs": [],
      "name": "isChildArtifact",
      "outputs": [
        {
          "name": "",
          "type": "bool"
        }
      ],
      "payable": false,
      "stateMutability": "pure",
      "type": "function"
    },
    {
      "constant": false,
      "inputs": [
        {
          "name": "_id",
          "type": "uint256"
        }
      ],
      "name": "decrementLife",
      "outputs": [
        {
          "name": "remainingLife",
          "type": "uint256"
        }
      ],
      "payable": false,
      "stateMutability": "nonpayable",
      "type": "function"
    },
    {
      "constant": true,
      "inputs": [
        {
          "name": "_id",
          "type": "uint256"
        }
      ],
      "name": "artifactAt",
      "outputs": [
        {
          "name": "name",
          "type": "string"
        },
        {
          "name": "parent",
          "type": "uint256"
        },
        {
          "name": "life",
          "type": "uint256"
        },
        {
          "name": "statisticModifiers",
          "type": "uint256[]"
        }
      ],
      "payable": false,
      "stateMutability": "view",
      "type": "function"
    },
    {
      "constant": true,
      "inputs": [
        {
          "name": "_id",
          "type": "uint256"
        }
      ],
      "name": "statisticModifiers",
      "outputs": [
        {
          "name": "statMods",
          "type": "uint256[]"
        }
      ],
      "payable": false,
      "stateMutability": "view",
      "type": "function"
    },
    {
      "constant": true,
      "inputs": [],
      "name": "name",
      "outputs": [
        {
          "name": "",
          "type": "string"
        }
      ],
      "payable": false,
      "stateMutability": "view",
      "type": "function"
    },
    {
      "constant": true,
      "inputs": [
        {
          "name": "_id",
          "type": "uint256"
        }
      ],
      "name": "name",
      "outputs": [
        {
          "name": "",
          "type": "string"
        }
      ],
      "payable": false,
      "stateMutability": "view",
      "type": "function"
    },
    {
      "constant": true,
      "inputs": [
        {
          "name": "_id",
          "type": "uint256"
        }
      ],
      "name": "life",
      "outputs": [
        {
          "name": "",
          "type": "uint256"
        }
      ],
      "payable": false,
      "stateMutability": "view",
      "type": "function"
    },
    {
      "constant": true,
      "inputs": [
        {
          "name": "_id",
          "type": "uint256"
        }
      ],
      "name": "getParentArtifact",
      "outputs": [
        {
          "name": "",
          "type": "uint256"
        }
      ],
      "payable": false,
      "stateMutability": "view",
      "type": "function"
    },
    {
      "constant": false,
      "inputs": [
        {
          "name": "_id",
          "type": "uint256"
        }
      ],
      "name": "detach",
      "outputs": [],
      "payable": false,
      "stateMutability": "nonpayable",
      "type": "function"
    },
    {
      "constant": false,
      "inputs": [
        {
          "name": "_id",
          "type": "uint256"
        },
        {
          "name": "_parent",
          "type": "uint256"
        }
      ],
      "name": "attach",
      "outputs": [],
      "payable": false,
      "stateMutability": "nonpayable",
      "type": "function"
    },
    {
      "constant": false,
      "inputs": [
        {
          "name": "_id",
          "type": "uint256"
        },
        {
          "name": "_modifierIdx",
          "type": "uint256"
        }
      ],
      "name": "parseModifier",
      "outputs": [
        {
          "name": "target",
          "type": "uint256"
        },
        {
          "name": "op",
          "type": "uint256"
        }
      ],
      "payable": false,
      "stateMutability": "nonpayable",
      "type": "function"
    }
  ],
  "bytecode": "0x60806040526040805190810160405280600781526020017f30784348494c44000000000000000000000000000000000000000000000000008152506040805190810160405280601681526020017f4d69746872696c204368696c6420417274696661637400000000000000000000815250816004908051906020019062000088929190620000eb565b508060059080519060200190620000a1929190620000eb565b50505033600b60006101000a81548173ffffffffffffffffffffffffffffffffffffffff021916908373ffffffffffffffffffffffffffffffffffffffff1602179055506200019a565b828054600181600116156101000203166002900490600052602060002090601f016020900481019282601f106200012e57805160ff19168380011785556200015f565b828001600101855582156200015f579182015b828111156200015e57825182559160200191906001019062000141565b5b5090506200016e919062000172565b5090565b6200019791905b808211156200019357600081600090555060010162000179565b5090565b90565b612aae80620001aa6000396000f30060806040526004361061017f576000357c0100000000000000000000000000000000000000000000000000000000900463ffffffff168062ad800c1461018457806306fdde031461022a578063081812fc146102ba578063095ea7b31461032757806318160ddd14610374578063222720241461039f57806323b872dd146103e05780632f745c591461044d57806342842e0e146104ae5780634f558e791461051b5780634f6ccce7146105605780635345c676146105a15780636352211e1461062357806370a082311461069057806374cd6431146106e75780638da5cb5b1461072857806395d89b411461077f578063986b7d8a1461080f578063a22cb4651461083c578063a9059cbb1461088b578063adbaed04146108d8578063b88d4fde146109c2578063bea4c12714610a75578063c55e0ec514610ac7578063c87b56dd14610afe578063cddc994414610ba4578063cf66d38e14610be5578063e15b206314610c14578063e985e9c514610d10578063f2fde38b14610d8b575b600080fd5b34801561019057600080fd5b506101af60048036038101908080359060200190929190505050610dce565b6040518080602001828103825283818151815260200191508051906020019080838360005b838110156101ef5780820151818401526020810190506101d4565b50505050905090810190601f16801561021c5780820380516001836020036101000a031916815260200191505b509250505060405180910390f35b34801561023657600080fd5b5061023f610e86565b6040518080602001828103825283818151815260200191508051906020019080838360005b8381101561027f578082015181840152602081019050610264565b50505050905090810190601f1680156102ac5780820380516001836020036101000a031916815260200191505b509250505060405180910390f35b3480156102c657600080fd5b506102e560048036038101908080359060200190929190505050610f28565b604051808273ffffffffffffffffffffffffffffffffffffffff1673ffffffffffffffffffffffffffffffffffffffff16815260200191505060405180910390f35b34801561033357600080fd5b50610372600480360381019080803573ffffffffffffffffffffffffffffffffffffffff16906020019092919080359060200190929190505050610f65565b005b34801561038057600080fd5b5061038961112b565b6040518082815260200191505060405180910390f35b3480156103ab57600080fd5b506103ca60048036038101908080359060200190929190505050611138565b6040518082815260200191505060405180910390f35b3480156103ec57600080fd5b5061044b600480360381019080803573ffffffffffffffffffffffffffffffffffffffff169060200190929190803573ffffffffffffffffffffffffffffffffffffffff16906020019092919080359060200190929190505050611158565b005b34801561045957600080fd5b50610498600480360381019080803573ffffffffffffffffffffffffffffffffffffffff1690602001909291908035906020019092919050505061126f565b6040518082815260200191505060405180910390f35b3480156104ba57600080fd5b50610519600480360381019080803573ffffffffffffffffffffffffffffffffffffffff169060200190929190803573ffffffffffffffffffffffffffffffffffffffff169060200190929190803590602001909291905050506112e6565b005b34801561052757600080fd5b506105466004803603810190808035906020019092919050505061131e565b604051808215151515815260200191505060405180910390f35b34801561056c57600080fd5b5061058b6004803603810190808035906020019092919050505061138f565b6040518082815260200191505060405180910390f35b3480156105ad57600080fd5b506105cc600480360381019080803590602001909291905050506113c7565b6040518080602001828103825283818151815260200191508051906020019060200280838360005b8381101561060f5780820151818401526020810190506105f4565b505050509050019250505060405180910390f35b34801561062f57600080fd5b5061064e60048036038101908080359060200190929190505050611435565b604051808273ffffffffffffffffffffffffffffffffffffffff1673ffffffffffffffffffffffffffffffffffffffff16815260200191505060405180910390f35b34801561069c57600080fd5b506106d1600480360381019080803573ffffffffffffffffffffffffffffffffffffffff1690602001909291905050506114b2565b6040518082815260200191505060405180910390f35b3480156106f357600080fd5b5061071260048036038101908080359060200190929190505050611536565b6040518082815260200191505060405180910390f35b34801561073457600080fd5b5061073d6115fc565b604051808273ffffffffffffffffffffffffffffffffffffffff1673ffffffffffffffffffffffffffffffffffffffff16815260200191505060405180910390f35b34801561078b57600080fd5b50610794611622565b6040518080602001828103825283818151815260200191508051906020019080838360005b838110156107d45780820151818401526020810190506107b9565b50505050905090810190601f1680156108015780820380516001836020036101000a031916815260200191505b509250505060405180910390f35b34801561081b57600080fd5b5061083a600480360381019080803590602001909291905050506116c4565b005b34801561084857600080fd5b50610889600480360381019080803573ffffffffffffffffffffffffffffffffffffffff169060200190929190803515159060200190929190505050611725565b005b34801561089757600080fd5b506108d6600480360381019080803573ffffffffffffffffffffffffffffffffffffffff16906020019092919080359060200190929190505050611861565b005b3480156108e457600080fd5b506109ac600480360381019080803573ffffffffffffffffffffffffffffffffffffffff169060200190929190803590602001908201803590602001908080601f01602080910402602001604051908101604052809392919081815260200183838082843782019150505050505091929192908035906020019092919080359060200190820180359060200190808060200260200160405190810160405280939291908181526020018383602002808284378201915050505050509192919290505050611870565b6040518082815260200191505060405180910390f35b3480156109ce57600080fd5b50610a73600480360381019080803573ffffffffffffffffffffffffffffffffffffffff169060200190929190803573ffffffffffffffffffffffffffffffffffffffff16906020019092919080359060200190929190803590602001908201803590602001908080601f0160208091040260200160405190810160405280939291908181526020018383808284378201915050505050509192919290505050611a27565b005b348015610a8157600080fd5b50610aaa6004803603810190808035906020019092919080359060200190929190505050611a66565b604051808381526020018281526020019250505060405180910390f35b348015610ad357600080fd5b50610afc6004803603810190808035906020019092919080359060200190929190505050611ad2565b005b348015610b0a57600080fd5b50610b2960048036038101908080359060200190929190505050611b33565b6040518080602001828103825283818151815260200191508051906020019080838360005b83811015610b69578082015181840152602081019050610b4e565b50505050905090810190601f168015610b965780820380516001836020036101000a031916815260200191505b509250505060405180910390f35b348015610bb057600080fd5b50610bcf60048036038101908080359060200190929190505050611bfc565b6040518082815260200191505060405180910390f35b348015610bf157600080fd5b50610bfa611c1c565b604051808215151515815260200191505060405180910390f35b348015610c2057600080fd5b50610c3f60048036038101908080359060200190929190505050611c25565b604051808060200185815260200184815260200180602001838103835287818151815260200191508051906020019080838360005b83811015610c8f578082015181840152602081019050610c74565b50505050905090810190601f168015610cbc5780820380516001836020036101000a031916815260200191505b50838103825284818151815260200191508051906020019060200280838360005b83811015610cf8578082015181840152602081019050610cdd565b50505050905001965050505050505060405180910390f35b348015610d1c57600080fd5b50610d71600480360381019080803573ffffffffffffffffffffffffffffffffffffffff169060200190929190803573ffffffffffffffffffffffffffffffffffffffff169060200190929190505050611d7d565b604051808215151515815260200191505060405180910390f35b348015610d9757600080fd5b50610dcc600480360381019080803573ffffffffffffffffffffffffffffffffffffffff169060200190929190505050611e11565b005b6060600c60008381526020019081526020016000206000018054600181600116156101000203166002900480601f016020809104026020016040519081016040528092919081815260200182805460018160011615610100020316600290048015610e7a5780601f10610e4f57610100808354040283529160200191610e7a565b820191906000526020600020905b815481529060010190602001808311610e5d57829003601f168201915b50505050509050919050565b606060048054600181600116156101000203166002900480601f016020809104026020016040519081016040528092919081815260200182805460018160011615610100020316600290048015610f1e5780601f10610ef357610100808354040283529160200191610f1e565b820191906000526020600020905b815481529060010190602001808311610f0157829003601f168201915b5050505050905090565b60006001600083815260200190815260200160002060009054906101000a900473ffffffffffffffffffffffffffffffffffffffff169050919050565b6000610f7082611435565b90508073ffffffffffffffffffffffffffffffffffffffff168373ffffffffffffffffffffffffffffffffffffffff1614151515610fad57600080fd5b8073ffffffffffffffffffffffffffffffffffffffff163373ffffffffffffffffffffffffffffffffffffffff161480610fed5750610fec8133611d7d565b5b1515610ff857600080fd5b600073ffffffffffffffffffffffffffffffffffffffff1661101983610f28565b73ffffffffffffffffffffffffffffffffffffffff161415806110695750600073ffffffffffffffffffffffffffffffffffffffff168373ffffffffffffffffffffffffffffffffffffffff1614155b1561112657826001600084815260200190815260200160002060006101000a81548173ffffffffffffffffffffffffffffffffffffffff021916908373ffffffffffffffffffffffffffffffffffffffff1602179055508273ffffffffffffffffffffffffffffffffffffffff168173ffffffffffffffffffffffffffffffffffffffff167f8c5be1e5ebec7d5bd14f71427d1e84f3dd0314c0f7b2291e5b200ac8c7c3b925846040518082815260200191505060405180910390a35b505050565b6000600880549050905090565b6000600c6000838152602001908152602001600020600201549050919050565b806111633382611eb1565b151561116e57600080fd5b600073ffffffffffffffffffffffffffffffffffffffff168473ffffffffffffffffffffffffffffffffffffffff16141515156111aa57600080fd5b600073ffffffffffffffffffffffffffffffffffffffff168373ffffffffffffffffffffffffffffffffffffffff16141515156111e657600080fd5b6111f08483611f46565b6111fa84836120af565b61120483836122c7565b8273ffffffffffffffffffffffffffffffffffffffff168473ffffffffffffffffffffffffffffffffffffffff167fddf252ad1be2c89b69c2b068fc378daa952ba7f163c4a11628f55a4df523b3ef846040518082815260200191505060405180910390a350505050565b600061127a836114b2565b8210151561128757600080fd5b600660008473ffffffffffffffffffffffffffffffffffffffff1673ffffffffffffffffffffffffffffffffffffffff168152602001908152602001600020828154811015156112d357fe5b9060005260206000200154905092915050565b806112f13382611eb1565b15156112fc57600080fd5b6113188484846020604051908101604052806000815250611a27565b50505050565b60008060008084815260200190815260200160002060009054906101000a900473ffffffffffffffffffffffffffffffffffffffff169050600073ffffffffffffffffffffffffffffffffffffffff168173ffffffffffffffffffffffffffffffffffffffff161415915050919050565b600061139961112b565b821015156113a657600080fd5b6008828154811015156113b557fe5b90600052602060002001549050919050565b6060600c600083815260200190815260200160002060030180548060200260200160405190810160405280929190818152602001828054801561142957602002820191906000526020600020905b815481526020019060010190808311611415575b50505050509050919050565b60008060008084815260200190815260200160002060009054906101000a900473ffffffffffffffffffffffffffffffffffffffff169050600073ffffffffffffffffffffffffffffffffffffffff168173ffffffffffffffffffffffffffffffffffffffff16141515156114a957600080fd5b80915050919050565b60008073ffffffffffffffffffffffffffffffffffffffff168273ffffffffffffffffffffffffffffffffffffffff16141515156114ef57600080fd5b600260008373ffffffffffffffffffffffffffffffffffffffff1673ffffffffffffffffffffffffffffffffffffffff168152602001908152602001600020549050919050565b60003273ffffffffffffffffffffffffffffffffffffffff1661155883611435565b73ffffffffffffffffffffffffffffffffffffffff1614151561157a57600080fd5b6000600c60008481526020019081526020016000206002015411156115de576115c36001600c60008581526020019081526020016000206002015461239e90919063ffffffff16565b600c6000848152602001908152602001600020600201819055505b600c6000838152602001908152602001600020600201549050919050565b600b60009054906101000a900473ffffffffffffffffffffffffffffffffffffffff1681565b606060058054600181600116156101000203166002900480601f0160208091040260200160405190810160405280929190818152602001828054600181600116156101000203166002900480156116ba5780601f1061168f576101008083540402835291602001916116ba565b820191906000526020600020905b81548152906001019060200180831161169d57829003601f168201915b5050505050905090565b3273ffffffffffffffffffffffffffffffffffffffff166116e482611435565b73ffffffffffffffffffffffffffffffffffffffff1614151561170657600080fd5b6000600c60008381526020019081526020016000206001018190555050565b3373ffffffffffffffffffffffffffffffffffffffff168273ffffffffffffffffffffffffffffffffffffffff161415151561176057600080fd5b80600360003373ffffffffffffffffffffffffffffffffffffffff1673ffffffffffffffffffffffffffffffffffffffff16815260200190815260200160002060008473ffffffffffffffffffffffffffffffffffffffff1673ffffffffffffffffffffffffffffffffffffffff16815260200190815260200160002060006101000a81548160ff0219169083151502179055508173ffffffffffffffffffffffffffffffffffffffff163373ffffffffffffffffffffffffffffffffffffffff167f17307eab39ab6107e8899845ad3d59bd9653f200f220920489ca2b5937696c3183604051808215151515815260200191505060405180910390a35050565b61186c328383611158565b5050565b600080600b60009054906101000a900473ffffffffffffffffffffffffffffffffffffffff1673ffffffffffffffffffffffffffffffffffffffff163373ffffffffffffffffffffffffffffffffffffffff161415156118cf57600080fd5b6118ea60016118dc61112b565b6123ba90919063ffffffff16565b9150600c6000838152602001908152602001600020905084816000019080519060200190611919929190612964565b50828160030190805190602001906119329291906129e4565b5083816002018190555061194686836123d6565b7fb8cc6ddbfa3d1de238473646bbf985bfbac5e672af5605102be385385c7e5dc5868387604051808473ffffffffffffffffffffffffffffffffffffffff1673ffffffffffffffffffffffffffffffffffffffff16815260200183815260200180602001828103825283818151815260200191508051906020019080838360005b838110156119e25780820151818401526020810190506119c7565b50505050905090810190601f168015611a0f5780820380516001836020036101000a031916815260200191505b5094505050505060405180910390a150949350505050565b81611a323382611eb1565b1515611a3d57600080fd5b611a48858585611158565b611a548585858561242d565b1515611a5f57600080fd5b5050505050565b6000806000600c600086815260200190815260200160002060030184815481101515611a8e57fe5b9060005260206000200154905061271081811515611aa857fe5b06915061271081811515611ab857fe5b049050606481811515611ac757fe5b069250509250929050565b3273ffffffffffffffffffffffffffffffffffffffff16611af283611435565b73ffffffffffffffffffffffffffffffffffffffff16141515611b1457600080fd5b80600c6000848152602001908152602001600020600101819055505050565b6060611b3e8261131e565b1515611b4957600080fd5b600a60008381526020019081526020016000208054600181600116156101000203166002900480601f016020809104026020016040519081016040528092919081815260200182805460018160011615610100020316600290048015611bf05780601f10611bc557610100808354040283529160200191611bf0565b820191906000526020600020905b815481529060010190602001808311611bd357829003601f168201915b50505050509050919050565b6000600c6000838152602001908152602001600020600101549050919050565b60006001905090565b60606000806060600c60008681526020019081526020016000206000018054600181600116156101000203166002900480601f016020809104026020016040519081016040528092919081815260200182805460018160011615610100020316600290048015611cd65780601f10611cab57610100808354040283529160200191611cd6565b820191906000526020600020905b815481529060010190602001808311611cb957829003601f168201915b50505050509350600c6000868152602001908152602001600020600101549250600c6000868152602001908152602001600020600201549150600c6000868152602001908152602001600020600301805480602002602001604051908101604052809291908181526020018280548015611d6f57602002820191906000526020600020905b815481526020019060010190808311611d5b575b505050505090509193509193565b6000600360008473ffffffffffffffffffffffffffffffffffffffff1673ffffffffffffffffffffffffffffffffffffffff16815260200190815260200160002060008373ffffffffffffffffffffffffffffffffffffffff1673ffffffffffffffffffffffffffffffffffffffff16815260200190815260200160002060009054906101000a900460ff16905092915050565b600b60009054906101000a900473ffffffffffffffffffffffffffffffffffffffff1673ffffffffffffffffffffffffffffffffffffffff163373ffffffffffffffffffffffffffffffffffffffff16141515611e6d57600080fd5b80600b60006101000a81548173ffffffffffffffffffffffffffffffffffffffff021916908373ffffffffffffffffffffffffffffffffffffffff16021790555050565b600080611ebd83611435565b90508073ffffffffffffffffffffffffffffffffffffffff168473ffffffffffffffffffffffffffffffffffffffff161480611f2c57508373ffffffffffffffffffffffffffffffffffffffff16611f1484610f28565b73ffffffffffffffffffffffffffffffffffffffff16145b80611f3d5750611f3c8185611d7d565b5b91505092915050565b8173ffffffffffffffffffffffffffffffffffffffff16611f6682611435565b73ffffffffffffffffffffffffffffffffffffffff16141515611f8857600080fd5b600073ffffffffffffffffffffffffffffffffffffffff166001600083815260200190815260200160002060009054906101000a900473ffffffffffffffffffffffffffffffffffffffff1673ffffffffffffffffffffffffffffffffffffffff161415156120ab5760006001600083815260200190815260200160002060006101000a81548173ffffffffffffffffffffffffffffffffffffffff021916908373ffffffffffffffffffffffffffffffffffffffff160217905550600073ffffffffffffffffffffffffffffffffffffffff168273ffffffffffffffffffffffffffffffffffffffff167f8c5be1e5ebec7d5bd14f71427d1e84f3dd0314c0f7b2291e5b200ac8c7c3b925836040518082815260200191505060405180910390a35b5050565b60008060006120be858561261b565b6007600085815260200190815260200160002054925061212a6001600660008873ffffffffffffffffffffffffffffffffffffffff1673ffffffffffffffffffffffffffffffffffffffff1681526020019081526020016000208054905061239e90919063ffffffff16565b9150600660008673ffffffffffffffffffffffffffffffffffffffff1673ffffffffffffffffffffffffffffffffffffffff1681526020019081526020016000208281548110151561217857fe5b9060005260206000200154905080600660008773ffffffffffffffffffffffffffffffffffffffff1673ffffffffffffffffffffffffffffffffffffffff168152602001908152602001600020848154811015156121d257fe5b90600052602060002001819055506000600660008773ffffffffffffffffffffffffffffffffffffffff1673ffffffffffffffffffffffffffffffffffffffff1681526020019081526020016000208381548110151561222e57fe5b9060005260206000200181905550600660008673ffffffffffffffffffffffffffffffffffffffff1673ffffffffffffffffffffffffffffffffffffffff16815260200190815260200160002080548091906001900361228e9190612a31565b50600060076000868152602001908152602001600020819055508260076000838152602001908152602001600020819055505050505050565b60006122d38383612749565b600660008473ffffffffffffffffffffffffffffffffffffffff1673ffffffffffffffffffffffffffffffffffffffff168152602001908152602001600020805490509050600660008473ffffffffffffffffffffffffffffffffffffffff1673ffffffffffffffffffffffffffffffffffffffff168152602001908152602001600020829080600181540180825580915050906001820390600052602060002001600090919290919091505550806007600084815260200190815260200160002081905550505050565b60008282111515156123af57600080fd5b818303905092915050565b600081830190508281101515156123d057600080fd5b92915050565b6123e082826128a1565b600880549050600960008381526020019081526020016000208190555060088190806001815401808255809150509060018203906000526020600020016000909192909190915055505050565b60008061244f8573ffffffffffffffffffffffffffffffffffffffff16612951565b151561245e5760019150612612565b8473ffffffffffffffffffffffffffffffffffffffff1663f0b9e5ba8786866040518463ffffffff167c0100000000000000000000000000000000000000000000000000000000028152600401808473ffffffffffffffffffffffffffffffffffffffff1673ffffffffffffffffffffffffffffffffffffffff16815260200183815260200180602001828103825283818151815260200191508051906020019080838360005b83811015612520578082015181840152602081019050612505565b50505050905090810190601f16801561254d5780820380516001836020036101000a031916815260200191505b50945050505050602060405180830381600087803b15801561256e57600080fd5b505af1158015612582573d6000803e3d6000fd5b505050506040513d602081101561259857600080fd5b8101908080519060200190929190505050905063f0b9e5ba7c0100000000000000000000000000000000000000000000000000000000027bffffffffffffffffffffffffffffffffffffffffffffffffffffffff1916817bffffffffffffffffffffffffffffffffffffffffffffffffffffffff19161491505b50949350505050565b8173ffffffffffffffffffffffffffffffffffffffff1661263b82611435565b73ffffffffffffffffffffffffffffffffffffffff1614151561265d57600080fd5b6126b06001600260008573ffffffffffffffffffffffffffffffffffffffff1673ffffffffffffffffffffffffffffffffffffffff1681526020019081526020016000205461239e90919063ffffffff16565b600260008473ffffffffffffffffffffffffffffffffffffffff1673ffffffffffffffffffffffffffffffffffffffff16815260200190815260200160002081905550600080600083815260200190815260200160002060006101000a81548173ffffffffffffffffffffffffffffffffffffffff021916908373ffffffffffffffffffffffffffffffffffffffff1602179055505050565b600073ffffffffffffffffffffffffffffffffffffffff1660008083815260200190815260200160002060009054906101000a900473ffffffffffffffffffffffffffffffffffffffff1673ffffffffffffffffffffffffffffffffffffffff161415156127b657600080fd5b8160008083815260200190815260200160002060006101000a81548173ffffffffffffffffffffffffffffffffffffffff021916908373ffffffffffffffffffffffffffffffffffffffff16021790555061285a6001600260008573ffffffffffffffffffffffffffffffffffffffff1673ffffffffffffffffffffffffffffffffffffffff168152602001908152602001600020546123ba90919063ffffffff16565b600260008473ffffffffffffffffffffffffffffffffffffffff1673ffffffffffffffffffffffffffffffffffffffff168152602001908152602001600020819055505050565b600073ffffffffffffffffffffffffffffffffffffffff168273ffffffffffffffffffffffffffffffffffffffff16141515156128dd57600080fd5b6128e782826122c7565b8173ffffffffffffffffffffffffffffffffffffffff16600073ffffffffffffffffffffffffffffffffffffffff167fddf252ad1be2c89b69c2b068fc378daa952ba7f163c4a11628f55a4df523b3ef836040518082815260200191505060405180910390a35050565b600080823b905060008111915050919050565b828054600181600116156101000203166002900490600052602060002090601f016020900481019282601f106129a557805160ff19168380011785556129d3565b828001600101855582156129d3579182015b828111156129d25782518255916020019190600101906129b7565b5b5090506129e09190612a5d565b5090565b828054828255906000526020600020908101928215612a20579160200282015b82811115612a1f578251825591602001919060010190612a04565b5b509050612a2d9190612a5d565b5090565b815481835581811115612a5857818360005260206000209182019101612a579190612a5d565b5b505050565b612a7f91905b80821115612a7b576000816000905550600101612a63565b5090565b905600a165627a7a723058205ee4d2daf159a5a5f68256d0b4b56f0a95b89769aefe144233ea061b9187e2080029",
  "source": "pragma solidity ^0.4.23;\n\nimport \"./Owned.sol\";\nimport \"./ERC721Token.sol\";\n\ncontract ChildArtifact is ERC721Token(\"0xCHILD\", \"Mithril Child Artifact\"), Owned {\n    \n    struct ChildArtifactStats {\n        // Name of artifact\n        string name;\n        // booster parent id\n        uint parent;\n        // life of artifact\n        uint life;\n        // statistic modifiers [op],[value]\n        uint[] statisticModifiers;\n    }\n    \n    event MintChildArtifact(address owner, uint id, string name);\n    \n    mapping (uint => ChildArtifactStats) artifacts;\n\n    function mint(address _owner, string _name, uint _life, uint[] _statisticModifiers) \n    \tpublic onlyOwner returns (uint _boosterId) {\n        _boosterId = totalSupply().add(1);\n        \n        ChildArtifactStats storage booster = artifacts[_boosterId];\n        booster.name = _name;\n        booster.statisticModifiers = _statisticModifiers;\n        booster.life = _life;\n\n        super._mint(_owner, _boosterId);\n        emit MintChildArtifact(_owner, _boosterId, _name);\n    }\n    \n    function isChildArtifact() public pure returns (bool) {\n\t\t return true;\n\t}\n\n    function decrementLife(uint _id) public returns (uint remainingLife) {\n        require(ownerOf(_id) == tx.origin);\n        if(artifacts[_id].life > 0) {\n            artifacts[_id].life = artifacts[_id].life.sub(1);\n        }\n        return artifacts[_id].life;\n    }\n\n    function artifactAt(uint _id) public view \n        returns(\n        string name,\n        uint parent,\n        uint life,\n        uint[] statisticModifiers) {\n        name = artifacts[_id].name;\n        parent = artifacts[_id].parent;\n        life = artifacts[_id].life;\n        statisticModifiers = artifacts[_id].statisticModifiers;\n    }\n\n\tfunction statisticModifiers(uint _id) public view \n        returns(uint[] statMods) {\n        statMods = artifacts[_id].statisticModifiers;\n    }\n\n\tfunction name(uint _id) public view returns (string) {\n        return artifacts[_id].name;\n    }\n\n    function life(uint _id) public view returns (uint) {\n        return artifacts[_id].life;\n    }\n    \n    function getParentArtifact(uint _id) public view returns (uint) {\n        return artifacts[_id].parent;\n    }\n\n    function detach(uint _id) public {\n        require(ownerOf(_id) == tx.origin);\n        artifacts[_id].parent = 0;\n    }\n    \n    function attach(uint _id, uint _parent) public {\n        require(ownerOf(_id) == tx.origin);\n        artifacts[_id].parent = _parent;\n    }\n\n    function parseModifier(uint _id, uint _modifierIdx) \n        public \n        returns (uint target, uint op) \n    {\n        uint remain = artifacts[_id].statisticModifiers[_modifierIdx];\n\n        // Modifier\n        op = remain % 10 ** 4;\n        remain = remain / 10 ** 4;\n\n        // Operation\n        target = remain % 10 ** 2;\n    }\n    \n}",
  "sourcePath": "/Users/logelj1/Documents/playground/0xMithril/mithril-repo/0xmithriltoken/contracts/ChildArtifact.sol",
  "compiler": {
    "name": "solc",
    "version": "0.4.23+commit.124ca40d.Emscripten.clang"
  },
  "schemaVersion": "2.0.0",
  "updatedAt": "2018-06-06T20:13:07.886Z"
}