{
  "contractName": "MineableToken",
  "abi": [
    {
      "constant": true,
      "inputs": [],
      "name": "MAXIMUM_TARGET",
      "outputs": [
        {
          "name": "",
          "type": "uint256"
        }
      ],
      "payable": false,
      "stateMutability": "view",
      "type": "function"
    },
    {
      "constant": true,
      "inputs": [],
      "name": "name",
      "outputs": [
        {
          "name": "",
          "type": "string"
        }
      ],
      "payable": false,
      "stateMutability": "view",
      "type": "function"
    },
    {
      "constant": true,
      "inputs": [],
      "name": "TARGET_DIVISOR",
      "outputs": [
        {
          "name": "",
          "type": "uint256"
        }
      ],
      "payable": false,
      "stateMutability": "view",
      "type": "function"
    },
    {
      "constant": false,
      "inputs": [
        {
          "name": "spender",
          "type": "address"
        },
        {
          "name": "tokens",
          "type": "uint256"
        }
      ],
      "name": "approve",
      "outputs": [
        {
          "name": "success",
          "type": "bool"
        }
      ],
      "payable": false,
      "stateMutability": "nonpayable",
      "type": "function"
    },
    {
      "constant": true,
      "inputs": [],
      "name": "getMiningDifficulty",
      "outputs": [
        {
          "name": "",
          "type": "uint256"
        }
      ],
      "payable": false,
      "stateMutability": "view",
      "type": "function"
    },
    {
      "constant": true,
      "inputs": [],
      "name": "totalSupply",
      "outputs": [
        {
          "name": "",
          "type": "uint256"
        }
      ],
      "payable": false,
      "stateMutability": "view",
      "type": "function"
    },
    {
      "constant": true,
      "inputs": [],
      "name": "MAX_ADJUSTMENT_PERCENT",
      "outputs": [
        {
          "name": "",
          "type": "uint256"
        }
      ],
      "payable": false,
      "stateMutability": "view",
      "type": "function"
    },
    {
      "constant": false,
      "inputs": [
        {
          "name": "from",
          "type": "address"
        },
        {
          "name": "to",
          "type": "address"
        },
        {
          "name": "tokens",
          "type": "uint256"
        }
      ],
      "name": "transferFrom",
      "outputs": [
        {
          "name": "success",
          "type": "bool"
        }
      ],
      "payable": false,
      "stateMutability": "nonpayable",
      "type": "function"
    },
    {
      "constant": false,
      "inputs": [],
      "name": "uninstallBooster",
      "outputs": [],
      "payable": false,
      "stateMutability": "nonpayable",
      "type": "function"
    },
    {
      "constant": true,
      "inputs": [],
      "name": "rewardEra",
      "outputs": [
        {
          "name": "",
          "type": "uint256"
        }
      ],
      "payable": false,
      "stateMutability": "view",
      "type": "function"
    },
    {
      "constant": true,
      "inputs": [],
      "name": "decimals",
      "outputs": [
        {
          "name": "",
          "type": "uint8"
        }
      ],
      "payable": false,
      "stateMutability": "view",
      "type": "function"
    },
    {
      "constant": true,
      "inputs": [],
      "name": "getMiningTarget",
      "outputs": [
        {
          "name": "",
          "type": "uint256"
        }
      ],
      "payable": false,
      "stateMutability": "view",
      "type": "function"
    },
    {
      "constant": true,
      "inputs": [],
      "name": "MINING_RATE_FACTOR",
      "outputs": [
        {
          "name": "",
          "type": "uint256"
        }
      ],
      "payable": false,
      "stateMutability": "view",
      "type": "function"
    },
    {
      "constant": true,
      "inputs": [],
      "name": "_totalSupply",
      "outputs": [
        {
          "name": "",
          "type": "uint256"
        }
      ],
      "payable": false,
      "stateMutability": "view",
      "type": "function"
    },
    {
      "constant": true,
      "inputs": [],
      "name": "MAX_REWARD_ERA",
      "outputs": [
        {
          "name": "",
          "type": "uint256"
        }
      ],
      "payable": false,
      "stateMutability": "view",
      "type": "function"
    },
    {
      "constant": true,
      "inputs": [],
      "name": "getMiningReward",
      "outputs": [
        {
          "name": "",
          "type": "uint256"
        }
      ],
      "payable": false,
      "stateMutability": "view",
      "type": "function"
    },
    {
      "constant": true,
      "inputs": [],
      "name": "getChallengeNumber",
      "outputs": [
        {
          "name": "",
          "type": "bytes32"
        }
      ],
      "payable": false,
      "stateMutability": "view",
      "type": "function"
    },
    {
      "constant": true,
      "inputs": [],
      "name": "maxSupplyForEra",
      "outputs": [
        {
          "name": "",
          "type": "uint256"
        }
      ],
      "payable": false,
      "stateMutability": "view",
      "type": "function"
    },
    {
      "constant": true,
      "inputs": [],
      "name": "baseMiningReward",
      "outputs": [
        {
          "name": "",
          "type": "uint256"
        }
      ],
      "payable": false,
      "stateMutability": "view",
      "type": "function"
    },
    {
      "constant": false,
      "inputs": [
        {
          "name": "to",
          "type": "address"
        },
        {
          "name": "tokens",
          "type": "uint256"
        }
      ],
      "name": "transferFromOrigin",
      "outputs": [
        {
          "name": "success",
          "type": "bool"
        }
      ],
      "payable": false,
      "stateMutability": "nonpayable",
      "type": "function"
    },
    {
      "constant": true,
      "inputs": [],
      "name": "mithrilQuarryAddress",
      "outputs": [
        {
          "name": "",
          "type": "address"
        }
      ],
      "payable": false,
      "stateMutability": "view",
      "type": "function"
    },
    {
      "constant": true,
      "inputs": [],
      "name": "tokensMinted",
      "outputs": [
        {
          "name": "",
          "type": "uint256"
        }
      ],
      "payable": false,
      "stateMutability": "view",
      "type": "function"
    },
    {
      "constant": true,
      "inputs": [
        {
          "name": "tokenOwner",
          "type": "address"
        }
      ],
      "name": "balanceOf",
      "outputs": [
        {
          "name": "balance",
          "type": "uint256"
        }
      ],
      "payable": false,
      "stateMutability": "view",
      "type": "function"
    },
    {
      "constant": true,
      "inputs": [],
      "name": "blockTimeInMinutes",
      "outputs": [
        {
          "name": "",
          "type": "uint256"
        }
      ],
      "payable": false,
      "stateMutability": "view",
      "type": "function"
    },
    {
      "constant": true,
      "inputs": [],
      "name": "epochCount",
      "outputs": [
        {
          "name": "",
          "type": "uint256"
        }
      ],
      "payable": false,
      "stateMutability": "view",
      "type": "function"
    },
    {
      "constant": true,
      "inputs": [],
      "name": "miningTarget",
      "outputs": [
        {
          "name": "",
          "type": "uint256"
        }
      ],
      "payable": false,
      "stateMutability": "view",
      "type": "function"
    },
    {
      "constant": true,
      "inputs": [],
      "name": "challengeNumber",
      "outputs": [
        {
          "name": "",
          "type": "bytes32"
        }
      ],
      "payable": false,
      "stateMutability": "view",
      "type": "function"
    },
    {
      "constant": true,
      "inputs": [],
      "name": "symbol",
      "outputs": [
        {
          "name": "",
          "type": "string"
        }
      ],
      "payable": false,
      "stateMutability": "view",
      "type": "function"
    },
    {
      "constant": false,
      "inputs": [
        {
          "name": "nonce",
          "type": "uint256"
        }
      ],
      "name": "mint",
      "outputs": [
        {
          "name": "success",
          "type": "bool"
        }
      ],
      "payable": false,
      "stateMutability": "nonpayable",
      "type": "function"
    },
    {
      "constant": false,
      "inputs": [
        {
          "name": "to",
          "type": "address"
        },
        {
          "name": "tokens",
          "type": "uint256"
        }
      ],
      "name": "transfer",
      "outputs": [
        {
          "name": "success",
          "type": "bool"
        }
      ],
      "payable": false,
      "stateMutability": "nonpayable",
      "type": "function"
    },
    {
      "constant": true,
      "inputs": [],
      "name": "boosterAddress",
      "outputs": [
        {
          "name": "",
          "type": "address"
        }
      ],
      "payable": false,
      "stateMutability": "view",
      "type": "function"
    },
    {
      "constant": true,
      "inputs": [],
      "name": "QUOTIENT_LIMIT",
      "outputs": [
        {
          "name": "",
          "type": "uint256"
        }
      ],
      "payable": false,
      "stateMutability": "view",
      "type": "function"
    },
    {
      "constant": true,
      "inputs": [],
      "name": "ETHER_BLOCKS_PER_MINUTE",
      "outputs": [
        {
          "name": "",
          "type": "uint256"
        }
      ],
      "payable": false,
      "stateMutability": "view",
      "type": "function"
    },
    {
      "constant": false,
      "inputs": [
        {
          "name": "nonce",
          "type": "uint256"
        }
      ],
      "name": "hash",
      "outputs": [
        {
          "name": "digest",
          "type": "bytes32"
        }
      ],
      "payable": false,
      "stateMutability": "nonpayable",
      "type": "function"
    },
    {
      "constant": true,
      "inputs": [
        {
          "name": "",
          "type": "address"
        }
      ],
      "name": "installedBoosters",
      "outputs": [
        {
          "name": "",
          "type": "uint256"
        }
      ],
      "payable": false,
      "stateMutability": "view",
      "type": "function"
    },
    {
      "constant": false,
      "inputs": [
        {
          "name": "_boosterId",
          "type": "uint256"
        }
      ],
      "name": "installBooster",
      "outputs": [],
      "payable": false,
      "stateMutability": "nonpayable",
      "type": "function"
    },
    {
      "constant": true,
      "inputs": [],
      "name": "mithrilTokenAddress",
      "outputs": [
        {
          "name": "",
          "type": "address"
        }
      ],
      "payable": false,
      "stateMutability": "view",
      "type": "function"
    },
    {
      "constant": false,
      "inputs": [
        {
          "name": "spender",
          "type": "address"
        },
        {
          "name": "tokens",
          "type": "uint256"
        },
        {
          "name": "data",
          "type": "bytes"
        }
      ],
      "name": "approveAndCall",
      "outputs": [
        {
          "name": "success",
          "type": "bool"
        }
      ],
      "payable": false,
      "stateMutability": "nonpayable",
      "type": "function"
    },
    {
      "constant": true,
      "inputs": [],
      "name": "latestDifficultyPeriodStarted",
      "outputs": [
        {
          "name": "",
          "type": "uint256"
        }
      ],
      "payable": false,
      "stateMutability": "view",
      "type": "function"
    },
    {
      "constant": true,
      "inputs": [],
      "name": "blocksPerReadjustment",
      "outputs": [
        {
          "name": "",
          "type": "uint256"
        }
      ],
      "payable": false,
      "stateMutability": "view",
      "type": "function"
    },
    {
      "constant": true,
      "inputs": [
        {
          "name": "tokenOwner",
          "type": "address"
        },
        {
          "name": "spender",
          "type": "address"
        }
      ],
      "name": "allowance",
      "outputs": [
        {
          "name": "remaining",
          "type": "uint256"
        }
      ],
      "payable": false,
      "stateMutability": "view",
      "type": "function"
    },
    {
      "constant": true,
      "inputs": [],
      "name": "getInstalledBooster",
      "outputs": [
        {
          "name": "",
          "type": "uint256"
        }
      ],
      "payable": false,
      "stateMutability": "view",
      "type": "function"
    },
    {
      "constant": true,
      "inputs": [],
      "name": "MINIMUM_TARGET",
      "outputs": [
        {
          "name": "",
          "type": "uint256"
        }
      ],
      "payable": false,
      "stateMutability": "view",
      "type": "function"
    },
    {
      "constant": true,
      "inputs": [],
      "name": "getAdjustmentInterval",
      "outputs": [
        {
          "name": "",
          "type": "uint256"
        }
      ],
      "payable": false,
      "stateMutability": "view",
      "type": "function"
    },
    {
      "constant": true,
      "inputs": [],
      "name": "adjustmentInterval",
      "outputs": [
        {
          "name": "",
          "type": "uint256"
        }
      ],
      "payable": false,
      "stateMutability": "view",
      "type": "function"
    },
    {
      "constant": false,
      "inputs": [
        {
          "name": "nonce",
          "type": "uint256"
        },
        {
          "name": "mineTokens",
          "type": "address[]"
        }
      ],
      "name": "merge",
      "outputs": [
        {
          "name": "",
          "type": "bool"
        }
      ],
      "payable": false,
      "stateMutability": "nonpayable",
      "type": "function"
    },
    {
      "inputs": [
        {
          "name": "_mithrilTokenAddress",
          "type": "address"
        },
        {
          "name": "_mithrilQuarryAddress",
          "type": "address"
        },
        {
          "name": "_boosterAddress",
          "type": "address"
        },
        {
          "name": "_symbol",
          "type": "string"
        },
        {
          "name": "_name",
          "type": "string"
        },
        {
          "name": "_decimals",
          "type": "uint8"
        },
        {
          "name": "_supply",
          "type": "uint256"
        },
        {
          "name": "_reward",
          "type": "uint256"
        },
        {
          "name": "_adjustmentBlockCount",
          "type": "uint256"
        },
        {
          "name": "_initialDifficulty",
          "type": "uint256"
        },
        {
          "name": "_blockTimeInMinutes",
          "type": "uint256"
        }
      ],
      "payable": false,
      "stateMutability": "nonpayable",
      "type": "constructor"
    },
    {
      "payable": true,
      "stateMutability": "payable",
      "type": "fallback"
    },
    {
      "anonymous": false,
      "inputs": [
        {
          "indexed": true,
          "name": "from",
          "type": "address"
        },
        {
          "indexed": true,
          "name": "to",
          "type": "address"
        },
        {
          "indexed": false,
          "name": "tokens",
          "type": "uint256"
        }
      ],
      "name": "Transfer",
      "type": "event"
    },
    {
      "anonymous": false,
      "inputs": [
        {
          "indexed": true,
          "name": "tokenOwner",
          "type": "address"
        },
        {
          "indexed": true,
          "name": "spender",
          "type": "address"
        },
        {
          "indexed": false,
          "name": "tokens",
          "type": "uint256"
        }
      ],
      "name": "Approval",
      "type": "event"
    },
    {
      "anonymous": false,
      "inputs": [
        {
          "indexed": false,
          "name": "initialSupply",
          "type": "uint256"
        },
        {
          "indexed": false,
          "name": "tokenDecimals",
          "type": "uint8"
        },
        {
          "indexed": false,
          "name": "initialReward",
          "type": "uint256"
        },
        {
          "indexed": false,
          "name": "blocksPerDifficultyAdjustment",
          "type": "uint256"
        },
        {
          "indexed": false,
          "name": "blockTimeInMinutes",
          "type": "uint256"
        }
      ],
      "name": "TokenBaseInitialize",
      "type": "event"
    },
    {
      "anonymous": false,
      "inputs": [
        {
          "indexed": true,
          "name": "from",
          "type": "address"
        },
        {
          "indexed": false,
          "name": "reward_amount",
          "type": "uint256"
        },
        {
          "indexed": false,
          "name": "epochCount",
          "type": "uint256"
        },
        {
          "indexed": false,
          "name": "newChallengeNumber",
          "type": "bytes32"
        }
      ],
      "name": "Mint",
      "type": "event"
    }
  ],
  "bytecode": "0x6080604052610258600055620100006006557d04000000000000000000000000000000000000000000000000000000000060075560646009556107d0600a55620000646002600a546200027864010000000002620020dd179091906401000000009004565b600b55602760115560066012553480156200007e57600080fd5b5060405162002f0c38038062002f0c833981018060405281019080805190602001909291908051906020019092919080519060200190929190805182019291906020018051820192919060200180519060200190929190805190602001909291908051906020019092919080519060200190929190805190602001909291908051906020019092919050505088888888888888888887601690805190602001906200012b929190620005a6565b50866017908051906020019062000144929190620005a6565b50620001698587868686866200029e640100000000026200272f176401000000009004565b505050505050505080601a60006101000a81548173ffffffffffffffffffffffffffffffffffffffff021916908373ffffffffffffffffffffffffffffffffffffffff160217905550508760169080519060200190620001cb929190620005a6565b508660179080519060200190620001e4929190620005a6565b508a601c60006101000a81548173ffffffffffffffffffffffffffffffffffffffff021916908373ffffffffffffffffffffffffffffffffffffffff16021790555089601d60006101000a81548173ffffffffffffffffffffffffffffffffffffffff021916908373ffffffffffffffffffffffffffffffffffffffff160217905550505050505050505050505062000655565b600080821115156200028957600080fd5b81838115156200029557fe5b04905092915050565b84600c60006101000a81548160ff021916908360ff160217905550600c60009054906101000a900460ff1660ff16600a0a860260148190555083600e819055508260048190555060006003819055506000600f819055506200031b60026014546200027864010000000002620020dd179091906401000000009004565b60108190555060008211620003335760075462000359565b62000358826007546200027864010000000002620020dd179091906401000000009004565b5b600281905550600754600254111562000376576007546002819055505b80601381905550620003a2601254826200042e64010000000002620024b6179091906401000000009004565b60088190555043600d819055507f9fe0c082b16266c8b1db93ac25bb95cc43ebbc1770fd4e8bbfb96a8ee93a0b118686868685604051808681526020018560ff1660ff1681526020018481526020018381526020018281526020019550505050505060405180910390a16200042562000462640100000000026401000000009004565b50505050505050565b6000818302905060008314806200045057508183828115156200044d57fe5b04145b15156200045c57600080fd5b92915050565b6000601054620004a46200048462000541640100000000026401000000009004565b60035462000589640100000000026200211d179091906401000000009004565b118015620004b457506027600f54105b15620004c7576001600f5401600f819055505b620004f46001600f540160020a6014546200027864010000000002620020dd179091906401000000009004565b6014540360108190555062000524600160055462000589640100000000026200211d179091906401000000009004565b600581905550600143034060018160001916905550600554905090565b600062000584600f5460020a600c60009054906101000a900460ff1660ff16600a0a600e54026200027864010000000002620020dd179091906401000000009004565b905090565b60008183019050828110151515620005a057600080fd5b92915050565b828054600181600116156101000203166002900490600052602060002090601f016020900481019282601f10620005e957805160ff19168380011785556200061a565b828001600101855582156200061a579182015b8281111562000619578251825591602001919060010190620005fc565b5b5090506200062991906200062d565b5090565b6200065291905b808211156200064e57600081600090555060010162000634565b5090565b90565b6128a780620006656000396000f300608060405260043610610230576000357c0100000000000000000000000000000000000000000000000000000000900463ffffffff168063031052f31461023557806306fdde0314610260578063095b6d4c146102f0578063095ea7b31461031b57806317da485f1461038057806318160ddd146103ab5780631beddf1c146103d657806323b872dd146104015780632c23784e146104865780632d38bf7a1461049d578063313ce567146104c857806332e99708146104f95780633426e5f5146105245780633eaaf86b1461054f57806346eed3f31461057a578063490203a7146105a55780634ef37628146105d05780634fa972e11461060357806354bcb1641461062e5780635c6bcad414610659578063662f45be146106be5780636de9f32b1461071557806370a08231146107405780637f8a66e514610797578063829965cc146107c25780638a769d35146107ed5780638ae0368b1461081857806395d89b411461084b578063a0712d68146108db578063a9059cbb14610920578063a99c308b14610985578063ad1dfe3b146109dc578063b0fe89db14610a07578063b189fd4c14610a32578063b5e4303d14610a7b578063c0ae084714610ad2578063c5b16cc314610aff578063cae9ca5114610b56578063cb9ae70714610c01578063d87b8fcb14610c2c578063dd62ed3e14610c57578063ed30123514610cce578063f77e180e14610cf9578063f798754614610d24578063fa4d4d8b14610d4f578063ffd43c7f14610d7a575b600080fd5b34801561024157600080fd5b5061024a610e02565b6040518082815260200191505060405180910390f35b34801561026c57600080fd5b50610275610e08565b6040518080602001828103825283818151815260200191508051906020019080838360005b838110156102b557808201518184015260208101905061029a565b50505050905090810190601f1680156102e25780820380516001836020036101000a031916815260200191505b509250505060405180910390f35b3480156102fc57600080fd5b50610305610ea6565b6040518082815260200191505060405180910390f35b34801561032757600080fd5b50610366600480360381019080803573ffffffffffffffffffffffffffffffffffffffff16906020019092919080359060200190929190505050610eac565b604051808215151515815260200191505060405180910390f35b34801561038c57600080fd5b50610395610f9e565b6040518082815260200191505060405180910390f35b3480156103b757600080fd5b506103c0610fc1565b6040518082815260200191505060405180910390f35b3480156103e257600080fd5b506103eb61100c565b6040518082815260200191505060405180910390f35b34801561040d57600080fd5b5061046c600480360381019080803573ffffffffffffffffffffffffffffffffffffffff169060200190929190803573ffffffffffffffffffffffffffffffffffffffff16906020019092919080359060200190929190505050611012565b604051808215151515815260200191505060405180910390f35b34801561049257600080fd5b5061049b6112bd565b005b3480156104a957600080fd5b506104b2611302565b6040518082815260200191505060405180910390f35b3480156104d457600080fd5b506104dd611308565b604051808260ff1660ff16815260200191505060405180910390f35b34801561050557600080fd5b5061050e61131b565b6040518082815260200191505060405180910390f35b34801561053057600080fd5b50610539611418565b6040518082815260200191505060405180910390f35b34801561055b57600080fd5b5061056461141e565b6040518082815260200191505060405180910390f35b34801561058657600080fd5b5061058f611424565b6040518082815260200191505060405180910390f35b3480156105b157600080fd5b506105ba61142a565b6040518082815260200191505060405180910390f35b3480156105dc57600080fd5b506105e5611462565b60405180826000191660001916815260200191505060405180910390f35b34801561060f57600080fd5b5061061861146c565b6040518082815260200191505060405180910390f35b34801561063a57600080fd5b50610643611472565b6040518082815260200191505060405180910390f35b34801561066557600080fd5b506106a4600480360381019080803573ffffffffffffffffffffffffffffffffffffffff16906020019092919080359060200190929190505050611478565b604051808215151515815260200191505060405180910390f35b3480156106ca57600080fd5b506106d3611613565b604051808273ffffffffffffffffffffffffffffffffffffffff1673ffffffffffffffffffffffffffffffffffffffff16815260200191505060405180910390f35b34801561072157600080fd5b5061072a611639565b6040518082815260200191505060405180910390f35b34801561074c57600080fd5b50610781600480360381019080803573ffffffffffffffffffffffffffffffffffffffff16906020019092919050505061163f565b6040518082815260200191505060405180910390f35b3480156107a357600080fd5b506107ac611688565b6040518082815260200191505060405180910390f35b3480156107ce57600080fd5b506107d761168e565b6040518082815260200191505060405180910390f35b3480156107f957600080fd5b50610802611694565b6040518082815260200191505060405180910390f35b34801561082457600080fd5b5061082d61169a565b60405180826000191660001916815260200191505060405180910390f35b34801561085757600080fd5b506108606116a0565b6040518080602001828103825283818151815260200191508051906020019080838360005b838110156108a0578082015181840152602081019050610885565b50505050905090810190601f1680156108cd5780820380516001836020036101000a031916815260200191505b509250505060405180910390f35b3480156108e757600080fd5b506109066004803603810190808035906020019092919050505061173e565b604051808215151515815260200191505060405180910390f35b34801561092c57600080fd5b5061096b600480360381019080803573ffffffffffffffffffffffffffffffffffffffff16906020019092919080359060200190929190505050611845565b604051808215151515815260200191505060405180910390f35b34801561099157600080fd5b5061099a6119e0565b604051808273ffffffffffffffffffffffffffffffffffffffff1673ffffffffffffffffffffffffffffffffffffffff16815260200191505060405180910390f35b3480156109e857600080fd5b506109f1611a06565b6040518082815260200191505060405180910390f35b348015610a1357600080fd5b50610a1c611a0c565b6040518082815260200191505060405180910390f35b348015610a3e57600080fd5b50610a5d60048036038101908080359060200190929190505050611a12565b60405180826000191660001916815260200191505060405180910390f35b348015610a8757600080fd5b50610abc600480360381019080803573ffffffffffffffffffffffffffffffffffffffff169060200190929190505050611bf9565b6040518082815260200191505060405180910390f35b348015610ade57600080fd5b50610afd60048036038101908080359060200190929190505050611c11565b005b348015610b0b57600080fd5b50610b14611d5d565b604051808273ffffffffffffffffffffffffffffffffffffffff1673ffffffffffffffffffffffffffffffffffffffff16815260200191505060405180910390f35b348015610b6257600080fd5b50610be7600480360381019080803573ffffffffffffffffffffffffffffffffffffffff16906020019092919080359060200190929190803590602001908201803590602001908080601f0160208091040260200160405190810160405280939291908181526020018383808284378201915050505050509192919290505050611d83565b604051808215151515815260200191505060405180910390f35b348015610c0d57600080fd5b50610c16611fd2565b6040518082815260200191505060405180910390f35b348015610c3857600080fd5b50610c41611fd8565b6040518082815260200191505060405180910390f35b348015610c6357600080fd5b50610cb8600480360381019080803573ffffffffffffffffffffffffffffffffffffffff169060200190929190803573ffffffffffffffffffffffffffffffffffffffff169060200190929190505050611fde565b6040518082815260200191505060405180910390f35b348015610cda57600080fd5b50610ce3612065565b6040518082815260200191505060405180910390f35b348015610d0557600080fd5b50610d0e6120ac565b6040518082815260200191505060405180910390f35b348015610d3057600080fd5b50610d396120b2565b6040518082815260200191505060405180910390f35b348015610d5b57600080fd5b50610d646120cf565b6040518082815260200191505060405180910390f35b348015610d8657600080fd5b50610de860048036038101908080359060200190929190803590602001908201803590602001908080602002602001604051908101604052809392919081815260200183836020028082843782019150505050505091929192905050506120d5565b604051808215151515815260200191505060405180910390f35b60075481565b60178054600181600116156101000203166002900480601f016020809104026020016040519081016040528092919081815260200182805460018160011615610100020316600290048015610e9e5780601f10610e7357610100808354040283529160200191610e9e565b820191906000526020600020905b815481529060010190602001808311610e8157829003601f168201915b505050505081565b600a5481565b600081601960003373ffffffffffffffffffffffffffffffffffffffff1673ffffffffffffffffffffffffffffffffffffffff16815260200190815260200160002060008573ffffffffffffffffffffffffffffffffffffffff1673ffffffffffffffffffffffffffffffffffffffff168152602001908152602001600020819055508273ffffffffffffffffffffffffffffffffffffffff163373ffffffffffffffffffffffffffffffffffffffff167f8c5be1e5ebec7d5bd14f71427d1e84f3dd0314c0f7b2291e5b200ac8c7c3b925846040518082815260200191505060405180910390a36001905092915050565b6000610fbc610fab61131b565b6007546120dd90919063ffffffff16565b905090565b6000601860008073ffffffffffffffffffffffffffffffffffffffff1673ffffffffffffffffffffffffffffffffffffffff1681526020019081526020016000205460145403905090565b60095481565b600061106682601860008773ffffffffffffffffffffffffffffffffffffffff1673ffffffffffffffffffffffffffffffffffffffff1681526020019081526020016000205461210190919063ffffffff16565b601860008673ffffffffffffffffffffffffffffffffffffffff1673ffffffffffffffffffffffffffffffffffffffff1681526020019081526020016000208190555061113882601960008773ffffffffffffffffffffffffffffffffffffffff1673ffffffffffffffffffffffffffffffffffffffff16815260200190815260200160002060003373ffffffffffffffffffffffffffffffffffffffff1673ffffffffffffffffffffffffffffffffffffffff1681526020019081526020016000205461210190919063ffffffff16565b601960008673ffffffffffffffffffffffffffffffffffffffff1673ffffffffffffffffffffffffffffffffffffffff16815260200190815260200160002060003373ffffffffffffffffffffffffffffffffffffffff1673ffffffffffffffffffffffffffffffffffffffff1681526020019081526020016000208190555061120a82601860008673ffffffffffffffffffffffffffffffffffffffff1673ffffffffffffffffffffffffffffffffffffffff1681526020019081526020016000205461211d90919063ffffffff16565b601860008573ffffffffffffffffffffffffffffffffffffffff1673ffffffffffffffffffffffffffffffffffffffff168152602001908152602001600020819055508273ffffffffffffffffffffffffffffffffffffffff168473ffffffffffffffffffffffffffffffffffffffff167fddf252ad1be2c89b69c2b068fc378daa952ba7f163c4a11628f55a4df523b3ef846040518082815260200191505060405180910390a3600190509392505050565b601b60003373ffffffffffffffffffffffffffffffffffffffff1673ffffffffffffffffffffffffffffffffffffffff16815260200190815260200160002060009055565b600f5481565b600c60009054906101000a900460ff1681565b600080611326612065565b9050600081111561140e57601a60009054906101000a900473ffffffffffffffffffffffffffffffffffffffff1673ffffffffffffffffffffffffffffffffffffffff1663978098fd826002546040518363ffffffff167c01000000000000000000000000000000000000000000000000000000000281526004018083815260200182815260200192505050602060405180830381600087803b1580156113cc57600080fd5b505af11580156113e0573d6000803e3d6000fd5b505050506040513d60208110156113f657600080fd5b81019080805190602001909291905050509150611414565b60025491505b5090565b60085481565b60145481565b60115481565b600061145d600f5460020a600c60009054906101000a900460ff1660ff16600a0a600e54026120dd90919063ffffffff16565b905090565b6000600154905090565b60105481565b600e5481565b60006114cc82601860003273ffffffffffffffffffffffffffffffffffffffff1673ffffffffffffffffffffffffffffffffffffffff1681526020019081526020016000205461210190919063ffffffff16565b601860003273ffffffffffffffffffffffffffffffffffffffff1673ffffffffffffffffffffffffffffffffffffffff1681526020019081526020016000208190555061156182601860008673ffffffffffffffffffffffffffffffffffffffff1673ffffffffffffffffffffffffffffffffffffffff1681526020019081526020016000205461211d90919063ffffffff16565b601860008573ffffffffffffffffffffffffffffffffffffffff1673ffffffffffffffffffffffffffffffffffffffff168152602001908152602001600020819055508273ffffffffffffffffffffffffffffffffffffffff163273ffffffffffffffffffffffffffffffffffffffff167fddf252ad1be2c89b69c2b068fc378daa952ba7f163c4a11628f55a4df523b3ef846040518082815260200191505060405180910390a36001905092915050565b601d60009054906101000a900473ffffffffffffffffffffffffffffffffffffffff1681565b60035481565b6000601860008373ffffffffffffffffffffffffffffffffffffffff1673ffffffffffffffffffffffffffffffffffffffff168152602001908152602001600020549050919050565b60135481565b60055481565b60025481565b60015481565b60168054600181600116156101000203166002900480601f0160208091040260200160405190810160405280929190818152602001828054600181600116156101000203166002900480156117365780601f1061170b57610100808354040283529160200191611736565b820191906000526020600020905b81548152906001019060200180831161171957829003601f168201915b505050505081565b600080600073ffffffffffffffffffffffffffffffffffffffff163373ffffffffffffffffffffffffffffffffffffffff161415151561177d57600080fd5b61178683611a12565b5061178f612139565b9050806003600082825401925050819055506117a9612196565b60058190555060006004546005548115156117c057fe5b0614156117d1576117cf612232565b505b3373ffffffffffffffffffffffffffffffffffffffff167fcf6fbb9dcea7d07263ab4f5c3a92f53af33dffc421d9d121e1c74b307e68189d82600554600154604051808481526020018381526020018260001916600019168152602001935050505060405180910390a26001915050919050565b600061189982601860003373ffffffffffffffffffffffffffffffffffffffff1673ffffffffffffffffffffffffffffffffffffffff1681526020019081526020016000205461210190919063ffffffff16565b601860003373ffffffffffffffffffffffffffffffffffffffff1673ffffffffffffffffffffffffffffffffffffffff1681526020019081526020016000208190555061192e82601860008673ffffffffffffffffffffffffffffffffffffffff1673ffffffffffffffffffffffffffffffffffffffff1681526020019081526020016000205461211d90919063ffffffff16565b601860008573ffffffffffffffffffffffffffffffffffffffff1673ffffffffffffffffffffffffffffffffffffffff168152602001908152602001600020819055508273ffffffffffffffffffffffffffffffffffffffff163373ffffffffffffffffffffffffffffffffffffffff167fddf252ad1be2c89b69c2b068fc378daa952ba7f163c4a11628f55a4df523b3ef846040518082815260200191505060405180910390a36001905092915050565b601a60009054906101000a900473ffffffffffffffffffffffffffffffffffffffff1681565b600b5481565b60125481565b600080600080611a20612065565b92506000831115611be557600154306c0100000000000000000000000002326c01000000000000000000000000021886604051808460001916600019168152602001836bffffffffffffffffffffffff19166bffffffffffffffffffffffff19168152601401828152602001935050505060405180910390209350601a60009054906101000a900473ffffffffffffffffffffffffffffffffffffffff1673ffffffffffffffffffffffffffffffffffffffff1663978098fd846002546040518363ffffffff167c01000000000000000000000000000000000000000000000000000000000281526004018083815260200182815260200192505050602060405180830381600087803b158015611b3657600080fd5b505af1158015611b4a573d6000803e3d6000fd5b505050506040513d6020811015611b6057600080fd5b810190808051906020019092919050505091508184600190041115611b8457600080fd5b6015600060015460001916600019168152602001908152602001600020549050836015600060015460001916600019168152602001908152602001600020816000191690555060006001028160001916141515611be057600080fd5b611bf1565b611bee856123c8565b93505b505050919050565b601b6020528060005260406000206000915090505481565b3373ffffffffffffffffffffffffffffffffffffffff16601a60009054906101000a900473ffffffffffffffffffffffffffffffffffffffff1673ffffffffffffffffffffffffffffffffffffffff16636352211e836040518263ffffffff167c010000000000000000000000000000000000000000000000000000000002815260040180828152602001915050602060405180830381600087803b158015611cb957600080fd5b505af1158015611ccd573d6000803e3d6000fd5b505050506040513d6020811015611ce357600080fd5b810190808051906020019092919050505073ffffffffffffffffffffffffffffffffffffffff16141515611d1657600080fd5b80601b60003373ffffffffffffffffffffffffffffffffffffffff1673ffffffffffffffffffffffffffffffffffffffff1681526020019081526020016000208190555050565b601c60009054906101000a900473ffffffffffffffffffffffffffffffffffffffff1681565b600082601960003373ffffffffffffffffffffffffffffffffffffffff1673ffffffffffffffffffffffffffffffffffffffff16815260200190815260200160002060008673ffffffffffffffffffffffffffffffffffffffff1673ffffffffffffffffffffffffffffffffffffffff168152602001908152602001600020819055508373ffffffffffffffffffffffffffffffffffffffff163373ffffffffffffffffffffffffffffffffffffffff167f8c5be1e5ebec7d5bd14f71427d1e84f3dd0314c0f7b2291e5b200ac8c7c3b925856040518082815260200191505060405180910390a38373ffffffffffffffffffffffffffffffffffffffff16638f4ffcb1338530866040518563ffffffff167c0100000000000000000000000000000000000000000000000000000000028152600401808573ffffffffffffffffffffffffffffffffffffffff1673ffffffffffffffffffffffffffffffffffffffff1681526020018481526020018373ffffffffffffffffffffffffffffffffffffffff1673ffffffffffffffffffffffffffffffffffffffff16815260200180602001828103825283818151815260200191508051906020019080838360005b83811015611f60578082015181840152602081019050611f45565b50505050905090810190601f168015611f8d5780820380516001836020036101000a031916815260200191505b5095505050505050600060405180830381600087803b158015611faf57600080fd5b505af1158015611fc3573d6000803e3d6000fd5b50505050600190509392505050565b600d5481565b60045481565b6000601960008473ffffffffffffffffffffffffffffffffffffffff1673ffffffffffffffffffffffffffffffffffffffff16815260200190815260200160002060008373ffffffffffffffffffffffffffffffffffffffff1673ffffffffffffffffffffffffffffffffffffffff16815260200190815260200160002054905092915050565b6000601b60003373ffffffffffffffffffffffffffffffffffffffff1673ffffffffffffffffffffffffffffffffffffffff16815260200190815260200160002054905090565b60065481565b60006120ca603c6013546124b690919063ffffffff16565b905090565b60005481565b600092915050565b600080821115156120ed57600080fd5b81838115156120f857fe5b04905092915050565b600082821115151561211257600080fd5b818303905092915050565b6000818301905082811015151561213357600080fd5b92915050565b60006121436124e7565b9050612193601c60009054906101000a900473ffffffffffffffffffffffffffffffffffffffff16601d60009054906101000a900473ffffffffffffffffffffffffffffffffffffffff16612693565b90565b60006010546121b76121a661142a565b60035461211d90919063ffffffff16565b1180156121c657506027600f54105b156121d8576001600f5401600f819055505b6121f56001600f540160020a6014546120dd90919063ffffffff16565b60145403601081905550612215600160055461211d90919063ffffffff16565b600581905550600143034060018160001916905550600554905090565b600080600080600080600080600d5443039650600454955060085486029450848710156122f45761228087612272600954886124b690919063ffffffff16565b6120dd90919063ffffffff16565b93506122aa600b5461229c60648761210190919063ffffffff16565b61271390919063ffffffff16565b92506122e96122d8846122ca600a546002546120dd90919063ffffffff16565b6124b690919063ffffffff16565b60025461210190919063ffffffff16565b60028190555061238b565b61231b8561230d6009548a6124b690919063ffffffff16565b6120dd90919063ffffffff16565b9150612345600b5461233760648561210190919063ffffffff16565b61271390919063ffffffff16565b905061238461237382612365600a546002546120dd90919063ffffffff16565b6124b690919063ffffffff16565b60025461211d90919063ffffffff16565b6002819055505b43600d8190555060065460025410156123a8576006546002819055505b60075460025411156123be576007546002819055505b5050505050505090565b600080600154306c0100000000000000000000000002326c01000000000000000000000000021884604051808460001916600019168152602001836bffffffffffffffffffffffff19166bffffffffffffffffffffffff1916815260140182815260200193505050506040518091039020915061244361131b565b826001900410151561245457600080fd5b60156000600154600019166000191681526020019081526020016000205490508160156000600154600019166000191681526020019081526020016000208160001916905550600060010281600019161415156124b057600080fd5b50919050565b6000818302905060008314806124d657508183828115156124d357fe5b04145b15156124e157600080fd5b92915050565b6000806124f2612065565b905060008111156125df57601a60009054906101000a900473ffffffffffffffffffffffffffffffffffffffff1673ffffffffffffffffffffffffffffffffffffffff1663912ca8b48261254461142a565b6040518363ffffffff167c01000000000000000000000000000000000000000000000000000000000281526004018083815260200182815260200192505050602060405180830381600087803b15801561259d57600080fd5b505af11580156125b1573d6000803e3d6000fd5b505050506040513d60208110156125c757600080fd5b810190808051906020019092919050505091506125ea565b6125e761142a565b91505b61263c82601860003373ffffffffffffffffffffffffffffffffffffffff1673ffffffffffffffffffffffffffffffffffffffff1681526020019081526020016000205461211d90919063ffffffff16565b601860003373ffffffffffffffffffffffffffffffffffffffff1673ffffffffffffffffffffffffffffffffffffffff168152602001908152602001600020819055506010546003541115151561268f57fe5b5090565b8073ffffffffffffffffffffffffffffffffffffffff1663d96a54846040518163ffffffff167c0100000000000000000000000000000000000000000000000000000000028152600401600060405180830381600087803b1580156126f757600080fd5b505af115801561270b573d6000803e3d6000fd5b505050505050565b60008183111561272557819050612729565b8290505b92915050565b84600c60006101000a81548160ff021916908360ff160217905550600c60009054906101000a900460ff1660ff16600a0a860260148190555083600e819055508260048190555060006003819055506000600f8190555061279c60026014546120dd90919063ffffffff16565b601081905550600082116127b2576007546127c8565b6127c7826007546120dd90919063ffffffff16565b5b60028190555060075460025411156127e4576007546002819055505b80601381905550612800601254826124b690919063ffffffff16565b60088190555043600d819055507f9fe0c082b16266c8b1db93ac25bb95cc43ebbc1770fd4e8bbfb96a8ee93a0b118686868685604051808681526020018560ff1660ff1681526020018481526020018381526020018281526020019550505050505060405180910390a1612872612196565b505050505050505600a165627a7a723058206e9d2e1cf292c4aaa465a0033fd5f8b2c295b73544f34c473511275c1a98089a0029",
  "source": "pragma solidity ^0.4.23;\n\nimport \"./BoostableMineableToken.sol\";\nimport \"./Antigasable.sol\";\n\ncontract MineableToken is BoostableMineableToken, Antigasable {\n\n    using SafeMath for uint;\n    \n    address public mithrilTokenAddress;\n\n    address public mithrilQuarryAddress;\n        \n    // ------------------------------------------------------------------------\n    // Constructor\n    // ------------------------------------------------------------------------\n    constructor(address _mithrilTokenAddress, address _mithrilQuarryAddress, address _boosterAddress, \n                string _symbol, string _name, uint8 _decimals, uint _supply, uint _reward, \n                uint _adjustmentBlockCount, uint _initialDifficulty, uint _blockTimeInMinutes) \n        BoostableMineableToken(_boosterAddress)\n        ERC20Mineable(_symbol, _name, _decimals, _supply, _reward, _adjustmentBlockCount, _initialDifficulty, _blockTimeInMinutes)\n        public\n    {\n        symbol = _symbol;\n        name = _name;\n        mithrilTokenAddress = _mithrilTokenAddress;\n        mithrilQuarryAddress = _mithrilQuarryAddress;\n    }\n\n    function _reward() internal returns (uint amount) {\n        amount = super._reward();\n        rewardAntigas(mithrilTokenAddress, mithrilQuarryAddress);\n    }\n    \n}",
  "sourcePath": "/Users/logelj1/Documents/playground/0xMithril/mithril-repo/0xmithriltoken/contracts/MineableToken.sol",
  "compiler": {
    "name": "solc",
    "version": "0.4.23+commit.124ca40d.Emscripten.clang"
  },
  "schemaVersion": "2.0.0",
  "updatedAt": "2018-06-06T20:13:07.924Z"
}