{
  "contractName": "MineableToken",
  "abi": [
    {
      "constant": true,
      "inputs": [],
      "name": "MAXIMUM_TARGET",
      "outputs": [
        {
          "name": "",
          "type": "uint256"
        }
      ],
      "payable": false,
      "stateMutability": "view",
      "type": "function"
    },
    {
      "constant": true,
      "inputs": [],
      "name": "metadataURI",
      "outputs": [
        {
          "name": "",
          "type": "string"
        }
      ],
      "payable": false,
      "stateMutability": "view",
      "type": "function"
    },
    {
      "constant": true,
      "inputs": [],
      "name": "name",
      "outputs": [
        {
          "name": "",
          "type": "string"
        }
      ],
      "payable": false,
      "stateMutability": "view",
      "type": "function"
    },
    {
      "constant": true,
      "inputs": [],
      "name": "TARGET_DIVISOR",
      "outputs": [
        {
          "name": "",
          "type": "uint256"
        }
      ],
      "payable": false,
      "stateMutability": "view",
      "type": "function"
    },
    {
      "constant": false,
      "inputs": [
        {
          "name": "spender",
          "type": "address"
        },
        {
          "name": "tokens",
          "type": "uint256"
        }
      ],
      "name": "approve",
      "outputs": [
        {
          "name": "success",
          "type": "bool"
        }
      ],
      "payable": false,
      "stateMutability": "nonpayable",
      "type": "function"
    },
    {
      "constant": true,
      "inputs": [],
      "name": "initialized",
      "outputs": [
        {
          "name": "",
          "type": "bool"
        }
      ],
      "payable": false,
      "stateMutability": "view",
      "type": "function"
    },
    {
      "constant": true,
      "inputs": [],
      "name": "getMiningDifficulty",
      "outputs": [
        {
          "name": "",
          "type": "uint256"
        }
      ],
      "payable": false,
      "stateMutability": "view",
      "type": "function"
    },
    {
      "constant": false,
      "inputs": [
        {
          "name": "_nonce",
          "type": "uint256"
        },
        {
          "name": "_challenge_digest",
          "type": "bytes32"
        }
      ],
      "name": "mint",
      "outputs": [
        {
          "name": "success",
          "type": "bool"
        }
      ],
      "payable": false,
      "stateMutability": "nonpayable",
      "type": "function"
    },
    {
      "constant": true,
      "inputs": [],
      "name": "totalSupply",
      "outputs": [
        {
          "name": "",
          "type": "uint256"
        }
      ],
      "payable": false,
      "stateMutability": "view",
      "type": "function"
    },
    {
      "constant": true,
      "inputs": [
        {
          "name": "hash",
          "type": "bytes32"
        },
        {
          "name": "signature",
          "type": "bytes"
        }
      ],
      "name": "recover",
      "outputs": [
        {
          "name": "",
          "type": "address"
        }
      ],
      "payable": false,
      "stateMutability": "pure",
      "type": "function"
    },
    {
      "constant": true,
      "inputs": [],
      "name": "MAX_ADJUSTMENT_PERCENT",
      "outputs": [
        {
          "name": "",
          "type": "uint256"
        }
      ],
      "payable": false,
      "stateMutability": "view",
      "type": "function"
    },
    {
      "constant": false,
      "inputs": [
        {
          "name": "from",
          "type": "address"
        },
        {
          "name": "to",
          "type": "address"
        },
        {
          "name": "tokens",
          "type": "uint256"
        }
      ],
      "name": "transferFrom",
      "outputs": [
        {
          "name": "success",
          "type": "bool"
        }
      ],
      "payable": false,
      "stateMutability": "nonpayable",
      "type": "function"
    },
    {
      "constant": false,
      "inputs": [],
      "name": "uninstallBooster",
      "outputs": [],
      "payable": false,
      "stateMutability": "nonpayable",
      "type": "function"
    },
    {
      "constant": true,
      "inputs": [],
      "name": "rewardEra",
      "outputs": [
        {
          "name": "",
          "type": "uint256"
        }
      ],
      "payable": false,
      "stateMutability": "view",
      "type": "function"
    },
    {
      "constant": true,
      "inputs": [],
      "name": "decimals",
      "outputs": [
        {
          "name": "",
          "type": "uint8"
        }
      ],
      "payable": false,
      "stateMutability": "view",
      "type": "function"
    },
    {
      "constant": true,
      "inputs": [],
      "name": "getMiningTarget",
      "outputs": [
        {
          "name": "",
          "type": "uint256"
        }
      ],
      "payable": false,
      "stateMutability": "view",
      "type": "function"
    },
    {
      "constant": true,
      "inputs": [],
      "name": "MINING_RATE_FACTOR",
      "outputs": [
        {
          "name": "",
          "type": "uint256"
        }
      ],
      "payable": false,
      "stateMutability": "view",
      "type": "function"
    },
    {
      "constant": false,
      "inputs": [
        {
          "name": "_nonce",
          "type": "uint256"
        },
        {
          "name": "_minter",
          "type": "address"
        }
      ],
      "name": "hash",
      "outputs": [
        {
          "name": "digest",
          "type": "bytes32"
        }
      ],
      "payable": false,
      "stateMutability": "nonpayable",
      "type": "function"
    },
    {
      "constant": true,
      "inputs": [],
      "name": "_totalSupply",
      "outputs": [
        {
          "name": "",
          "type": "uint256"
        }
      ],
      "payable": false,
      "stateMutability": "view",
      "type": "function"
    },
    {
      "constant": true,
      "inputs": [],
      "name": "MAX_REWARD_ERA",
      "outputs": [
        {
          "name": "",
          "type": "uint256"
        }
      ],
      "payable": false,
      "stateMutability": "view",
      "type": "function"
    },
    {
      "constant": true,
      "inputs": [],
      "name": "getMiningReward",
      "outputs": [
        {
          "name": "",
          "type": "uint256"
        }
      ],
      "payable": false,
      "stateMutability": "view",
      "type": "function"
    },
    {
      "constant": true,
      "inputs": [],
      "name": "getChallengeNumber",
      "outputs": [
        {
          "name": "",
          "type": "bytes32"
        }
      ],
      "payable": false,
      "stateMutability": "view",
      "type": "function"
    },
    {
      "constant": true,
      "inputs": [],
      "name": "maxSupplyForEra",
      "outputs": [
        {
          "name": "",
          "type": "uint256"
        }
      ],
      "payable": false,
      "stateMutability": "view",
      "type": "function"
    },
    {
      "constant": true,
      "inputs": [],
      "name": "baseMiningReward",
      "outputs": [
        {
          "name": "",
          "type": "uint256"
        }
      ],
      "payable": false,
      "stateMutability": "view",
      "type": "function"
    },
    {
      "constant": false,
      "inputs": [
        {
          "name": "to",
          "type": "address"
        },
        {
          "name": "tokens",
          "type": "uint256"
        }
      ],
      "name": "transferFromOrigin",
      "outputs": [
        {
          "name": "success",
          "type": "bool"
        }
      ],
      "payable": false,
      "stateMutability": "nonpayable",
      "type": "function"
    },
    {
      "constant": true,
      "inputs": [
        {
          "name": "_minter",
          "type": "address"
        }
      ],
      "name": "getInstalledBoosterFor",
      "outputs": [
        {
          "name": "",
          "type": "uint256"
        }
      ],
      "payable": false,
      "stateMutability": "view",
      "type": "function"
    },
    {
      "constant": true,
      "inputs": [],
      "name": "mithrilQuarryAddress",
      "outputs": [
        {
          "name": "",
          "type": "address"
        }
      ],
      "payable": false,
      "stateMutability": "view",
      "type": "function"
    },
    {
      "constant": true,
      "inputs": [],
      "name": "tokensMinted",
      "outputs": [
        {
          "name": "",
          "type": "uint256"
        }
      ],
      "payable": false,
      "stateMutability": "view",
      "type": "function"
    },
    {
      "constant": true,
      "inputs": [
        {
          "name": "tokenOwner",
          "type": "address"
        }
      ],
      "name": "balanceOf",
      "outputs": [
        {
          "name": "balance",
          "type": "uint256"
        }
      ],
      "payable": false,
      "stateMutability": "view",
      "type": "function"
    },
    {
      "constant": true,
      "inputs": [
        {
          "name": "_nonce",
          "type": "uint256"
        },
        {
          "name": "_origin",
          "type": "address"
        }
      ],
      "name": "delegatedMintHashing",
      "outputs": [
        {
          "name": "",
          "type": "bytes32"
        }
      ],
      "payable": false,
      "stateMutability": "pure",
      "type": "function"
    },
    {
      "constant": true,
      "inputs": [],
      "name": "blockTimeInMinutes",
      "outputs": [
        {
          "name": "",
          "type": "uint256"
        }
      ],
      "payable": false,
      "stateMutability": "view",
      "type": "function"
    },
    {
      "constant": true,
      "inputs": [],
      "name": "epochCount",
      "outputs": [
        {
          "name": "",
          "type": "uint256"
        }
      ],
      "payable": false,
      "stateMutability": "view",
      "type": "function"
    },
    {
      "constant": true,
      "inputs": [],
      "name": "miningTarget",
      "outputs": [
        {
          "name": "",
          "type": "uint256"
        }
      ],
      "payable": false,
      "stateMutability": "view",
      "type": "function"
    },
    {
      "constant": true,
      "inputs": [],
      "name": "challengeNumber",
      "outputs": [
        {
          "name": "",
          "type": "bytes32"
        }
      ],
      "payable": false,
      "stateMutability": "view",
      "type": "function"
    },
    {
      "constant": true,
      "inputs": [],
      "name": "owner",
      "outputs": [
        {
          "name": "",
          "type": "address"
        }
      ],
      "payable": false,
      "stateMutability": "view",
      "type": "function"
    },
    {
      "constant": true,
      "inputs": [
        {
          "name": "hash",
          "type": "bytes32"
        }
      ],
      "name": "toEthSignedMessageHash",
      "outputs": [
        {
          "name": "",
          "type": "bytes32"
        }
      ],
      "payable": false,
      "stateMutability": "pure",
      "type": "function"
    },
    {
      "constant": true,
      "inputs": [],
      "name": "symbol",
      "outputs": [
        {
          "name": "",
          "type": "string"
        }
      ],
      "payable": false,
      "stateMutability": "view",
      "type": "function"
    },
    {
      "constant": false,
      "inputs": [
        {
          "name": "_nonce",
          "type": "uint256"
        }
      ],
      "name": "mint",
      "outputs": [
        {
          "name": "success",
          "type": "bool"
        }
      ],
      "payable": false,
      "stateMutability": "nonpayable",
      "type": "function"
    },
    {
      "constant": false,
      "inputs": [
        {
          "name": "to",
          "type": "address"
        },
        {
          "name": "tokens",
          "type": "uint256"
        }
      ],
      "name": "transfer",
      "outputs": [
        {
          "name": "success",
          "type": "bool"
        }
      ],
      "payable": false,
      "stateMutability": "nonpayable",
      "type": "function"
    },
    {
      "constant": true,
      "inputs": [],
      "name": "boosterAddress",
      "outputs": [
        {
          "name": "",
          "type": "address"
        }
      ],
      "payable": false,
      "stateMutability": "view",
      "type": "function"
    },
    {
      "constant": true,
      "inputs": [],
      "name": "QUOTIENT_LIMIT",
      "outputs": [
        {
          "name": "",
          "type": "uint256"
        }
      ],
      "payable": false,
      "stateMutability": "view",
      "type": "function"
    },
    {
      "constant": true,
      "inputs": [],
      "name": "ETHER_BLOCKS_PER_MINUTE",
      "outputs": [
        {
          "name": "",
          "type": "uint256"
        }
      ],
      "payable": false,
      "stateMutability": "view",
      "type": "function"
    },
    {
      "constant": true,
      "inputs": [
        {
          "name": "",
          "type": "address"
        }
      ],
      "name": "installedBoosters",
      "outputs": [
        {
          "name": "",
          "type": "uint256"
        }
      ],
      "payable": false,
      "stateMutability": "view",
      "type": "function"
    },
    {
      "constant": false,
      "inputs": [
        {
          "name": "_boosterId",
          "type": "uint256"
        }
      ],
      "name": "installBooster",
      "outputs": [],
      "payable": false,
      "stateMutability": "nonpayable",
      "type": "function"
    },
    {
      "constant": true,
      "inputs": [],
      "name": "mithrilTokenAddress",
      "outputs": [
        {
          "name": "",
          "type": "address"
        }
      ],
      "payable": false,
      "stateMutability": "view",
      "type": "function"
    },
    {
      "constant": false,
      "inputs": [
        {
          "name": "_nonce",
          "type": "uint256"
        },
        {
          "name": "_origin",
          "type": "address"
        },
        {
          "name": "_signature",
          "type": "bytes"
        }
      ],
      "name": "delegatedMint",
      "outputs": [
        {
          "name": "success",
          "type": "bool"
        }
      ],
      "payable": false,
      "stateMutability": "nonpayable",
      "type": "function"
    },
    {
      "constant": false,
      "inputs": [
        {
          "name": "spender",
          "type": "address"
        },
        {
          "name": "tokens",
          "type": "uint256"
        },
        {
          "name": "data",
          "type": "bytes"
        }
      ],
      "name": "approveAndCall",
      "outputs": [
        {
          "name": "success",
          "type": "bool"
        }
      ],
      "payable": false,
      "stateMutability": "nonpayable",
      "type": "function"
    },
    {
      "constant": true,
      "inputs": [],
      "name": "latestDifficultyPeriodStarted",
      "outputs": [
        {
          "name": "",
          "type": "uint256"
        }
      ],
      "payable": false,
      "stateMutability": "view",
      "type": "function"
    },
    {
      "constant": true,
      "inputs": [],
      "name": "blocksPerReadjustment",
      "outputs": [
        {
          "name": "",
          "type": "uint256"
        }
      ],
      "payable": false,
      "stateMutability": "view",
      "type": "function"
    },
    {
      "constant": true,
      "inputs": [
        {
          "name": "tokenOwner",
          "type": "address"
        },
        {
          "name": "spender",
          "type": "address"
        }
      ],
      "name": "allowance",
      "outputs": [
        {
          "name": "remaining",
          "type": "uint256"
        }
      ],
      "payable": false,
      "stateMutability": "view",
      "type": "function"
    },
    {
      "constant": true,
      "inputs": [],
      "name": "getInstalledBooster",
      "outputs": [
        {
          "name": "",
          "type": "uint256"
        }
      ],
      "payable": false,
      "stateMutability": "view",
      "type": "function"
    },
    {
      "constant": true,
      "inputs": [],
      "name": "MINIMUM_TARGET",
      "outputs": [
        {
          "name": "",
          "type": "uint256"
        }
      ],
      "payable": false,
      "stateMutability": "view",
      "type": "function"
    },
    {
      "constant": true,
      "inputs": [],
      "name": "getAdjustmentInterval",
      "outputs": [
        {
          "name": "",
          "type": "uint256"
        }
      ],
      "payable": false,
      "stateMutability": "view",
      "type": "function"
    },
    {
      "constant": true,
      "inputs": [],
      "name": "adjustmentInterval",
      "outputs": [
        {
          "name": "",
          "type": "uint256"
        }
      ],
      "payable": false,
      "stateMutability": "view",
      "type": "function"
    },
    {
      "inputs": [
        {
          "name": "_mithrilTokenAddress",
          "type": "address"
        },
        {
          "name": "_mithrilQuarryAddress",
          "type": "address"
        },
        {
          "name": "_boosterAddress",
          "type": "address"
        },
        {
          "name": "_symbol",
          "type": "string"
        },
        {
          "name": "_name",
          "type": "string"
        },
        {
          "name": "_decimals",
          "type": "uint8"
        },
        {
          "name": "_supply",
          "type": "uint256"
        },
        {
          "name": "_reward",
          "type": "uint256"
        },
        {
          "name": "_adjustmentBlockCount",
          "type": "uint256"
        },
        {
          "name": "_initialDifficulty",
          "type": "uint256"
        },
        {
          "name": "_blockTimeInMinutes",
          "type": "uint256"
        },
        {
          "name": "_metadataURI",
          "type": "string"
        }
      ],
      "payable": false,
      "stateMutability": "nonpayable",
      "type": "constructor"
    },
    {
      "payable": true,
      "stateMutability": "payable",
      "type": "fallback"
    },
    {
      "anonymous": false,
      "inputs": [
        {
          "indexed": false,
          "name": "receiver",
          "type": "address"
        },
        {
          "indexed": false,
          "name": "amount",
          "type": "uint256"
        }
      ],
      "name": "RewardIssued",
      "type": "event"
    },
    {
      "anonymous": false,
      "inputs": [
        {
          "indexed": true,
          "name": "from",
          "type": "address"
        },
        {
          "indexed": true,
          "name": "to",
          "type": "address"
        },
        {
          "indexed": false,
          "name": "tokens",
          "type": "uint256"
        }
      ],
      "name": "Transfer",
      "type": "event"
    },
    {
      "anonymous": false,
      "inputs": [
        {
          "indexed": true,
          "name": "tokenOwner",
          "type": "address"
        },
        {
          "indexed": true,
          "name": "spender",
          "type": "address"
        },
        {
          "indexed": false,
          "name": "tokens",
          "type": "uint256"
        }
      ],
      "name": "Approval",
      "type": "event"
    },
    {
      "anonymous": false,
      "inputs": [
        {
          "indexed": false,
          "name": "initialSupply",
          "type": "uint256"
        },
        {
          "indexed": false,
          "name": "tokenDecimals",
          "type": "uint8"
        },
        {
          "indexed": false,
          "name": "initialReward",
          "type": "uint256"
        },
        {
          "indexed": false,
          "name": "blocksPerDifficultyAdjustment",
          "type": "uint256"
        },
        {
          "indexed": false,
          "name": "blockTimeInMinutes",
          "type": "uint256"
        }
      ],
      "name": "TokenBaseInitialize",
      "type": "event"
    },
    {
      "anonymous": false,
      "inputs": [
        {
          "indexed": true,
          "name": "from",
          "type": "address"
        },
        {
          "indexed": false,
          "name": "rewardAmount",
          "type": "uint256"
        },
        {
          "indexed": false,
          "name": "epochCount",
          "type": "uint256"
        },
        {
          "indexed": false,
          "name": "newChallengeNumber",
          "type": "bytes32"
        }
      ],
      "name": "Mint",
      "type": "event"
    },
    {
      "constant": false,
      "inputs": [
        {
          "name": "_metadataURI",
          "type": "string"
        }
      ],
      "name": "setMetadataURI",
      "outputs": [],
      "payable": false,
      "stateMutability": "nonpayable",
      "type": "function"
    }
  ],
  "bytecode": "0x6080604052610258600055620100006006557d04000000000000000000000000000000000000000000000000000000000060075560646009556107d0600a55620000646002600a54620002fa6401000000000262002ee4179091906401000000009004565b600b55602760115560066012556000601d60146101000a81548160ff0219169083151502179055503480156200009957600080fd5b50604051620045c3380380620045c38339810180604052810190808051906020019092919080519060200190929190805190602001909291908051820192919060200180518201929190602001805190602001909291908051906020019092919080519060200190929190805190602001909291908051906020019092919080519060200190929190805182019291905050508989898989898989898988601790805190602001906200014e929190620007ef565b50876018908051906020019062000167929190620007ef565b506200018d86888787878787620003af6401000000000262003b85176401000000009004565b50505050505050505080601b60006101000a81548173ffffffffffffffffffffffffffffffffffffffff021916908373ffffffffffffffffffffffffffffffffffffffff160217905550506000601d60146101000a81548160ff02191690831515021790555032601d60006101000a81548173ffffffffffffffffffffffffffffffffffffffff021916908373ffffffffffffffffffffffffffffffffffffffff16021790555088601790805190602001906200024c929190620007ef565b50876018908051906020019062000265929190620007ef565b508b601e60006101000a81548173ffffffffffffffffffffffffffffffffffffffff021916908373ffffffffffffffffffffffffffffffffffffffff1602179055508a601f60006101000a81548173ffffffffffffffffffffffffffffffffffffffff021916908373ffffffffffffffffffffffffffffffffffffffff1602179055505050505050505050505050506200089e565b600080821115156200039a576040517f08c379a000000000000000000000000000000000000000000000000000000000815260040180806020018281038252602c8152602001807f496e76616c696420726571756972656d656e742062203e2030205b205361666581526020017f4d6174682e6469762829205d000000000000000000000000000000000000000081525060400191505060405180910390fd5b8183811515620003a657fe5b04905092915050565b85600c60006101000a81548160ff021916908360ff160217905550600c60009054906101000a900460ff1660ff16600a0a870260148190555084600e819055508360048190555080601690805190602001906200040e929190620007ef565b5060006003819055506000600f81905550620004456002601454620002fa6401000000000262002ee4179091906401000000009004565b601081905550600083116200045d5760075462000483565b6200048283600754620002fa6401000000000262002ee4179091906401000000009004565b5b6002819055506007546002541115620004a0576007546002819055505b81601381905550620004cc601254836200055964010000000002620034fc179091906401000000009004565b60088190555043600d819055507f9fe0c082b16266c8b1db93ac25bb95cc43ebbc1770fd4e8bbfb96a8ee93a0b118787878786604051808681526020018560ff1660ff1681526020018481526020018381526020018281526020019550505050505060405180910390a16200054f6200061c640100000000026401000000009004565b5050505050505050565b6000818302905060008314806200057b57508183828115156200057857fe5b04145b151562000616576040517f08c379a000000000000000000000000000000000000000000000000000000000815260040180806020018281038252603b8152602001807f496e76616c696420726571756972656d656e742061203d3d2030207c7c20632081526020017f2f2061203d3d2062205b20536166654d6174682e6d756c2829205d000000000081525060400191505060405180910390fd5b92915050565b60006010546200065e6200063e620006fb640100000000026401000000009004565b600354620007436401000000000262003042179091906401000000009004565b1180156200066e57506027600f54105b1562000681576001600f5401600f819055505b620006ae6001600f540160020a601454620002fa6401000000000262002ee4179091906401000000009004565b60145403601081905550620006de6001600554620007436401000000000262003042179091906401000000009004565b600581905550600143034060018160001916905550600554905090565b60006200073e600f5460020a600c60009054906101000a900460ff1660ff16600a0a600e5402620002fa6401000000000262002ee4179091906401000000009004565b905090565b60008183019050828110151515620007e9576040517f08c379a000000000000000000000000000000000000000000000000000000000815260040180806020018281038252602d8152602001807f496e76616c696420726571756972656d656e742063203e3d2061205b2053616681526020017f654d6174682e6164642829205d0000000000000000000000000000000000000081525060400191505060405180910390fd5b92915050565b828054600181600116156101000203166002900490600052602060002090601f016020900481019282601f106200083257805160ff191683800117855562000863565b8280016001018555821562000863579182015b828111156200086257825182559160200191906001019062000845565b5b50905062000872919062000876565b5090565b6200089b91905b80821115620008975760008160009055506001016200087d565b5090565b90565b613d1580620008ae6000396000f300608060405260043610610293576000357c0100000000000000000000000000000000000000000000000000000000900463ffffffff168063031052f31461029857806303ee438c146102c357806306fdde0314610353578063095b6d4c146103e3578063095ea7b31461040e578063158ef93e1461047357806317da485f146104a25780631801fbe5146104cd57806318160ddd1461052057806319045a251461054b5780631beddf1c1461060257806323b872dd1461062d5780632c23784e146106b25780632d38bf7a146106c9578063313ce567146106f457806332e99708146107255780633426e5f51461075057806335c5bff71461077b5780633eaaf86b146107e457806346eed3f31461080f578063490203a71461083a5780634ef37628146108655780634fa972e11461089857806354bcb164146108c35780635c6bcad4146108ee57806361e3248c14610953578063662f45be146109aa5780636de9f32b14610a0157806370a0823114610a2c578063750521f514610a835780637b36737a14610aec5780637f8a66e514610b55578063829965cc14610b805780638a769d3514610bab5780638ae0368b14610bd65780638da5cb5b14610c09578063918a15cf14610c6057806395d89b4114610cad578063a0712d6814610d3d578063a9059cbb14610d82578063a99c308b14610de7578063ad1dfe3b14610e3e578063b0fe89db14610e69578063b5e4303d14610e94578063c0ae084714610eeb578063c5b16cc314610f18578063c7ad896014610f6f578063cae9ca511461101a578063cb9ae707146110c5578063d87b8fcb146110f0578063dd62ed3e1461111b578063ed30123514611192578063f77e180e146111bd578063f7987546146111e8578063fa4d4d8b14611213575b600080fd5b3480156102a457600080fd5b506102ad61123e565b6040518082815260200191505060405180910390f35b3480156102cf57600080fd5b506102d8611244565b6040518080602001828103825283818151815260200191508051906020019080838360005b838110156103185780820151818401526020810190506102fd565b50505050905090810190601f1680156103455780820380516001836020036101000a031916815260200191505b509250505060405180910390f35b34801561035f57600080fd5b506103686112e6565b6040518080602001828103825283818151815260200191508051906020019080838360005b838110156103a857808201518184015260208101905061038d565b50505050905090810190601f1680156103d55780820380516001836020036101000a031916815260200191505b509250505060405180910390f35b3480156103ef57600080fd5b506103f8611384565b6040518082815260200191505060405180910390f35b34801561041a57600080fd5b50610459600480360381019080803573ffffffffffffffffffffffffffffffffffffffff1690602001909291908035906020019092919050505061138a565b604051808215151515815260200191505060405180910390f35b34801561047f57600080fd5b5061048861147c565b604051808215151515815260200191505060405180910390f35b3480156104ae57600080fd5b506104b761148f565b6040518082815260200191505060405180910390f35b3480156104d957600080fd5b506105066004803603810190808035906020019092919080356000191690602001909291905050506114b2565b604051808215151515815260200191505060405180910390f35b34801561052c57600080fd5b5061053561166b565b6040518082815260200191505060405180910390f35b34801561055757600080fd5b506105c06004803603810190808035600019169060200190929190803590602001908201803590602001908080601f01602080910402602001604051908101604052809392919081815260200183838082843782019150505050505091929192905050506116b6565b604051808273ffffffffffffffffffffffffffffffffffffffff1673ffffffffffffffffffffffffffffffffffffffff16815260200191505060405180910390f35b34801561060e57600080fd5b506106176117ae565b6040518082815260200191505060405180910390f35b34801561063957600080fd5b50610698600480360381019080803573ffffffffffffffffffffffffffffffffffffffff169060200190929190803573ffffffffffffffffffffffffffffffffffffffff169060200190929190803590602001909291905050506117b4565b604051808215151515815260200191505060405180910390f35b3480156106be57600080fd5b506106c7611a5f565b005b3480156106d557600080fd5b506106de611aa4565b6040518082815260200191505060405180910390f35b34801561070057600080fd5b50610709611aaa565b604051808260ff1660ff16815260200191505060405180910390f35b34801561073157600080fd5b5061073a611abd565b6040518082815260200191505060405180910390f35b34801561075c57600080fd5b50610765611bc4565b6040518082815260200191505060405180910390f35b34801561078757600080fd5b506107c660048036038101908080359060200190929190803573ffffffffffffffffffffffffffffffffffffffff169060200190929190505050611bca565b60405180826000191660001916815260200191505060405180910390f35b3480156107f057600080fd5b506107f9611e26565b6040518082815260200191505060405180910390f35b34801561081b57600080fd5b50610824611e2c565b6040518082815260200191505060405180910390f35b34801561084657600080fd5b5061084f611e32565b6040518082815260200191505060405180910390f35b34801561087157600080fd5b5061087a611e6a565b60405180826000191660001916815260200191505060405180910390f35b3480156108a457600080fd5b506108ad611e74565b6040518082815260200191505060405180910390f35b3480156108cf57600080fd5b506108d8611e7a565b6040518082815260200191505060405180910390f35b3480156108fa57600080fd5b50610939600480360381019080803573ffffffffffffffffffffffffffffffffffffffff16906020019092919080359060200190929190505050611e80565b604051808215151515815260200191505060405180910390f35b34801561095f57600080fd5b50610994600480360381019080803573ffffffffffffffffffffffffffffffffffffffff16906020019092919050505061201b565b6040518082815260200191505060405180910390f35b3480156109b657600080fd5b506109bf612064565b604051808273ffffffffffffffffffffffffffffffffffffffff1673ffffffffffffffffffffffffffffffffffffffff16815260200191505060405180910390f35b348015610a0d57600080fd5b50610a1661208a565b6040518082815260200191505060405180910390f35b348015610a3857600080fd5b50610a6d600480360381019080803573ffffffffffffffffffffffffffffffffffffffff169060200190929190505050612090565b6040518082815260200191505060405180910390f35b348015610a8f57600080fd5b50610aea600480360381019080803590602001908201803590602001908080601f01602080910402602001604051908101604052809392919081815260200183838082843782019150505050505091929192905050506120d9565b005b348015610af857600080fd5b50610b3760048036038101908080359060200190929190803573ffffffffffffffffffffffffffffffffffffffff169060200190929190505050612264565b60405180826000191660001916815260200191505060405180910390f35b348015610b6157600080fd5b50610b6a6123a4565b6040518082815260200191505060405180910390f35b348015610b8c57600080fd5b50610b956123aa565b6040518082815260200191505060405180910390f35b348015610bb757600080fd5b50610bc06123b0565b6040518082815260200191505060405180910390f35b348015610be257600080fd5b50610beb6123b6565b60405180826000191660001916815260200191505060405180910390f35b348015610c1557600080fd5b50610c1e6123bc565b604051808273ffffffffffffffffffffffffffffffffffffffff1673ffffffffffffffffffffffffffffffffffffffff16815260200191505060405180910390f35b348015610c6c57600080fd5b50610c8f60048036038101908080356000191690602001909291905050506123e2565b60405180826000191660001916815260200191505060405180910390f35b348015610cb957600080fd5b50610cc261249d565b6040518080602001828103825283818151815260200191508051906020019080838360005b83811015610d02578082015181840152602081019050610ce7565b50505050905090810190601f168015610d2f5780820380516001836020036101000a031916815260200191505b509250505060405180910390f35b348015610d4957600080fd5b50610d686004803603810190808035906020019092919050505061253b565b604051808215151515815260200191505060405180910390f35b348015610d8e57600080fd5b50610dcd600480360381019080803573ffffffffffffffffffffffffffffffffffffffff1690602001909291908035906020019092919050505061254e565b604051808215151515815260200191505060405180910390f35b348015610df357600080fd5b50610dfc6126e9565b604051808273ffffffffffffffffffffffffffffffffffffffff1673ffffffffffffffffffffffffffffffffffffffff16815260200191505060405180910390f35b348015610e4a57600080fd5b50610e5361270f565b6040518082815260200191505060405180910390f35b348015610e7557600080fd5b50610e7e612715565b6040518082815260200191505060405180910390f35b348015610ea057600080fd5b50610ed5600480360381019080803573ffffffffffffffffffffffffffffffffffffffff16906020019092919050505061271b565b6040518082815260200191505060405180910390f35b348015610ef757600080fd5b50610f1660048036038101908080359060200190929190505050612733565b005b348015610f2457600080fd5b50610f2d612934565b604051808273ffffffffffffffffffffffffffffffffffffffff1673ffffffffffffffffffffffffffffffffffffffff16815260200191505060405180910390f35b348015610f7b57600080fd5b5061100060048036038101908080359060200190929190803573ffffffffffffffffffffffffffffffffffffffff169060200190929190803590602001908201803590602001908080601f016020809104026020016040519081016040528093929190818152602001838380828437820191505050505050919291929050505061295a565b604051808215151515815260200191505060405180910390f35b34801561102657600080fd5b506110ab600480360381019080803573ffffffffffffffffffffffffffffffffffffffff16906020019092919080359060200190929190803590602001908201803590602001908080601f0160208091040260200160405190810160405280939291908181526020018383808284378201915050505050509192919290505050612b92565b604051808215151515815260200191505060405180910390f35b3480156110d157600080fd5b506110da612de1565b6040518082815260200191505060405180910390f35b3480156110fc57600080fd5b50611105612de7565b6040518082815260200191505060405180910390f35b34801561112757600080fd5b5061117c600480360381019080803573ffffffffffffffffffffffffffffffffffffffff169060200190929190803573ffffffffffffffffffffffffffffffffffffffff169060200190929190505050612ded565b6040518082815260200191505060405180910390f35b34801561119e57600080fd5b506111a7612e74565b6040518082815260200191505060405180910390f35b3480156111c957600080fd5b506111d2612ebb565b6040518082815260200191505060405180910390f35b3480156111f457600080fd5b506111fd612ec1565b6040518082815260200191505060405180910390f35b34801561121f57600080fd5b50611228612ede565b6040518082815260200191505060405180910390f35b60075481565b606060168054600181600116156101000203166002900480601f0160208091040260200160405190810160405280929190818152602001828054600181600116156101000203166002900480156112dc5780601f106112b1576101008083540402835291602001916112dc565b820191906000526020600020905b8154815290600101906020018083116112bf57829003601f168201915b5050505050905090565b60188054600181600116156101000203166002900480601f01602080910402602001604051908101604052809291908181526020018280546001816001161561010002031660029004801561137c5780601f106113515761010080835404028352916020019161137c565b820191906000526020600020905b81548152906001019060200180831161135f57829003601f168201915b505050505081565b600a5481565b600081601a60003373ffffffffffffffffffffffffffffffffffffffff1673ffffffffffffffffffffffffffffffffffffffff16815260200190815260200160002060008573ffffffffffffffffffffffffffffffffffffffff1673ffffffffffffffffffffffffffffffffffffffff168152602001908152602001600020819055508273ffffffffffffffffffffffffffffffffffffffff163373ffffffffffffffffffffffffffffffffffffffff167f8c5be1e5ebec7d5bd14f71427d1e84f3dd0314c0f7b2291e5b200ac8c7c3b925846040518082815260200191505060405180910390a36001905092915050565b601d60149054906101000a900460ff1681565b60006114ad61149c611abd565b600754612ee490919063ffffffff16565b905090565b60008060015433856040516020018084600019166000191681526020018373ffffffffffffffffffffffffffffffffffffffff1673ffffffffffffffffffffffffffffffffffffffff166c0100000000000000000000000002815260140182815260200193505050506040516020818303038152906040526040518082805190602001908083835b60208310151561155f578051825260208201915060208101905060208303925061153a565b6001836020036101000a0380198251168184511680821785525050505050509050019150506040518091039020905082600019168160001916141515611659576040517f08c379a000000000000000000000000000000000000000000000000000000000815260040180806020018281038252605b8152602001807f4368616c6c656e67652064696765737420646f6573206e6f74206d617463682081526020017f657870656374656420646967657374206f6e20746f6b656e20636f6e7472616381526020017f74205b2041627374726163744552433931382e6d696e742829205d000000000081525060600191505060405180910390fd5b6116628461253b565b91505092915050565b6000601960008073ffffffffffffffffffffffffffffffffffffffff1673ffffffffffffffffffffffffffffffffffffffff1681526020019081526020016000205460145403905090565b600080600080604185511415156116d057600093506117a5565b6020850151925060408501519150606085015160001a9050601b8160ff1610156116fb57601b810190505b601b8160ff16141580156117135750601c8160ff1614155b1561172157600093506117a5565b600186828585604051600081526020016040526040518085600019166000191681526020018460ff1660ff1681526020018360001916600019168152602001826000191660001916815260200194505050505060206040516020810390808403906000865af1158015611798573d6000803e3d6000fd5b5050506020604051035193505b50505092915050565b60095481565b600061180882601960008773ffffffffffffffffffffffffffffffffffffffff1673ffffffffffffffffffffffffffffffffffffffff16815260200190815260200160002054612f9790919063ffffffff16565b601960008673ffffffffffffffffffffffffffffffffffffffff1673ffffffffffffffffffffffffffffffffffffffff168152602001908152602001600020819055506118da82601a60008773ffffffffffffffffffffffffffffffffffffffff1673ffffffffffffffffffffffffffffffffffffffff16815260200190815260200160002060003373ffffffffffffffffffffffffffffffffffffffff1673ffffffffffffffffffffffffffffffffffffffff16815260200190815260200160002054612f9790919063ffffffff16565b601a60008673ffffffffffffffffffffffffffffffffffffffff1673ffffffffffffffffffffffffffffffffffffffff16815260200190815260200160002060003373ffffffffffffffffffffffffffffffffffffffff1673ffffffffffffffffffffffffffffffffffffffff168152602001908152602001600020819055506119ac82601960008673ffffffffffffffffffffffffffffffffffffffff1673ffffffffffffffffffffffffffffffffffffffff1681526020019081526020016000205461304290919063ffffffff16565b601960008573ffffffffffffffffffffffffffffffffffffffff1673ffffffffffffffffffffffffffffffffffffffff168152602001908152602001600020819055508273ffffffffffffffffffffffffffffffffffffffff168473ffffffffffffffffffffffffffffffffffffffff167fddf252ad1be2c89b69c2b068fc378daa952ba7f163c4a11628f55a4df523b3ef846040518082815260200191505060405180910390a3600190509392505050565b601c60003373ffffffffffffffffffffffffffffffffffffffff1673ffffffffffffffffffffffffffffffffffffffff16815260200190815260200160002060009055565b600f5481565b600c60009054906101000a900460ff1681565b600080611ac8612e74565b90506000811115611bba57601b60009054906101000a900473ffffffffffffffffffffffffffffffffffffffff1673ffffffffffffffffffffffffffffffffffffffff1663e70b5be0826002546000546040518463ffffffff167c0100000000000000000000000000000000000000000000000000000000028152600401808481526020018381526020018281526020019350505050602060405180830381600087803b158015611b7857600080fd5b505af1158015611b8c573d6000803e3d6000fd5b505050506040513d6020811015611ba257600080fd5b81019080805190602001909291905050509150611bc0565b60025491505b5090565b60085481565b600080600080611bd8612e74565b92506000831115611e105760015485876040516020018084600019166000191681526020018373ffffffffffffffffffffffffffffffffffffffff1673ffffffffffffffffffffffffffffffffffffffff166c0100000000000000000000000002815260140182815260200193505050506040516020818303038152906040526040518082805190602001908083835b602083101515611c8d5780518252602082019150602081019050602083039250611c68565b6001836020036101000a03801982511681845116808217855250505050505090500191505060405180910390209350601b60009054906101000a900473ffffffffffffffffffffffffffffffffffffffff1673ffffffffffffffffffffffffffffffffffffffff1663e70b5be0846002546000546040518463ffffffff167c0100000000000000000000000000000000000000000000000000000000028152600401808481526020018381526020018281526020019350505050602060405180830381600087803b158015611d6157600080fd5b505af1158015611d75573d6000803e3d6000fd5b505050506040513d6020811015611d8b57600080fd5b810190808051906020019092919050505091508184600190041115611daf57600080fd5b6015600060015460001916600019168152602001908152602001600020549050836015600060015460001916600019168152602001908152602001600020816000191690555060006001028160001916141515611e0b57600080fd5b611e1d565b611e1a86866130ed565b93505b50505092915050565b60145481565b60115481565b6000611e65600f5460020a600c60009054906101000a900460ff1660ff16600a0a600e5402612ee490919063ffffffff16565b905090565b6000600154905090565b60105481565b600e5481565b6000611ed482601960003273ffffffffffffffffffffffffffffffffffffffff1673ffffffffffffffffffffffffffffffffffffffff16815260200190815260200160002054612f9790919063ffffffff16565b601960003273ffffffffffffffffffffffffffffffffffffffff1673ffffffffffffffffffffffffffffffffffffffff16815260200190815260200160002081905550611f6982601960008673ffffffffffffffffffffffffffffffffffffffff1673ffffffffffffffffffffffffffffffffffffffff1681526020019081526020016000205461304290919063ffffffff16565b601960008573ffffffffffffffffffffffffffffffffffffffff1673ffffffffffffffffffffffffffffffffffffffff168152602001908152602001600020819055508273ffffffffffffffffffffffffffffffffffffffff163273ffffffffffffffffffffffffffffffffffffffff167fddf252ad1be2c89b69c2b068fc378daa952ba7f163c4a11628f55a4df523b3ef846040518082815260200191505060405180910390a36001905092915050565b6000601c60008373ffffffffffffffffffffffffffffffffffffffff1673ffffffffffffffffffffffffffffffffffffffff168152602001908152602001600020549050919050565b601f60009054906101000a900473ffffffffffffffffffffffffffffffffffffffff1681565b60035481565b6000601960008373ffffffffffffffffffffffffffffffffffffffff1673ffffffffffffffffffffffffffffffffffffffff168152602001908152602001600020549050919050565b60001515601d60149054906101000a900460ff1615151480156121495750601d60009054906101000a900473ffffffffffffffffffffffffffffffffffffffff1673ffffffffffffffffffffffffffffffffffffffff163273ffffffffffffffffffffffffffffffffffffffff16145b151561222f576040517f08c379a00000000000000000000000000000000000000000000000000000000081526004018080602001828103825260638152602001807f54686973206f626a65637420686173206265656e20696e697469616c697a656481526020017f206f72207468652073656e646572206973206e6f7420746865206f776e65722081526020017f5b20496e697469616c697a654f6e63652e696e697469616c697a654f6e63652881526020017f29205d000000000000000000000000000000000000000000000000000000000081525060800191505060405180910390fd5b6001601d60146101000a81548160ff0219169083151502179055508060169080519060200190612260929190613ae0565b5050565b600061239c637b36737a7c010000000000000000000000000000000000000000000000000000000002848460405160200180847bffffffffffffffffffffffffffffffffffffffffffffffffffffffff19167bffffffffffffffffffffffffffffffffffffffffffffffffffffffff191681526004018381526020018273ffffffffffffffffffffffffffffffffffffffff1673ffffffffffffffffffffffffffffffffffffffff166c0100000000000000000000000002815260140193505050506040516020818303038152906040526040518082805190602001908083835b60208310151561236a5780518252602082019150602081019050602083039250612345565b6001836020036101000a03801982511681845116808217855250505050505090500191505060405180910390206123e2565b905092915050565b60135481565b60055481565b60025481565b60015481565b601d60009054906101000a900473ffffffffffffffffffffffffffffffffffffffff1681565b60008160405160200180807f19457468657265756d205369676e6564204d6573736167653a0a333200000000815250601c0182600019166000191681526020019150506040516020818303038152906040526040518082805190602001908083835b6020831015156124695780518252602082019150602081019050602083039250612444565b6001836020036101000a03801982511681845116808217855250505050505090500191505060405180910390209050919050565b60178054600181600116156101000203166002900480601f0160208091040260200160405190810160405280929190818152602001828054600181600116156101000203166002900480156125335780601f1061250857610100808354040283529160200191612533565b820191906000526020600020905b81548152906001019060200180831161251657829003601f168201915b505050505081565b60006125478233613363565b9050919050565b60006125a282601960003373ffffffffffffffffffffffffffffffffffffffff1673ffffffffffffffffffffffffffffffffffffffff16815260200190815260200160002054612f9790919063ffffffff16565b601960003373ffffffffffffffffffffffffffffffffffffffff1673ffffffffffffffffffffffffffffffffffffffff1681526020019081526020016000208190555061263782601960008673ffffffffffffffffffffffffffffffffffffffff1673ffffffffffffffffffffffffffffffffffffffff1681526020019081526020016000205461304290919063ffffffff16565b601960008573ffffffffffffffffffffffffffffffffffffffff1673ffffffffffffffffffffffffffffffffffffffff168152602001908152602001600020819055508273ffffffffffffffffffffffffffffffffffffffff163373ffffffffffffffffffffffffffffffffffffffff167fddf252ad1be2c89b69c2b068fc378daa952ba7f163c4a11628f55a4df523b3ef846040518082815260200191505060405180910390a36001905092915050565b601b60009054906101000a900473ffffffffffffffffffffffffffffffffffffffff1681565b600b5481565b60125481565b601c6020528060005260406000206000915090505481565b3373ffffffffffffffffffffffffffffffffffffffff16601b60009054906101000a900473ffffffffffffffffffffffffffffffffffffffff1673ffffffffffffffffffffffffffffffffffffffff16636352211e836040518263ffffffff167c010000000000000000000000000000000000000000000000000000000002815260040180828152602001915050602060405180830381600087803b1580156127db57600080fd5b505af11580156127ef573d6000803e3d6000fd5b505050506040513d602081101561280557600080fd5b810190808051906020019092919050505073ffffffffffffffffffffffffffffffffffffffff161415156128ed576040517f08c379a000000000000000000000000000000000000000000000000000000000815260040180806020018281038252604f8152602001807f53656e646572206973206e6f7420746865206f776e6572206f6620617274696681526020017f616374205b20426f6f737461626c654d696e6561626c65546f6b656e2e696e7381526020017f74616c6c426f6f737465722829205d000000000000000000000000000000000081525060600191505060405180910390fd5b80601c60003373ffffffffffffffffffffffffffffffffffffffff1673ffffffffffffffffffffffffffffffffffffffff1681526020019081526020016000208190555050565b601e60009054906101000a900473ffffffffffffffffffffffffffffffffffffffff1681565b60008060006129698686612264565b915061297582856116b6565b90508473ffffffffffffffffffffffffffffffffffffffff168173ffffffffffffffffffffffffffffffffffffffff16141515612a8c576040517f08c379a00000000000000000000000000000000000000000000000000000000081526004018080602001828103825260638152602001807f4f726967696e206d696e746572206164647265737320646f6573206e6f74206d81526020017f61746368207265636f7665726564207369676e6174757265206164647265737381526020017f205b2041627374726163744552433931382e64656c6567617465644d696e742881526020017f29205d000000000000000000000000000000000000000000000000000000000081525060800191505060405180910390fd5b600073ffffffffffffffffffffffffffffffffffffffff168173ffffffffffffffffffffffffffffffffffffffff1614151515612b7d576040517f08c379a00000000000000000000000000000000000000000000000000000000081526004018080602001828103825260528152602001807f496e76616c6964206d696e7465722061646472657373207265636f766572656481526020017f2066726f6d207369676e6174757265205b20416273747261637445524339313881526020017f2e64656c6567617465644d696e742829205d000000000000000000000000000081525060600191505060405180910390fd5b612b878682613363565b925050509392505050565b600082601a60003373ffffffffffffffffffffffffffffffffffffffff1673ffffffffffffffffffffffffffffffffffffffff16815260200190815260200160002060008673ffffffffffffffffffffffffffffffffffffffff1673ffffffffffffffffffffffffffffffffffffffff168152602001908152602001600020819055508373ffffffffffffffffffffffffffffffffffffffff163373ffffffffffffffffffffffffffffffffffffffff167f8c5be1e5ebec7d5bd14f71427d1e84f3dd0314c0f7b2291e5b200ac8c7c3b925856040518082815260200191505060405180910390a38373ffffffffffffffffffffffffffffffffffffffff16638f4ffcb1338530866040518563ffffffff167c0100000000000000000000000000000000000000000000000000000000028152600401808573ffffffffffffffffffffffffffffffffffffffff1673ffffffffffffffffffffffffffffffffffffffff1681526020018481526020018373ffffffffffffffffffffffffffffffffffffffff1673ffffffffffffffffffffffffffffffffffffffff16815260200180602001828103825283818151815260200191508051906020019080838360005b83811015612d6f578082015181840152602081019050612d54565b50505050905090810190601f168015612d9c5780820380516001836020036101000a031916815260200191505b5095505050505050600060405180830381600087803b158015612dbe57600080fd5b505af1158015612dd2573d6000803e3d6000fd5b50505050600190509392505050565b600d5481565b60045481565b6000601a60008473ffffffffffffffffffffffffffffffffffffffff1673ffffffffffffffffffffffffffffffffffffffff16815260200190815260200160002060008373ffffffffffffffffffffffffffffffffffffffff1673ffffffffffffffffffffffffffffffffffffffff16815260200190815260200160002054905092915050565b6000601c60003373ffffffffffffffffffffffffffffffffffffffff1673ffffffffffffffffffffffffffffffffffffffff16815260200190815260200160002054905090565b60065481565b6000612ed9603c6013546134fc90919063ffffffff16565b905090565b60005481565b60008082111515612f83576040517f08c379a000000000000000000000000000000000000000000000000000000000815260040180806020018281038252602c8152602001807f496e76616c696420726571756972656d656e742062203e2030205b205361666581526020017f4d6174682e6469762829205d000000000000000000000000000000000000000081525060400191505060405180910390fd5b8183811515612f8e57fe5b04905092915050565b6000828211151515613037576040517f08c379a000000000000000000000000000000000000000000000000000000000815260040180806020018281038252602d8152602001807f496e76616c696420726571756972656d656e742062203c3d2061205b2053616681526020017f654d6174682e7375622829205d0000000000000000000000000000000000000081525060400191505060405180910390fd5b818303905092915050565b600081830190508281101515156130e7576040517f08c379a000000000000000000000000000000000000000000000000000000000815260040180806020018281038252602d8152602001807f496e76616c696420726571756972656d656e742063203e3d2061205b2053616681526020017f654d6174682e6164642829205d0000000000000000000000000000000000000081525060400191505060405180910390fd5b92915050565b60008060015483856040516020018084600019166000191681526020018373ffffffffffffffffffffffffffffffffffffffff1673ffffffffffffffffffffffffffffffffffffffff166c0100000000000000000000000002815260140182815260200193505050506040516020818303038152906040526040518082805190602001908083835b60208310151561319a5780518252602082019150602081019050602083039250613175565b6001836020036101000a038019825116818451168082178552505050505050905001915050604051809103902091506131d1611abd565b8260019004101515613271576040517f08c379a00000000000000000000000000000000000000000000000000000000081526004018080602001828103825260398152602001807f48617368206c6172676572207468616e20746865206d696e696e67207461726781526020017f6574205b203078546f6b656e426173652e686173682829205d0000000000000081525060400191505060405180910390fd5b601560006001546000191660001916815260200190815260200160002054905081601560006001546000191660001916815260200190815260200160002081600019169055506000600102816000191614151561335c576040517f08c379a00000000000000000000000000000000000000000000000000000000081526004018080602001828103825260398152602001807f536f6c7574696f6e2068617320616c7265616479206265656e2072657761726481526020017f6564205b203078546f6b656e426173652e686173682829205d0000000000000081525060400191505060405180910390fd5b5092915050565b600080600073ffffffffffffffffffffffffffffffffffffffff168373ffffffffffffffffffffffffffffffffffffffff1614151515613431576040517f08c379a00000000000000000000000000000000000000000000000000000000081526004018080602001828103825260388152602001807f496e76616c69642061646472657373206f6620307830205b204162737472616381526020017f744552433931382e6d696e74496e7465726e616c2829205d000000000000000081525060400191505060405180910390fd5b61343b8484611bca565b50613445836135bc565b90508060036000828254019250508190555061345f6135f9565b600581905550600060045460055481151561347657fe5b06141561348757613485613695565b505b8273ffffffffffffffffffffffffffffffffffffffff167fcf6fbb9dcea7d07263ab4f5c3a92f53af33dffc421d9d121e1c74b307e68189d82600554600154604051808481526020018381526020018260001916600019168152602001935050505060405180910390a2600191505092915050565b60008183029050600083148061351c575081838281151561351957fe5b04145b15156135b6576040517f08c379a000000000000000000000000000000000000000000000000000000000815260040180806020018281038252603b8152602001807f496e76616c696420726571756972656d656e742061203d3d2030207c7c20632081526020017f2f2061203d3d2062205b20536166654d6174682e6d756c2829205d000000000081525060400191505060405180910390fd5b92915050565b60006135c78261382b565b90506135f4601f60009054906101000a900473ffffffffffffffffffffffffffffffffffffffff16613a45565b919050565b600060105461361a613609611e32565b60035461304290919063ffffffff16565b11801561362957506027600f54105b1561363b576001600f5401600f819055505b6136586001600f540160020a601454612ee490919063ffffffff16565b60145403601081905550613678600160055461304290919063ffffffff16565b600581905550600143034060018160001916905550600554905090565b600080600080600080600080600d544303965060045495506008548602945084871015613757576136e3876136d5600954886134fc90919063ffffffff16565b612ee490919063ffffffff16565b935061370d600b546136ff606487612f9790919063ffffffff16565b613ac490919063ffffffff16565b925061374c61373b8461372d600a54600254612ee490919063ffffffff16565b6134fc90919063ffffffff16565b600254612f9790919063ffffffff16565b6002819055506137ee565b61377e856137706009548a6134fc90919063ffffffff16565b612ee490919063ffffffff16565b91506137a8600b5461379a606485612f9790919063ffffffff16565b613ac490919063ffffffff16565b90506137e76137d6826137c8600a54600254612ee490919063ffffffff16565b6134fc90919063ffffffff16565b60025461304290919063ffffffff16565b6002819055505b43600d81905550600654600254101561380b576006546002819055505b6007546002541115613821576007546002819055505b5050505050505090565b6000806138378361201b565b9050600081111561392457601b60009054906101000a900473ffffffffffffffffffffffffffffffffffffffff1673ffffffffffffffffffffffffffffffffffffffff1663912ca8b482613889611e32565b6040518363ffffffff167c01000000000000000000000000000000000000000000000000000000000281526004018083815260200182815260200192505050602060405180830381600087803b1580156138e257600080fd5b505af11580156138f6573d6000803e3d6000fd5b505050506040513d602081101561390c57600080fd5b8101908080519060200190929190505050915061392f565b61392c611e32565b91505b61398182601960003373ffffffffffffffffffffffffffffffffffffffff1673ffffffffffffffffffffffffffffffffffffffff1681526020019081526020016000205461304290919063ffffffff16565b601960003373ffffffffffffffffffffffffffffffffffffffff1673ffffffffffffffffffffffffffffffffffffffff168152602001908152602001600020819055507ff9b6ec770c96c3a6f9225bf3a8463a8ad03e884448af07b4ecd4d19d628946ee3383604051808373ffffffffffffffffffffffffffffffffffffffff1673ffffffffffffffffffffffffffffffffffffffff1681526020018281526020019250505060405180910390a160105460035411151515613a3f57fe5b50919050565b8073ffffffffffffffffffffffffffffffffffffffff1663d96a54846040518163ffffffff167c0100000000000000000000000000000000000000000000000000000000028152600401600060405180830381600087803b158015613aa957600080fd5b505af1158015613abd573d6000803e3d6000fd5b5050505050565b600081831115613ad657819050613ada565b8290505b92915050565b828054600181600116156101000203166002900490600052602060002090601f016020900481019282601f10613b2157805160ff1916838001178555613b4f565b82800160010185558215613b4f579182015b82811115613b4e578251825591602001919060010190613b33565b5b509050613b5c9190613b60565b5090565b613b8291905b80821115613b7e576000816000905550600101613b66565b5090565b90565b85600c60006101000a81548160ff021916908360ff160217905550600c60009054906101000a900460ff1660ff16600a0a870260148190555084600e81905550836004819055508060169080519060200190613be2929190613ae0565b5060006003819055506000600f81905550613c096002601454612ee490919063ffffffff16565b60108190555060008311613c1f57600754613c35565b613c3483600754612ee490919063ffffffff16565b5b6002819055506007546002541115613c51576007546002819055505b81601381905550613c6d601254836134fc90919063ffffffff16565b60088190555043600d819055507f9fe0c082b16266c8b1db93ac25bb95cc43ebbc1770fd4e8bbfb96a8ee93a0b118787878786604051808681526020018560ff1660ff1681526020018481526020018381526020018281526020019550505050505060405180910390a1613cdf6135f9565b50505050505050505600a165627a7a72305820a41e83fc52eb67982e77b7c1e8926dda30d2d27890089926b4e4e45f77d25a8f0029",
  "source": "pragma solidity ^0.4.24;\n\nimport \"./BoostableMineableToken.sol\";\nimport \"./Antigasable.sol\";\nimport \"./InitializeOnce.sol\";\n\n/**\n * The MineableToken contract is contract that provides the functionality to create a new ERC20, ERC918 \n * compliant Mineable Token that issues anti-gas rebates.\n *\n * author: lodge (https://github.com/jlogelin)\n *\n */\ncontract MineableToken is BoostableMineableToken, Antigasable, InitializeOnce {\n\n    using SafeMath for uint;\n    \n    address public mithrilTokenAddress;\n\n    address public mithrilQuarryAddress;\n        \n    /**\n     * Constructor function\n     *\n     * Initializes contract with a target booster contract address, a quarry address, the 0xMithril token\n     * address and all required ERC20, ERC918 fields\n     *\n     * @param _mithrilTokenAddress the address of the ERC20/ERC918 0xMithril Token\n     * @param _mithrilQuarryAddress the address of the Mithril Quarry\n     * @param _boosterAddress the address of the ERC721 base artifact\n     * @param _symbol the symbol of the token\n     * @param _name the name of the token\n     * @param _decimals the number of decimal places of the token\n     * @param _supply the initial supply of the token\n     * @param _reward the initial reward of the token\n     * @param _adjustmentBlockCount the number of mint blocks per difficulty adjustment\n     * @param _initialDifficulty the initial difficulty of the token\n     * @param _blockTimeInMinutes the target block time in minutes of the token\n     * @param _metadataURI optional URI containing ERC918 Token Metadata\n     */\n    constructor(address _mithrilTokenAddress, address _mithrilQuarryAddress, address _boosterAddress, \n                string _symbol, string _name, uint8 _decimals, uint _supply, uint _reward, \n                uint _adjustmentBlockCount, uint _initialDifficulty, uint _blockTimeInMinutes, string _metadataURI) \n        BoostableMineableToken(_boosterAddress)\n        ERC20Mineable(_symbol, _name, _decimals, _supply, _reward, _adjustmentBlockCount, _initialDifficulty, _blockTimeInMinutes, _metadataURI)\n        public\n    {\n        symbol = _symbol;\n        name = _name;\n        mithrilTokenAddress = _mithrilTokenAddress;\n        mithrilQuarryAddress = _mithrilQuarryAddress;\n    }\n\n    function setMetadataURI(string _metadataURI) public initializeOnce {\n        metadataURI = _metadataURI;\n    }\n\n    /**\n     * _reward function\n     *\n     * Internal function that overrides ERC918 _reward function that rewards an additional\n     * 0xMithril gas rebate.\n     * \n     */\n    function _reward(address _minter) internal returns (uint amount) {\n        amount = super._reward(_minter);\n        rewardAntigas(mithrilQuarryAddress);\n    }\n    \n}",
  "sourcePath": "/Users/logelj1/Documents/playground/0xMithril/mithril-repo/0xmithriltoken/contracts/MineableToken.sol",
  "compiler": {
    "name": "solc",
    "version": "0.4.24+commit.e67f0147.Emscripten.clang"
  },
  "schemaVersion": "3.0.3",
  "updatedAt": "2019-04-06T00:29:22.819Z",
  "devdoc": {
    "methods": {
      "delegatedMint(uint256,address,bytes)": {
        "params": {
          "_nonce": "the golden nonce",
          "_origin": "the original minter",
          "_signature": "the original minter's eliptical curve signature"
        }
      },
      "delegatedMintHashing(uint256,address)": {
        "params": {
          "_nonce": "the golden nonce",
          "_origin": "the original minter"
        }
      },
      "installBooster(uint256)": {
        "params": {
          "_boosterId": "the artifact id of the base booster"
        }
      },
      "recover(bytes32,bytes)": {
        "details": "Recover signer address from a message by using their signature",
        "params": {
          "hash": "bytes32 message, the hash is the signed message. What is recovered is the signer address.",
          "signature": "bytes signature, the signature is generated using web3.eth.sign()"
        }
      },
      "toEthSignedMessageHash(bytes32)": {
        "details": "prefix a bytes32 value with \"\\x19Ethereum Signed Message:\" and hash the result"
      }
    }
  },
  "userdoc": {
    "methods": {
      "delegatedMint(uint256,address,bytes)": {
        "notice": "Hash (keccak256) of the payload used by delegatedMint"
      },
      "delegatedMintHashing(uint256,address)": {
        "notice": "Hash (keccak256) of the payload used by delegatedMint"
      },
      "getInstalledBooster()": {
        "notice": "getInstalledBooster function     * Public view function that returns the id of the installed booster of the sender     "
      },
      "getInstalledBoosterFor(address)": {
        "notice": "getInstalledBooster function     * Public view function that returns the id of the installed booster of the sender     "
      },
      "getMiningTarget()": {
        "notice": "getMiningTarget function     * Inherits from ERC918 getMiningTarget and additionally returns the difficulty  target depending on the combined virtual hash power of the attached booster, if any.     "
      },
      "hash(uint256,address)": {
        "notice": "hash function     * Inherits from ERC918 hash and additionally adjusts difficulty depending on the combined virtual hash power of the attached booster, if any.     "
      },
      "installBooster(uint256)": {
        "notice": "installBooster function     * Public function that installs a base booster (Virtual Rig, for example) to this mining contract. Note that there can only be one booster per contract installed."
      },
      "metadataURI()": {
        "notice": "A distinct Uniform Resource Identifier (URI) for a mineable asset."
      },
      "toEthSignedMessageHash(bytes32)": {
        "notice": "toEthSignedMessageHash"
      },
      "uninstallBooster()": {
        "notice": "uninstallBooster function     * Public function that uninstalls the base booster (Virtual Rig, for example) from this mining contract. Note that there can only be one booster per contract installed.     "
      }
    }
  }
}