{
  "contractName": "MineableToken",
  "abi": [
    {
      "constant": true,
      "inputs": [],
      "name": "MAXIMUM_TARGET",
      "outputs": [
        {
          "name": "",
          "type": "uint256"
        }
      ],
      "payable": false,
      "stateMutability": "view",
      "type": "function"
    },
    {
      "constant": true,
      "inputs": [],
      "name": "name",
      "outputs": [
        {
          "name": "",
          "type": "string"
        }
      ],
      "payable": false,
      "stateMutability": "view",
      "type": "function"
    },
    {
      "constant": true,
      "inputs": [],
      "name": "TARGET_DIVISOR",
      "outputs": [
        {
          "name": "",
          "type": "uint256"
        }
      ],
      "payable": false,
      "stateMutability": "view",
      "type": "function"
    },
    {
      "constant": false,
      "inputs": [
        {
          "name": "spender",
          "type": "address"
        },
        {
          "name": "tokens",
          "type": "uint256"
        }
      ],
      "name": "approve",
      "outputs": [
        {
          "name": "success",
          "type": "bool"
        }
      ],
      "payable": false,
      "stateMutability": "nonpayable",
      "type": "function"
    },
    {
      "constant": true,
      "inputs": [],
      "name": "getMiningDifficulty",
      "outputs": [
        {
          "name": "",
          "type": "uint256"
        }
      ],
      "payable": false,
      "stateMutability": "view",
      "type": "function"
    },
    {
      "constant": false,
      "inputs": [
        {
          "name": "nonce",
          "type": "uint256"
        },
        {
          "name": "challenge_digest",
          "type": "bytes32"
        }
      ],
      "name": "mint",
      "outputs": [
        {
          "name": "success",
          "type": "bool"
        }
      ],
      "payable": false,
      "stateMutability": "nonpayable",
      "type": "function"
    },
    {
      "constant": true,
      "inputs": [],
      "name": "totalSupply",
      "outputs": [
        {
          "name": "",
          "type": "uint256"
        }
      ],
      "payable": false,
      "stateMutability": "view",
      "type": "function"
    },
    {
      "constant": true,
      "inputs": [],
      "name": "MAX_ADJUSTMENT_PERCENT",
      "outputs": [
        {
          "name": "",
          "type": "uint256"
        }
      ],
      "payable": false,
      "stateMutability": "view",
      "type": "function"
    },
    {
      "constant": false,
      "inputs": [
        {
          "name": "from",
          "type": "address"
        },
        {
          "name": "to",
          "type": "address"
        },
        {
          "name": "tokens",
          "type": "uint256"
        }
      ],
      "name": "transferFrom",
      "outputs": [
        {
          "name": "success",
          "type": "bool"
        }
      ],
      "payable": false,
      "stateMutability": "nonpayable",
      "type": "function"
    },
    {
      "constant": false,
      "inputs": [],
      "name": "uninstallBooster",
      "outputs": [],
      "payable": false,
      "stateMutability": "nonpayable",
      "type": "function"
    },
    {
      "constant": true,
      "inputs": [],
      "name": "rewardEra",
      "outputs": [
        {
          "name": "",
          "type": "uint256"
        }
      ],
      "payable": false,
      "stateMutability": "view",
      "type": "function"
    },
    {
      "constant": true,
      "inputs": [],
      "name": "decimals",
      "outputs": [
        {
          "name": "",
          "type": "uint8"
        }
      ],
      "payable": false,
      "stateMutability": "view",
      "type": "function"
    },
    {
      "constant": true,
      "inputs": [],
      "name": "getMiningTarget",
      "outputs": [
        {
          "name": "",
          "type": "uint256"
        }
      ],
      "payable": false,
      "stateMutability": "view",
      "type": "function"
    },
    {
      "constant": true,
      "inputs": [],
      "name": "MINING_RATE_FACTOR",
      "outputs": [
        {
          "name": "",
          "type": "uint256"
        }
      ],
      "payable": false,
      "stateMutability": "view",
      "type": "function"
    },
    {
      "constant": true,
      "inputs": [],
      "name": "_totalSupply",
      "outputs": [
        {
          "name": "",
          "type": "uint256"
        }
      ],
      "payable": false,
      "stateMutability": "view",
      "type": "function"
    },
    {
      "constant": true,
      "inputs": [],
      "name": "MAX_REWARD_ERA",
      "outputs": [
        {
          "name": "",
          "type": "uint256"
        }
      ],
      "payable": false,
      "stateMutability": "view",
      "type": "function"
    },
    {
      "constant": true,
      "inputs": [],
      "name": "getMiningReward",
      "outputs": [
        {
          "name": "",
          "type": "uint256"
        }
      ],
      "payable": false,
      "stateMutability": "view",
      "type": "function"
    },
    {
      "constant": true,
      "inputs": [],
      "name": "getChallengeNumber",
      "outputs": [
        {
          "name": "",
          "type": "bytes32"
        }
      ],
      "payable": false,
      "stateMutability": "view",
      "type": "function"
    },
    {
      "constant": true,
      "inputs": [],
      "name": "maxSupplyForEra",
      "outputs": [
        {
          "name": "",
          "type": "uint256"
        }
      ],
      "payable": false,
      "stateMutability": "view",
      "type": "function"
    },
    {
      "constant": true,
      "inputs": [],
      "name": "baseMiningReward",
      "outputs": [
        {
          "name": "",
          "type": "uint256"
        }
      ],
      "payable": false,
      "stateMutability": "view",
      "type": "function"
    },
    {
      "constant": false,
      "inputs": [
        {
          "name": "to",
          "type": "address"
        },
        {
          "name": "tokens",
          "type": "uint256"
        }
      ],
      "name": "transferFromOrigin",
      "outputs": [
        {
          "name": "success",
          "type": "bool"
        }
      ],
      "payable": false,
      "stateMutability": "nonpayable",
      "type": "function"
    },
    {
      "constant": true,
      "inputs": [],
      "name": "mithrilQuarryAddress",
      "outputs": [
        {
          "name": "",
          "type": "address"
        }
      ],
      "payable": false,
      "stateMutability": "view",
      "type": "function"
    },
    {
      "constant": true,
      "inputs": [],
      "name": "tokensMinted",
      "outputs": [
        {
          "name": "",
          "type": "uint256"
        }
      ],
      "payable": false,
      "stateMutability": "view",
      "type": "function"
    },
    {
      "constant": true,
      "inputs": [
        {
          "name": "tokenOwner",
          "type": "address"
        }
      ],
      "name": "balanceOf",
      "outputs": [
        {
          "name": "balance",
          "type": "uint256"
        }
      ],
      "payable": false,
      "stateMutability": "view",
      "type": "function"
    },
    {
      "constant": true,
      "inputs": [],
      "name": "blockTimeInMinutes",
      "outputs": [
        {
          "name": "",
          "type": "uint256"
        }
      ],
      "payable": false,
      "stateMutability": "view",
      "type": "function"
    },
    {
      "constant": true,
      "inputs": [],
      "name": "epochCount",
      "outputs": [
        {
          "name": "",
          "type": "uint256"
        }
      ],
      "payable": false,
      "stateMutability": "view",
      "type": "function"
    },
    {
      "constant": true,
      "inputs": [],
      "name": "miningTarget",
      "outputs": [
        {
          "name": "",
          "type": "uint256"
        }
      ],
      "payable": false,
      "stateMutability": "view",
      "type": "function"
    },
    {
      "constant": true,
      "inputs": [],
      "name": "challengeNumber",
      "outputs": [
        {
          "name": "",
          "type": "bytes32"
        }
      ],
      "payable": false,
      "stateMutability": "view",
      "type": "function"
    },
    {
      "constant": true,
      "inputs": [],
      "name": "symbol",
      "outputs": [
        {
          "name": "",
          "type": "string"
        }
      ],
      "payable": false,
      "stateMutability": "view",
      "type": "function"
    },
    {
      "constant": false,
      "inputs": [
        {
          "name": "nonce",
          "type": "uint256"
        }
      ],
      "name": "mint",
      "outputs": [
        {
          "name": "success",
          "type": "bool"
        }
      ],
      "payable": false,
      "stateMutability": "nonpayable",
      "type": "function"
    },
    {
      "constant": false,
      "inputs": [
        {
          "name": "to",
          "type": "address"
        },
        {
          "name": "tokens",
          "type": "uint256"
        }
      ],
      "name": "transfer",
      "outputs": [
        {
          "name": "success",
          "type": "bool"
        }
      ],
      "payable": false,
      "stateMutability": "nonpayable",
      "type": "function"
    },
    {
      "constant": true,
      "inputs": [],
      "name": "boosterAddress",
      "outputs": [
        {
          "name": "",
          "type": "address"
        }
      ],
      "payable": false,
      "stateMutability": "view",
      "type": "function"
    },
    {
      "constant": true,
      "inputs": [],
      "name": "QUOTIENT_LIMIT",
      "outputs": [
        {
          "name": "",
          "type": "uint256"
        }
      ],
      "payable": false,
      "stateMutability": "view",
      "type": "function"
    },
    {
      "constant": true,
      "inputs": [],
      "name": "ETHER_BLOCKS_PER_MINUTE",
      "outputs": [
        {
          "name": "",
          "type": "uint256"
        }
      ],
      "payable": false,
      "stateMutability": "view",
      "type": "function"
    },
    {
      "constant": false,
      "inputs": [
        {
          "name": "nonce",
          "type": "uint256"
        }
      ],
      "name": "hash",
      "outputs": [
        {
          "name": "digest",
          "type": "bytes32"
        }
      ],
      "payable": false,
      "stateMutability": "nonpayable",
      "type": "function"
    },
    {
      "constant": true,
      "inputs": [
        {
          "name": "",
          "type": "address"
        }
      ],
      "name": "installedBoosters",
      "outputs": [
        {
          "name": "",
          "type": "uint256"
        }
      ],
      "payable": false,
      "stateMutability": "view",
      "type": "function"
    },
    {
      "constant": false,
      "inputs": [
        {
          "name": "_boosterId",
          "type": "uint256"
        }
      ],
      "name": "installBooster",
      "outputs": [],
      "payable": false,
      "stateMutability": "nonpayable",
      "type": "function"
    },
    {
      "constant": true,
      "inputs": [],
      "name": "mithrilTokenAddress",
      "outputs": [
        {
          "name": "",
          "type": "address"
        }
      ],
      "payable": false,
      "stateMutability": "view",
      "type": "function"
    },
    {
      "constant": false,
      "inputs": [
        {
          "name": "spender",
          "type": "address"
        },
        {
          "name": "tokens",
          "type": "uint256"
        },
        {
          "name": "data",
          "type": "bytes"
        }
      ],
      "name": "approveAndCall",
      "outputs": [
        {
          "name": "success",
          "type": "bool"
        }
      ],
      "payable": false,
      "stateMutability": "nonpayable",
      "type": "function"
    },
    {
      "constant": true,
      "inputs": [],
      "name": "latestDifficultyPeriodStarted",
      "outputs": [
        {
          "name": "",
          "type": "uint256"
        }
      ],
      "payable": false,
      "stateMutability": "view",
      "type": "function"
    },
    {
      "constant": true,
      "inputs": [],
      "name": "blocksPerReadjustment",
      "outputs": [
        {
          "name": "",
          "type": "uint256"
        }
      ],
      "payable": false,
      "stateMutability": "view",
      "type": "function"
    },
    {
      "constant": true,
      "inputs": [
        {
          "name": "tokenOwner",
          "type": "address"
        },
        {
          "name": "spender",
          "type": "address"
        }
      ],
      "name": "allowance",
      "outputs": [
        {
          "name": "remaining",
          "type": "uint256"
        }
      ],
      "payable": false,
      "stateMutability": "view",
      "type": "function"
    },
    {
      "constant": true,
      "inputs": [],
      "name": "getInstalledBooster",
      "outputs": [
        {
          "name": "",
          "type": "uint256"
        }
      ],
      "payable": false,
      "stateMutability": "view",
      "type": "function"
    },
    {
      "constant": true,
      "inputs": [],
      "name": "MINIMUM_TARGET",
      "outputs": [
        {
          "name": "",
          "type": "uint256"
        }
      ],
      "payable": false,
      "stateMutability": "view",
      "type": "function"
    },
    {
      "constant": true,
      "inputs": [],
      "name": "getAdjustmentInterval",
      "outputs": [
        {
          "name": "",
          "type": "uint256"
        }
      ],
      "payable": false,
      "stateMutability": "view",
      "type": "function"
    },
    {
      "constant": true,
      "inputs": [],
      "name": "adjustmentInterval",
      "outputs": [
        {
          "name": "",
          "type": "uint256"
        }
      ],
      "payable": false,
      "stateMutability": "view",
      "type": "function"
    },
    {
      "constant": false,
      "inputs": [
        {
          "name": "nonce",
          "type": "uint256"
        },
        {
          "name": "mineTokens",
          "type": "address[]"
        }
      ],
      "name": "merge",
      "outputs": [
        {
          "name": "",
          "type": "bool"
        }
      ],
      "payable": false,
      "stateMutability": "nonpayable",
      "type": "function"
    },
    {
      "inputs": [
        {
          "name": "_mithrilTokenAddress",
          "type": "address"
        },
        {
          "name": "_mithrilQuarryAddress",
          "type": "address"
        },
        {
          "name": "_boosterAddress",
          "type": "address"
        },
        {
          "name": "_symbol",
          "type": "string"
        },
        {
          "name": "_name",
          "type": "string"
        },
        {
          "name": "_decimals",
          "type": "uint8"
        },
        {
          "name": "_supply",
          "type": "uint256"
        },
        {
          "name": "_reward",
          "type": "uint256"
        },
        {
          "name": "_adjustmentBlockCount",
          "type": "uint256"
        },
        {
          "name": "_initialDifficulty",
          "type": "uint256"
        },
        {
          "name": "_blockTimeInMinutes",
          "type": "uint256"
        }
      ],
      "payable": false,
      "stateMutability": "nonpayable",
      "type": "constructor"
    },
    {
      "payable": true,
      "stateMutability": "payable",
      "type": "fallback"
    },
    {
      "anonymous": false,
      "inputs": [
        {
          "indexed": true,
          "name": "from",
          "type": "address"
        },
        {
          "indexed": true,
          "name": "to",
          "type": "address"
        },
        {
          "indexed": false,
          "name": "tokens",
          "type": "uint256"
        }
      ],
      "name": "Transfer",
      "type": "event"
    },
    {
      "anonymous": false,
      "inputs": [
        {
          "indexed": true,
          "name": "tokenOwner",
          "type": "address"
        },
        {
          "indexed": true,
          "name": "spender",
          "type": "address"
        },
        {
          "indexed": false,
          "name": "tokens",
          "type": "uint256"
        }
      ],
      "name": "Approval",
      "type": "event"
    },
    {
      "anonymous": false,
      "inputs": [
        {
          "indexed": false,
          "name": "initialSupply",
          "type": "uint256"
        },
        {
          "indexed": false,
          "name": "tokenDecimals",
          "type": "uint8"
        },
        {
          "indexed": false,
          "name": "initialReward",
          "type": "uint256"
        },
        {
          "indexed": false,
          "name": "blocksPerDifficultyAdjustment",
          "type": "uint256"
        },
        {
          "indexed": false,
          "name": "blockTimeInMinutes",
          "type": "uint256"
        }
      ],
      "name": "TokenBaseInitialize",
      "type": "event"
    },
    {
      "anonymous": false,
      "inputs": [
        {
          "indexed": true,
          "name": "from",
          "type": "address"
        },
        {
          "indexed": false,
          "name": "reward_amount",
          "type": "uint256"
        },
        {
          "indexed": false,
          "name": "epochCount",
          "type": "uint256"
        },
        {
          "indexed": false,
          "name": "newChallengeNumber",
          "type": "bytes32"
        }
      ],
      "name": "Mint",
      "type": "event"
    }
  ],
  "bytecode": "0x6080604052610258600055620100006006557d04000000000000000000000000000000000000000000000000000000000060075560646009556107d0600a55620000646002600a546200027864010000000002620023ab179091906401000000009004565b600b55602760115560066012553480156200007e57600080fd5b506040516200321a3803806200321a833981018060405281019080805190602001909291908051906020019092919080519060200190929190805182019291906020018051820192919060200180519060200190929190805190602001909291908051906020019092919080519060200190929190805190602001909291908051906020019092919050505088888888888888888887601690805190602001906200012b929190620005a6565b50866017908051906020019062000144929190620005a6565b50620001698587868686866200029e6401000000000262002a3d176401000000009004565b505050505050505080601a60006101000a81548173ffffffffffffffffffffffffffffffffffffffff021916908373ffffffffffffffffffffffffffffffffffffffff160217905550508760169080519060200190620001cb929190620005a6565b508660179080519060200190620001e4929190620005a6565b508a601c60006101000a81548173ffffffffffffffffffffffffffffffffffffffff021916908373ffffffffffffffffffffffffffffffffffffffff16021790555089601d60006101000a81548173ffffffffffffffffffffffffffffffffffffffff021916908373ffffffffffffffffffffffffffffffffffffffff160217905550505050505050505050505062000655565b600080821115156200028957600080fd5b81838115156200029557fe5b04905092915050565b84600c60006101000a81548160ff021916908360ff160217905550600c60009054906101000a900460ff1660ff16600a0a860260148190555083600e819055508260048190555060006003819055506000600f819055506200031b60026014546200027864010000000002620023ab179091906401000000009004565b60108190555060008211620003335760075462000359565b62000358826007546200027864010000000002620023ab179091906401000000009004565b5b600281905550600754600254111562000376576007546002819055505b80601381905550620003a2601254826200042e64010000000002620027c4179091906401000000009004565b60088190555043600d819055507f9fe0c082b16266c8b1db93ac25bb95cc43ebbc1770fd4e8bbfb96a8ee93a0b118686868685604051808681526020018560ff1660ff1681526020018481526020018381526020018281526020019550505050505060405180910390a16200042562000462640100000000026401000000009004565b50505050505050565b6000818302905060008314806200045057508183828115156200044d57fe5b04145b15156200045c57600080fd5b92915050565b6000601054620004a46200048462000541640100000000026401000000009004565b6003546200058964010000000002620023eb179091906401000000009004565b118015620004b457506027600f54105b15620004c7576001600f5401600f819055505b620004f46001600f540160020a6014546200027864010000000002620023ab179091906401000000009004565b601454036010819055506200052460016005546200058964010000000002620023eb179091906401000000009004565b600581905550600143034060018160001916905550600554905090565b600062000584600f5460020a600c60009054906101000a900460ff1660ff16600a0a600e54026200027864010000000002620023ab179091906401000000009004565b905090565b60008183019050828110151515620005a057600080fd5b92915050565b828054600181600116156101000203166002900490600052602060002090601f016020900481019282601f10620005e957805160ff19168380011785556200061a565b828001600101855582156200061a579182015b8281111562000619578251825591602001919060010190620005fc565b5b5090506200062991906200062d565b5090565b6200065291905b808211156200064e57600081600090555060010162000634565b5090565b90565b612bb580620006656000396000f30060806040526004361061023b576000357c0100000000000000000000000000000000000000000000000000000000900463ffffffff168063031052f31461024057806306fdde031461026b578063095b6d4c146102fb578063095ea7b31461032657806317da485f1461038b5780631801fbe5146103b657806318160ddd146104095780631beddf1c1461043457806323b872dd1461045f5780632c23784e146104e45780632d38bf7a146104fb578063313ce5671461052657806332e99708146105575780633426e5f5146105825780633eaaf86b146105ad57806346eed3f3146105d8578063490203a7146106035780634ef376281461062e5780634fa972e11461066157806354bcb1641461068c5780635c6bcad4146106b7578063662f45be1461071c5780636de9f32b1461077357806370a082311461079e5780637f8a66e5146107f5578063829965cc146108205780638a769d351461084b5780638ae0368b1461087657806395d89b41146108a9578063a0712d6814610939578063a9059cbb1461097e578063a99c308b146109e3578063ad1dfe3b14610a3a578063b0fe89db14610a65578063b189fd4c14610a90578063b5e4303d14610ad9578063c0ae084714610b30578063c5b16cc314610b5d578063cae9ca5114610bb4578063cb9ae70714610c5f578063d87b8fcb14610c8a578063dd62ed3e14610cb5578063ed30123514610d2c578063f77e180e14610d57578063f798754614610d82578063fa4d4d8b14610dad578063ffd43c7f14610dd8575b600080fd5b34801561024c57600080fd5b50610255610e60565b6040518082815260200191505060405180910390f35b34801561027757600080fd5b50610280610e66565b6040518080602001828103825283818151815260200191508051906020019080838360005b838110156102c05780820151818401526020810190506102a5565b50505050905090810190601f1680156102ed5780820380516001836020036101000a031916815260200191505b509250505060405180910390f35b34801561030757600080fd5b50610310610f04565b6040518082815260200191505060405180910390f35b34801561033257600080fd5b50610371600480360381019080803573ffffffffffffffffffffffffffffffffffffffff16906020019092919080359060200190929190505050610f0a565b604051808215151515815260200191505060405180910390f35b34801561039757600080fd5b506103a0610ffc565b6040518082815260200191505060405180910390f35b3480156103c257600080fd5b506103ef60048036038101908080359060200190929190803560001916906020019092919050505061101f565b604051808215151515815260200191505060405180910390f35b34801561041557600080fd5b5061041e61124f565b6040518082815260200191505060405180910390f35b34801561044057600080fd5b5061044961129a565b6040518082815260200191505060405180910390f35b34801561046b57600080fd5b506104ca600480360381019080803573ffffffffffffffffffffffffffffffffffffffff169060200190929190803573ffffffffffffffffffffffffffffffffffffffff169060200190929190803590602001909291905050506112a0565b604051808215151515815260200191505060405180910390f35b3480156104f057600080fd5b506104f961154b565b005b34801561050757600080fd5b50610510611590565b6040518082815260200191505060405180910390f35b34801561053257600080fd5b5061053b611596565b604051808260ff1660ff16815260200191505060405180910390f35b34801561056357600080fd5b5061056c6115a9565b6040518082815260200191505060405180910390f35b34801561058e57600080fd5b506105976116a6565b6040518082815260200191505060405180910390f35b3480156105b957600080fd5b506105c26116ac565b6040518082815260200191505060405180910390f35b3480156105e457600080fd5b506105ed6116b2565b6040518082815260200191505060405180910390f35b34801561060f57600080fd5b506106186116b8565b6040518082815260200191505060405180910390f35b34801561063a57600080fd5b506106436116f0565b60405180826000191660001916815260200191505060405180910390f35b34801561066d57600080fd5b506106766116fa565b6040518082815260200191505060405180910390f35b34801561069857600080fd5b506106a1611700565b6040518082815260200191505060405180910390f35b3480156106c357600080fd5b50610702600480360381019080803573ffffffffffffffffffffffffffffffffffffffff16906020019092919080359060200190929190505050611706565b604051808215151515815260200191505060405180910390f35b34801561072857600080fd5b506107316118a1565b604051808273ffffffffffffffffffffffffffffffffffffffff1673ffffffffffffffffffffffffffffffffffffffff16815260200191505060405180910390f35b34801561077f57600080fd5b506107886118c7565b6040518082815260200191505060405180910390f35b3480156107aa57600080fd5b506107df600480360381019080803573ffffffffffffffffffffffffffffffffffffffff1690602001909291905050506118cd565b6040518082815260200191505060405180910390f35b34801561080157600080fd5b5061080a611916565b6040518082815260200191505060405180910390f35b34801561082c57600080fd5b5061083561191c565b6040518082815260200191505060405180910390f35b34801561085757600080fd5b50610860611922565b6040518082815260200191505060405180910390f35b34801561088257600080fd5b5061088b611928565b60405180826000191660001916815260200191505060405180910390f35b3480156108b557600080fd5b506108be61192e565b6040518080602001828103825283818151815260200191508051906020019080838360005b838110156108fe5780820151818401526020810190506108e3565b50505050905090810190601f16801561092b5780820380516001836020036101000a031916815260200191505b509250505060405180910390f35b34801561094557600080fd5b50610964600480360381019080803590602001909291905050506119cc565b604051808215151515815260200191505060405180910390f35b34801561098a57600080fd5b506109c9600480360381019080803573ffffffffffffffffffffffffffffffffffffffff16906020019092919080359060200190929190505050611ad3565b604051808215151515815260200191505060405180910390f35b3480156109ef57600080fd5b506109f8611c6e565b604051808273ffffffffffffffffffffffffffffffffffffffff1673ffffffffffffffffffffffffffffffffffffffff16815260200191505060405180910390f35b348015610a4657600080fd5b50610a4f611c94565b6040518082815260200191505060405180910390f35b348015610a7157600080fd5b50610a7a611c9a565b6040518082815260200191505060405180910390f35b348015610a9c57600080fd5b50610abb60048036038101908080359060200190929190505050611ca0565b60405180826000191660001916815260200191505060405180910390f35b348015610ae557600080fd5b50610b1a600480360381019080803573ffffffffffffffffffffffffffffffffffffffff169060200190929190505050611ec7565b6040518082815260200191505060405180910390f35b348015610b3c57600080fd5b50610b5b60048036038101908080359060200190929190505050611edf565b005b348015610b6957600080fd5b50610b7261202b565b604051808273ffffffffffffffffffffffffffffffffffffffff1673ffffffffffffffffffffffffffffffffffffffff16815260200191505060405180910390f35b348015610bc057600080fd5b50610c45600480360381019080803573ffffffffffffffffffffffffffffffffffffffff16906020019092919080359060200190929190803590602001908201803590602001908080601f0160208091040260200160405190810160405280939291908181526020018383808284378201915050505050509192919290505050612051565b604051808215151515815260200191505060405180910390f35b348015610c6b57600080fd5b50610c746122a0565b6040518082815260200191505060405180910390f35b348015610c9657600080fd5b50610c9f6122a6565b6040518082815260200191505060405180910390f35b348015610cc157600080fd5b50610d16600480360381019080803573ffffffffffffffffffffffffffffffffffffffff169060200190929190803573ffffffffffffffffffffffffffffffffffffffff1690602001909291905050506122ac565b6040518082815260200191505060405180910390f35b348015610d3857600080fd5b50610d41612333565b6040518082815260200191505060405180910390f35b348015610d6357600080fd5b50610d6c61237a565b6040518082815260200191505060405180910390f35b348015610d8e57600080fd5b50610d97612380565b6040518082815260200191505060405180910390f35b348015610db957600080fd5b50610dc261239d565b6040518082815260200191505060405180910390f35b348015610de457600080fd5b50610e4660048036038101908080359060200190929190803590602001908201803590602001908080602002602001604051908101604052809392919081815260200183836020028082843782019150505050505091929192905050506123a3565b604051808215151515815260200191505060405180910390f35b60075481565b60178054600181600116156101000203166002900480601f016020809104026020016040519081016040528092919081815260200182805460018160011615610100020316600290048015610efc5780601f10610ed157610100808354040283529160200191610efc565b820191906000526020600020905b815481529060010190602001808311610edf57829003601f168201915b505050505081565b600a5481565b600081601960003373ffffffffffffffffffffffffffffffffffffffff1673ffffffffffffffffffffffffffffffffffffffff16815260200190815260200160002060008573ffffffffffffffffffffffffffffffffffffffff1673ffffffffffffffffffffffffffffffffffffffff168152602001908152602001600020819055508273ffffffffffffffffffffffffffffffffffffffff163373ffffffffffffffffffffffffffffffffffffffff167f8c5be1e5ebec7d5bd14f71427d1e84f3dd0314c0f7b2291e5b200ac8c7c3b925846040518082815260200191505060405180910390a36001905092915050565b600061101a6110096115a9565b6007546123ab90919063ffffffff16565b905090565b600080306001543386604051808573ffffffffffffffffffffffffffffffffffffffff1673ffffffffffffffffffffffffffffffffffffffff166c0100000000000000000000000002815260140184600019166000191681526020018373ffffffffffffffffffffffffffffffffffffffff1673ffffffffffffffffffffffffffffffffffffffff166c01000000000000000000000000028152601401828152602001945050505050604051809103902090508260001916816000191614151561119d576040517f08c379a00000000000000000000000000000000000000000000000000000000081526004018080602001828103825260418152602001807f4368616c6c656e67652064696765737420646f6573206e6f74206d617463682081526020017f657870656374656420646967657374206f6e20746f6b656e20636f6e7472616381526020017f740000000000000000000000000000000000000000000000000000000000000081525060600191505060405180910390fd5b3073ffffffffffffffffffffffffffffffffffffffff1663a0712d68856040518263ffffffff167c010000000000000000000000000000000000000000000000000000000002815260040180828152602001915050602060405180830381600087803b15801561120c57600080fd5b505af1158015611220573d6000803e3d6000fd5b505050506040513d602081101561123657600080fd5b8101908080519060200190929190505050505092915050565b6000601860008073ffffffffffffffffffffffffffffffffffffffff1673ffffffffffffffffffffffffffffffffffffffff1681526020019081526020016000205460145403905090565b60095481565b60006112f482601860008773ffffffffffffffffffffffffffffffffffffffff1673ffffffffffffffffffffffffffffffffffffffff168152602001908152602001600020546123cf90919063ffffffff16565b601860008673ffffffffffffffffffffffffffffffffffffffff1673ffffffffffffffffffffffffffffffffffffffff168152602001908152602001600020819055506113c682601960008773ffffffffffffffffffffffffffffffffffffffff1673ffffffffffffffffffffffffffffffffffffffff16815260200190815260200160002060003373ffffffffffffffffffffffffffffffffffffffff1673ffffffffffffffffffffffffffffffffffffffff168152602001908152602001600020546123cf90919063ffffffff16565b601960008673ffffffffffffffffffffffffffffffffffffffff1673ffffffffffffffffffffffffffffffffffffffff16815260200190815260200160002060003373ffffffffffffffffffffffffffffffffffffffff1673ffffffffffffffffffffffffffffffffffffffff1681526020019081526020016000208190555061149882601860008673ffffffffffffffffffffffffffffffffffffffff1673ffffffffffffffffffffffffffffffffffffffff168152602001908152602001600020546123eb90919063ffffffff16565b601860008573ffffffffffffffffffffffffffffffffffffffff1673ffffffffffffffffffffffffffffffffffffffff168152602001908152602001600020819055508273ffffffffffffffffffffffffffffffffffffffff168473ffffffffffffffffffffffffffffffffffffffff167fddf252ad1be2c89b69c2b068fc378daa952ba7f163c4a11628f55a4df523b3ef846040518082815260200191505060405180910390a3600190509392505050565b601b60003373ffffffffffffffffffffffffffffffffffffffff1673ffffffffffffffffffffffffffffffffffffffff16815260200190815260200160002060009055565b600f5481565b600c60009054906101000a900460ff1681565b6000806115b4612333565b9050600081111561169c57601a60009054906101000a900473ffffffffffffffffffffffffffffffffffffffff1673ffffffffffffffffffffffffffffffffffffffff1663978098fd826002546040518363ffffffff167c01000000000000000000000000000000000000000000000000000000000281526004018083815260200182815260200192505050602060405180830381600087803b15801561165a57600080fd5b505af115801561166e573d6000803e3d6000fd5b505050506040513d602081101561168457600080fd5b810190808051906020019092919050505091506116a2565b60025491505b5090565b60085481565b60145481565b60115481565b60006116eb600f5460020a600c60009054906101000a900460ff1660ff16600a0a600e54026123ab90919063ffffffff16565b905090565b6000600154905090565b60105481565b600e5481565b600061175a82601860003273ffffffffffffffffffffffffffffffffffffffff1673ffffffffffffffffffffffffffffffffffffffff168152602001908152602001600020546123cf90919063ffffffff16565b601860003273ffffffffffffffffffffffffffffffffffffffff1673ffffffffffffffffffffffffffffffffffffffff168152602001908152602001600020819055506117ef82601860008673ffffffffffffffffffffffffffffffffffffffff1673ffffffffffffffffffffffffffffffffffffffff168152602001908152602001600020546123eb90919063ffffffff16565b601860008573ffffffffffffffffffffffffffffffffffffffff1673ffffffffffffffffffffffffffffffffffffffff168152602001908152602001600020819055508273ffffffffffffffffffffffffffffffffffffffff163273ffffffffffffffffffffffffffffffffffffffff167fddf252ad1be2c89b69c2b068fc378daa952ba7f163c4a11628f55a4df523b3ef846040518082815260200191505060405180910390a36001905092915050565b601d60009054906101000a900473ffffffffffffffffffffffffffffffffffffffff1681565b60035481565b6000601860008373ffffffffffffffffffffffffffffffffffffffff1673ffffffffffffffffffffffffffffffffffffffff168152602001908152602001600020549050919050565b60135481565b60055481565b60025481565b60015481565b60168054600181600116156101000203166002900480601f0160208091040260200160405190810160405280929190818152602001828054600181600116156101000203166002900480156119c45780601f10611999576101008083540402835291602001916119c4565b820191906000526020600020905b8154815290600101906020018083116119a757829003601f168201915b505050505081565b600080600073ffffffffffffffffffffffffffffffffffffffff163373ffffffffffffffffffffffffffffffffffffffff1614151515611a0b57600080fd5b611a1483611ca0565b50611a1d612407565b905080600360008282540192505081905550611a37612464565b6005819055506000600454600554811515611a4e57fe5b061415611a5f57611a5d612500565b505b3373ffffffffffffffffffffffffffffffffffffffff167fcf6fbb9dcea7d07263ab4f5c3a92f53af33dffc421d9d121e1c74b307e68189d82600554600154604051808481526020018381526020018260001916600019168152602001935050505060405180910390a26001915050919050565b6000611b2782601860003373ffffffffffffffffffffffffffffffffffffffff1673ffffffffffffffffffffffffffffffffffffffff168152602001908152602001600020546123cf90919063ffffffff16565b601860003373ffffffffffffffffffffffffffffffffffffffff1673ffffffffffffffffffffffffffffffffffffffff16815260200190815260200160002081905550611bbc82601860008673ffffffffffffffffffffffffffffffffffffffff1673ffffffffffffffffffffffffffffffffffffffff168152602001908152602001600020546123eb90919063ffffffff16565b601860008573ffffffffffffffffffffffffffffffffffffffff1673ffffffffffffffffffffffffffffffffffffffff168152602001908152602001600020819055508273ffffffffffffffffffffffffffffffffffffffff163373ffffffffffffffffffffffffffffffffffffffff167fddf252ad1be2c89b69c2b068fc378daa952ba7f163c4a11628f55a4df523b3ef846040518082815260200191505060405180910390a36001905092915050565b601a60009054906101000a900473ffffffffffffffffffffffffffffffffffffffff1681565b600b5481565b60125481565b600080600080611cae612333565b92506000831115611eb357306001543287604051808573ffffffffffffffffffffffffffffffffffffffff1673ffffffffffffffffffffffffffffffffffffffff166c0100000000000000000000000002815260140184600019166000191681526020018373ffffffffffffffffffffffffffffffffffffffff1673ffffffffffffffffffffffffffffffffffffffff166c01000000000000000000000000028152601401828152602001945050505050604051809103902093508084600190041115611d7a57600080fd5b6015600060015460001916600019168152602001908152602001600020549150836015600060015460001916600019168152602001908152602001600020816000191690555060006001028260001916141515611dd657600080fd5b601a60009054906101000a900473ffffffffffffffffffffffffffffffffffffffff1673ffffffffffffffffffffffffffffffffffffffff1663978098fd846002546040518363ffffffff167c01000000000000000000000000000000000000000000000000000000000281526004018083815260200182815260200192505050602060405180830381600087803b158015611e7157600080fd5b505af1158015611e85573d6000803e3d6000fd5b505050506040513d6020811015611e9b57600080fd5b81019080805190602001909291905050509050611ebf565b611ebc85612696565b93505b505050919050565b601b6020528060005260406000206000915090505481565b3373ffffffffffffffffffffffffffffffffffffffff16601a60009054906101000a900473ffffffffffffffffffffffffffffffffffffffff1673ffffffffffffffffffffffffffffffffffffffff16636352211e836040518263ffffffff167c010000000000000000000000000000000000000000000000000000000002815260040180828152602001915050602060405180830381600087803b158015611f8757600080fd5b505af1158015611f9b573d6000803e3d6000fd5b505050506040513d6020811015611fb157600080fd5b810190808051906020019092919050505073ffffffffffffffffffffffffffffffffffffffff16141515611fe457600080fd5b80601b60003373ffffffffffffffffffffffffffffffffffffffff1673ffffffffffffffffffffffffffffffffffffffff1681526020019081526020016000208190555050565b601c60009054906101000a900473ffffffffffffffffffffffffffffffffffffffff1681565b600082601960003373ffffffffffffffffffffffffffffffffffffffff1673ffffffffffffffffffffffffffffffffffffffff16815260200190815260200160002060008673ffffffffffffffffffffffffffffffffffffffff1673ffffffffffffffffffffffffffffffffffffffff168152602001908152602001600020819055508373ffffffffffffffffffffffffffffffffffffffff163373ffffffffffffffffffffffffffffffffffffffff167f8c5be1e5ebec7d5bd14f71427d1e84f3dd0314c0f7b2291e5b200ac8c7c3b925856040518082815260200191505060405180910390a38373ffffffffffffffffffffffffffffffffffffffff16638f4ffcb1338530866040518563ffffffff167c0100000000000000000000000000000000000000000000000000000000028152600401808573ffffffffffffffffffffffffffffffffffffffff1673ffffffffffffffffffffffffffffffffffffffff1681526020018481526020018373ffffffffffffffffffffffffffffffffffffffff1673ffffffffffffffffffffffffffffffffffffffff16815260200180602001828103825283818151815260200191508051906020019080838360005b8381101561222e578082015181840152602081019050612213565b50505050905090810190601f16801561225b5780820380516001836020036101000a031916815260200191505b5095505050505050600060405180830381600087803b15801561227d57600080fd5b505af1158015612291573d6000803e3d6000fd5b50505050600190509392505050565b600d5481565b60045481565b6000601960008473ffffffffffffffffffffffffffffffffffffffff1673ffffffffffffffffffffffffffffffffffffffff16815260200190815260200160002060008373ffffffffffffffffffffffffffffffffffffffff1673ffffffffffffffffffffffffffffffffffffffff16815260200190815260200160002054905092915050565b6000601b60003373ffffffffffffffffffffffffffffffffffffffff1673ffffffffffffffffffffffffffffffffffffffff16815260200190815260200160002054905090565b60065481565b6000612398603c6013546127c490919063ffffffff16565b905090565b60005481565b600092915050565b600080821115156123bb57600080fd5b81838115156123c657fe5b04905092915050565b60008282111515156123e057600080fd5b818303905092915050565b6000818301905082811015151561240157600080fd5b92915050565b60006124116127f5565b9050612461601c60009054906101000a900473ffffffffffffffffffffffffffffffffffffffff16601d60009054906101000a900473ffffffffffffffffffffffffffffffffffffffff166129a1565b90565b60006010546124856124746116b8565b6003546123eb90919063ffffffff16565b11801561249457506027600f54105b156124a6576001600f5401600f819055505b6124c36001600f540160020a6014546123ab90919063ffffffff16565b601454036010819055506124e360016005546123eb90919063ffffffff16565b600581905550600143034060018160001916905550600554905090565b600080600080600080600080600d5443039650600454955060085486029450848710156125c25761254e87612540600954886127c490919063ffffffff16565b6123ab90919063ffffffff16565b9350612578600b5461256a6064876123cf90919063ffffffff16565b612a2190919063ffffffff16565b92506125b76125a684612598600a546002546123ab90919063ffffffff16565b6127c490919063ffffffff16565b6002546123cf90919063ffffffff16565b600281905550612659565b6125e9856125db6009548a6127c490919063ffffffff16565b6123ab90919063ffffffff16565b9150612613600b546126056064856123cf90919063ffffffff16565b612a2190919063ffffffff16565b905061265261264182612633600a546002546123ab90919063ffffffff16565b6127c490919063ffffffff16565b6002546123eb90919063ffffffff16565b6002819055505b43600d819055506006546002541015612676576006546002819055505b600754600254111561268c576007546002819055505b5050505050505090565b600080306001543285604051808573ffffffffffffffffffffffffffffffffffffffff1673ffffffffffffffffffffffffffffffffffffffff166c0100000000000000000000000002815260140184600019166000191681526020018373ffffffffffffffffffffffffffffffffffffffff1673ffffffffffffffffffffffffffffffffffffffff166c01000000000000000000000000028152601401828152602001945050505050604051809103902091506127516115a9565b826001900410151561276257600080fd5b60156000600154600019166000191681526020019081526020016000205490508160156000600154600019166000191681526020019081526020016000208160001916905550600060010281600019161415156127be57600080fd5b50919050565b6000818302905060008314806127e457508183828115156127e157fe5b04145b15156127ef57600080fd5b92915050565b600080612800612333565b905060008111156128ed57601a60009054906101000a900473ffffffffffffffffffffffffffffffffffffffff1673ffffffffffffffffffffffffffffffffffffffff1663912ca8b4826128526116b8565b6040518363ffffffff167c01000000000000000000000000000000000000000000000000000000000281526004018083815260200182815260200192505050602060405180830381600087803b1580156128ab57600080fd5b505af11580156128bf573d6000803e3d6000fd5b505050506040513d60208110156128d557600080fd5b810190808051906020019092919050505091506128f8565b6128f56116b8565b91505b61294a82601860003373ffffffffffffffffffffffffffffffffffffffff1673ffffffffffffffffffffffffffffffffffffffff168152602001908152602001600020546123eb90919063ffffffff16565b601860003373ffffffffffffffffffffffffffffffffffffffff1673ffffffffffffffffffffffffffffffffffffffff168152602001908152602001600020819055506010546003541115151561299d57fe5b5090565b8073ffffffffffffffffffffffffffffffffffffffff1663d96a54846040518163ffffffff167c0100000000000000000000000000000000000000000000000000000000028152600401600060405180830381600087803b158015612a0557600080fd5b505af1158015612a19573d6000803e3d6000fd5b505050505050565b600081831115612a3357819050612a37565b8290505b92915050565b84600c60006101000a81548160ff021916908360ff160217905550600c60009054906101000a900460ff1660ff16600a0a860260148190555083600e819055508260048190555060006003819055506000600f81905550612aaa60026014546123ab90919063ffffffff16565b60108190555060008211612ac057600754612ad6565b612ad5826007546123ab90919063ffffffff16565b5b6002819055506007546002541115612af2576007546002819055505b80601381905550612b0e601254826127c490919063ffffffff16565b60088190555043600d819055507f9fe0c082b16266c8b1db93ac25bb95cc43ebbc1770fd4e8bbfb96a8ee93a0b118686868685604051808681526020018560ff1660ff1681526020018481526020018381526020018281526020019550505050505060405180910390a1612b80612464565b505050505050505600a165627a7a723058200d7d721a95ce3a619339e2a9a5a6dc818bed51f02b01ba746a359d7a2971787d0029",
  "source": "pragma solidity ^0.4.23;\n\nimport \"./BoostableMineableToken.sol\";\nimport \"./Antigasable.sol\";\n\n/**\n * The MineableToken contract is contract that provides the functionality to create a new ERC20, ERC918 \n * compliant Mineable Token that issues anti-gas rebates.\n *\n * author: jlogelin (https://github.com/jlogelin)\n *\n */\ncontract MineableToken is BoostableMineableToken, Antigasable {\n\n    using SafeMath for uint;\n    \n    address public mithrilTokenAddress;\n\n    address public mithrilQuarryAddress;\n        \n    /**\n     * Constructor function\n     *\n     * Initializes contract with a target booster contract address, a quarry address, the 0xMithril token\n     * address and all required ERC20, ERC918 fields\n     *\n     * @param _mithrilTokenAddress the address of the ERC20/ERC918 0xMithril Token\n     * @param _mithrilQuarryAddress the address of the Mithril Quarry\n     * @param _boosterAddress the address of the ERC721 base artifact\n     * @param _symbol the symbol of the token\n     * @param _name the name of the token\n     * @param _decimals the number of decimal places of the token\n     * @param _supply the initial supply of the token\n     * @param _reward the initial reward of the token\n     * @param _adjustmentBlockCount the number of mint blocks per difficulty adjustment\n     * @param _initialDifficulty the initial difficulty of the token\n     * @param _blockTimeInMinutes the target block time in minutes of the token\n     */\n    constructor(address _mithrilTokenAddress, address _mithrilQuarryAddress, address _boosterAddress, \n                string _symbol, string _name, uint8 _decimals, uint _supply, uint _reward, \n                uint _adjustmentBlockCount, uint _initialDifficulty, uint _blockTimeInMinutes) \n        BoostableMineableToken(_boosterAddress)\n        ERC20Mineable(_symbol, _name, _decimals, _supply, _reward, _adjustmentBlockCount, _initialDifficulty, _blockTimeInMinutes)\n        public\n    {\n        symbol = _symbol;\n        name = _name;\n        mithrilTokenAddress = _mithrilTokenAddress;\n        mithrilQuarryAddress = _mithrilQuarryAddress;\n    }\n\n    /**\n     * _reward function\n     *\n     * Internal function that overrides ERC918 _reward function that rewards an additional\n     * 0xMithril gas rebate.\n     * \n     */\n    function _reward() internal returns (uint amount) {\n        amount = super._reward();\n        rewardAntigas(mithrilTokenAddress, mithrilQuarryAddress);\n    }\n    \n}",
  "sourcePath": "/Users/logelj1/Documents/playground/0xMithril/mithril-repo/0xmithriltoken/contracts/MineableToken.sol",
  "compiler": {
    "name": "solc",
    "version": "0.4.23+commit.124ca40d.Emscripten.clang"
  },
  "schemaVersion": "2.0.0",
  "updatedAt": "2018-09-16T14:55:46.647Z"
}