{
  "contractName": "MithrilTokenQuarry",
  "abi": [
    {
      "constant": true,
      "inputs": [
        {
          "name": "addr",
          "type": "address"
        },
        {
          "name": "roleName",
          "type": "string"
        }
      ],
      "name": "checkRole",
      "outputs": [],
      "payable": false,
      "stateMutability": "view",
      "type": "function"
    },
    {
      "constant": true,
      "inputs": [
        {
          "name": "addr",
          "type": "address"
        },
        {
          "name": "roleName",
          "type": "string"
        }
      ],
      "name": "hasRole",
      "outputs": [
        {
          "name": "",
          "type": "bool"
        }
      ],
      "payable": false,
      "stateMutability": "view",
      "type": "function"
    },
    {
      "constant": true,
      "inputs": [
        {
          "name": "index",
          "type": "uint256"
        }
      ],
      "name": "getMineableKeyAt",
      "outputs": [
        {
          "name": "token",
          "type": "address"
        }
      ],
      "payable": false,
      "stateMutability": "view",
      "type": "function"
    },
    {
      "constant": true,
      "inputs": [
        {
          "name": "tokenAddress",
          "type": "address"
        }
      ],
      "name": "isMineableEntry",
      "outputs": [
        {
          "name": "isIndeed",
          "type": "bool"
        }
      ],
      "payable": false,
      "stateMutability": "view",
      "type": "function"
    },
    {
      "constant": true,
      "inputs": [],
      "name": "mineableSize",
      "outputs": [
        {
          "name": "entityCount",
          "type": "uint256"
        }
      ],
      "payable": false,
      "stateMutability": "view",
      "type": "function"
    },
    {
      "constant": false,
      "inputs": [
        {
          "name": "tokenAddress",
          "type": "address"
        },
        {
          "name": "mineable",
          "type": "address"
        }
      ],
      "name": "putMineable",
      "outputs": [
        {
          "name": "success",
          "type": "bool"
        }
      ],
      "payable": false,
      "stateMutability": "nonpayable",
      "type": "function"
    },
    {
      "constant": true,
      "inputs": [],
      "name": "MITHRIL_ANTIGAS_REWARD",
      "outputs": [
        {
          "name": "",
          "type": "uint256"
        }
      ],
      "payable": false,
      "stateMutability": "view",
      "type": "function"
    },
    {
      "constant": true,
      "inputs": [
        {
          "name": "tokenAddress",
          "type": "address"
        }
      ],
      "name": "getMineable",
      "outputs": [
        {
          "name": "mineable",
          "type": "address"
        }
      ],
      "payable": false,
      "stateMutability": "view",
      "type": "function"
    },
    {
      "constant": true,
      "inputs": [
        {
          "name": "index",
          "type": "uint256"
        }
      ],
      "name": "getMineableAt",
      "outputs": [
        {
          "name": "mineable",
          "type": "address"
        }
      ],
      "payable": false,
      "stateMutability": "view",
      "type": "function"
    },
    {
      "constant": false,
      "inputs": [
        {
          "name": "addr",
          "type": "address"
        },
        {
          "name": "roleName",
          "type": "string"
        }
      ],
      "name": "adminRemoveRole",
      "outputs": [],
      "payable": false,
      "stateMutability": "nonpayable",
      "type": "function"
    },
    {
      "constant": true,
      "inputs": [],
      "name": "boosterAddress",
      "outputs": [
        {
          "name": "",
          "type": "address"
        }
      ],
      "payable": false,
      "stateMutability": "view",
      "type": "function"
    },
    {
      "constant": false,
      "inputs": [
        {
          "name": "addr",
          "type": "address"
        },
        {
          "name": "roleName",
          "type": "string"
        }
      ],
      "name": "adminAddRole",
      "outputs": [],
      "payable": false,
      "stateMutability": "nonpayable",
      "type": "function"
    },
    {
      "constant": false,
      "inputs": [
        {
          "name": "tokenAddress",
          "type": "address"
        },
        {
          "name": "mineable",
          "type": "address"
        }
      ],
      "name": "updateMineable",
      "outputs": [
        {
          "name": "success",
          "type": "bool"
        }
      ],
      "payable": false,
      "stateMutability": "nonpayable",
      "type": "function"
    },
    {
      "constant": false,
      "inputs": [
        {
          "name": "tokenAddress",
          "type": "address"
        }
      ],
      "name": "removeMineable",
      "outputs": [
        {
          "name": "success",
          "type": "bool"
        }
      ],
      "payable": false,
      "stateMutability": "nonpayable",
      "type": "function"
    },
    {
      "constant": true,
      "inputs": [],
      "name": "mithrilTokenAddress",
      "outputs": [
        {
          "name": "",
          "type": "address"
        }
      ],
      "payable": false,
      "stateMutability": "view",
      "type": "function"
    },
    {
      "constant": true,
      "inputs": [
        {
          "name": "",
          "type": "uint256"
        }
      ],
      "name": "mineableKeyList",
      "outputs": [
        {
          "name": "",
          "type": "address"
        }
      ],
      "payable": false,
      "stateMutability": "view",
      "type": "function"
    },
    {
      "constant": true,
      "inputs": [],
      "name": "ROLE_ADMIN",
      "outputs": [
        {
          "name": "",
          "type": "string"
        }
      ],
      "payable": false,
      "stateMutability": "view",
      "type": "function"
    },
    {
      "constant": true,
      "inputs": [
        {
          "name": "index",
          "type": "uint256"
        }
      ],
      "name": "getMineableTuple",
      "outputs": [
        {
          "name": "token",
          "type": "address"
        },
        {
          "name": "mineable",
          "type": "address"
        }
      ],
      "payable": false,
      "stateMutability": "view",
      "type": "function"
    },
    {
      "constant": true,
      "inputs": [
        {
          "name": "",
          "type": "address"
        }
      ],
      "name": "mineableEntries",
      "outputs": [
        {
          "name": "mineable",
          "type": "address"
        },
        {
          "name": "listPointer",
          "type": "uint256"
        }
      ],
      "payable": false,
      "stateMutability": "view",
      "type": "function"
    },
    {
      "inputs": [
        {
          "name": "_boosterToken",
          "type": "address"
        },
        {
          "name": "_mithrilTokenAddress",
          "type": "address"
        }
      ],
      "payable": false,
      "stateMutability": "nonpayable",
      "type": "constructor"
    },
    {
      "anonymous": false,
      "inputs": [
        {
          "indexed": false,
          "name": "amount",
          "type": "uint256"
        }
      ],
      "name": "AntigasReward",
      "type": "event"
    },
    {
      "anonymous": false,
      "inputs": [
        {
          "indexed": true,
          "name": "from",
          "type": "address"
        },
        {
          "indexed": false,
          "name": "tokenContract",
          "type": "address"
        },
        {
          "indexed": false,
          "name": "newChallengeNumber",
          "type": "bytes32"
        }
      ],
      "name": "Mined",
      "type": "event"
    },
    {
      "anonymous": false,
      "inputs": [
        {
          "indexed": false,
          "name": "tokenAddress",
          "type": "address"
        },
        {
          "indexed": false,
          "name": "tokenSymbol",
          "type": "string"
        },
        {
          "indexed": false,
          "name": "tokenName",
          "type": "string"
        },
        {
          "indexed": false,
          "name": "tokenDecimals",
          "type": "uint8"
        },
        {
          "indexed": false,
          "name": "initialReward",
          "type": "uint256"
        }
      ],
      "name": "TokenRegistered",
      "type": "event"
    },
    {
      "anonymous": false,
      "inputs": [
        {
          "indexed": false,
          "name": "addr",
          "type": "address"
        },
        {
          "indexed": false,
          "name": "roleName",
          "type": "string"
        }
      ],
      "name": "RoleAdded",
      "type": "event"
    },
    {
      "anonymous": false,
      "inputs": [
        {
          "indexed": false,
          "name": "addr",
          "type": "address"
        },
        {
          "indexed": false,
          "name": "roleName",
          "type": "string"
        }
      ],
      "name": "RoleRemoved",
      "type": "event"
    },
    {
      "constant": false,
      "inputs": [
        {
          "name": "_targetToken",
          "type": "address"
        },
        {
          "name": "_mineableToken",
          "type": "address"
        }
      ],
      "name": "registerMineable",
      "outputs": [],
      "payable": false,
      "stateMutability": "nonpayable",
      "type": "function"
    },
    {
      "constant": false,
      "inputs": [
        {
          "name": "_antigasReward",
          "type": "uint256"
        }
      ],
      "name": "setAntigasReward",
      "outputs": [],
      "payable": false,
      "stateMutability": "nonpayable",
      "type": "function"
    },
    {
      "constant": false,
      "inputs": [],
      "name": "rewardAntigas",
      "outputs": [],
      "payable": false,
      "stateMutability": "nonpayable",
      "type": "function"
    },
    {
      "constant": false,
      "inputs": [
        {
          "name": "_newBoosterAddress",
          "type": "address"
        }
      ],
      "name": "upgradeBoosterAddress",
      "outputs": [],
      "payable": false,
      "stateMutability": "nonpayable",
      "type": "function"
    },
    {
      "constant": false,
      "inputs": [
        {
          "name": "_target",
          "type": "address"
        }
      ],
      "name": "addMineableRole",
      "outputs": [],
      "payable": false,
      "stateMutability": "nonpayable",
      "type": "function"
    },
    {
      "constant": false,
      "inputs": [
        {
          "name": "_target",
          "type": "address"
        }
      ],
      "name": "revokeMineableRole",
      "outputs": [],
      "payable": false,
      "stateMutability": "nonpayable",
      "type": "function"
    }
  ],
  "bytecode": "0x6080604052620143276003553480156200001857600080fd5b5060405160408062002a86833981018060405281019080805190602001909291908051906020019092919050505062000096336040805190810160405280600581526020017f61646d696e000000000000000000000000000000000000000000000000000000815250620003c5640100000000026401000000009004565b8173ffffffffffffffffffffffffffffffffffffffff16600073ffffffffffffffffffffffffffffffffffffffff161415151562000162576040517f08c379a00000000000000000000000000000000000000000000000000000000081526004018080602001828103825260408152602001807f496e76616c696420626f6f73746572206164647265737320307830205b204d6981526020017f746872696c546f6b656e5175617272792e636f6e7374727563746f722829205d81525060400191505060405180910390fd5b8073ffffffffffffffffffffffffffffffffffffffff16600073ffffffffffffffffffffffffffffffffffffffff16141515156200022e576040517f08c379a00000000000000000000000000000000000000000000000000000000081526004018080602001828103825260408152602001807f496e76616c6964204d69746872696c206164647265737320307830205b204d6981526020017f746872696c546f6b656e5175617272792e636f6e7374727563746f722829205d81525060400191505060405180910390fd5b81600560006101000a81548173ffffffffffffffffffffffffffffffffffffffff021916908373ffffffffffffffffffffffffffffffffffffffff16021790555080600460006101000a81548173ffffffffffffffffffffffffffffffffffffffff021916908373ffffffffffffffffffffffffffffffffffffffff160217905550600460009054906101000a900473ffffffffffffffffffffffffffffffffffffffff1673ffffffffffffffffffffffffffffffffffffffff16635c6bcad4306012600a0a620f4240026040518363ffffffff167c0100000000000000000000000000000000000000000000000000000000028152600401808373ffffffffffffffffffffffffffffffffffffffff1673ffffffffffffffffffffffffffffffffffffffff16815260200182815260200192505050602060405180830381600087803b1580156200037f57600080fd5b505af115801562000394573d6000803e3d6000fd5b505050506040513d6020811015620003ab57600080fd5b810190808051906020019092919050505050505062000589565b62000454826000836040518082805190602001908083835b602083101515620004045780518252602082019150602081019050602083039250620003dd565b6001836020036101000a03801982511681845116808217855250505050505090500191505090815260200160405180910390206200052b64010000000002620023b4179091906401000000009004565b7fbfec83d64eaa953f2708271a023ab9ee82057f8f3578d548c1a4ba0b5b7004898282604051808373ffffffffffffffffffffffffffffffffffffffff1673ffffffffffffffffffffffffffffffffffffffff16815260200180602001828103825283818151815260200191508051906020019080838360005b83811015620004eb578082015181840152602081019050620004ce565b50505050905090810190601f168015620005195780820380516001836020036101000a031916815260200191505b50935050505060405180910390a15050565b60018260000160008373ffffffffffffffffffffffffffffffffffffffff1673ffffffffffffffffffffffffffffffffffffffff16815260200190815260200160002060006101000a81548160ff0219169083151502179055505050565b6124ed80620005996000396000f300608060405260043610610149576000357c0100000000000000000000000000000000000000000000000000000000900463ffffffff16806302566af81461014e5780630988ca8c14610191578063217fe6c61461021a578063275c4fa1146102bb5780633cec17351461031e5780633f29495a1461038b57806350122138146103e657806352f6dd52146104115780635c2f45461461043e5780636f3014db1461048157806373842a19146104fc578063741feb061461052757806375cfd190146105aa57806388cee87e14610617578063a99c308b146106a0578063b25fa92c146106f7578063bafbbf0014610780578063c11e441a146107fb578063c5b16cc314610856578063d01f6184146108ad578063d391014b1461091a578063d96a5484146109aa578063e7d62952146109c1578063f1d8493414610a61578063f94eaf3814610aa4575b600080fd5b34801561015a57600080fd5b5061018f600480360381019080803573ffffffffffffffffffffffffffffffffffffffff169060200190929190505050610b2e565b005b34801561019d57600080fd5b50610218600480360381019080803573ffffffffffffffffffffffffffffffffffffffff169060200190929190803590602001908201803590602001908080601f0160208091040260200160405190810160405280939291908181526020018383808284378201915050505050509192919290505050610baf565b005b34801561022657600080fd5b506102a1600480360381019080803573ffffffffffffffffffffffffffffffffffffffff169060200190929190803590602001908201803590602001908080601f0160208091040260200160405190810160405280939291908181526020018383808284378201915050505050509192919290505050610c30565b604051808215151515815260200191505060405180910390f35b3480156102c757600080fd5b5061031c600480360381019080803573ffffffffffffffffffffffffffffffffffffffff169060200190929190803573ffffffffffffffffffffffffffffffffffffffff169060200190929190505050610cb7565b005b34801561032a57600080fd5b5061034960048036038101908080359060200190929190505050610e4a565b604051808273ffffffffffffffffffffffffffffffffffffffff1673ffffffffffffffffffffffffffffffffffffffff16815260200191505060405180910390f35b34801561039757600080fd5b506103cc600480360381019080803573ffffffffffffffffffffffffffffffffffffffff169060200190929190505050610e8d565b604051808215151515815260200191505060405180910390f35b3480156103f257600080fd5b506103fb610f57565b6040518082815260200191505060405180910390f35b34801561041d57600080fd5b5061043c60048036038101908080359060200190929190505050610f64565b005b34801561044a57600080fd5b5061047f600480360381019080803573ffffffffffffffffffffffffffffffffffffffff169060200190929190505050610fad565b005b34801561048d57600080fd5b506104e2600480360381019080803573ffffffffffffffffffffffffffffffffffffffff169060200190929190803573ffffffffffffffffffffffffffffffffffffffff169060200190929190505050611030565b604051808215151515815260200191505060405180910390f35b34801561050857600080fd5b50610511611354565b6040518082815260200191505060405180910390f35b34801561053357600080fd5b50610568600480360381019080803573ffffffffffffffffffffffffffffffffffffffff16906020019092919050505061135a565b604051808273ffffffffffffffffffffffffffffffffffffffff1673ffffffffffffffffffffffffffffffffffffffff16815260200191505060405180910390f35b3480156105b657600080fd5b506105d560048036038101908080359060200190929190505050611469565b604051808273ffffffffffffffffffffffffffffffffffffffff1673ffffffffffffffffffffffffffffffffffffffff16815260200191505060405180910390f35b34801561062357600080fd5b5061069e600480360381019080803573ffffffffffffffffffffffffffffffffffffffff169060200190929190803590602001908201803590602001908080601f016020809104026020016040519081016040528093929190818152602001838380828437820191505050505050919291929050505061150e565b005b3480156106ac57600080fd5b506106b561155b565b604051808273ffffffffffffffffffffffffffffffffffffffff1673ffffffffffffffffffffffffffffffffffffffff16815260200191505060405180910390f35b34801561070357600080fd5b5061077e600480360381019080803573ffffffffffffffffffffffffffffffffffffffff169060200190929190803590602001908201803590602001908080601f0160208091040260200160405190810160405280939291908181526020018383808284378201915050505050509192919290505050611581565b005b34801561078c57600080fd5b506107e1600480360381019080803573ffffffffffffffffffffffffffffffffffffffff169060200190929190803573ffffffffffffffffffffffffffffffffffffffff1690602001909291905050506115ce565b604051808215151515815260200191505060405180910390f35b34801561080757600080fd5b5061083c600480360381019080803573ffffffffffffffffffffffffffffffffffffffff16906020019092919050505061173d565b604051808215151515815260200191505060405180910390f35b34801561086257600080fd5b5061086b61196d565b604051808273ffffffffffffffffffffffffffffffffffffffff1673ffffffffffffffffffffffffffffffffffffffff16815260200191505060405180910390f35b3480156108b957600080fd5b506108d860048036038101908080359060200190929190505050611993565b604051808273ffffffffffffffffffffffffffffffffffffffff1673ffffffffffffffffffffffffffffffffffffffff16815260200191505060405180910390f35b34801561092657600080fd5b5061092f6119d1565b6040518080602001828103825283818151815260200191508051906020019080838360005b8381101561096f578082015181840152602081019050610954565b50505050905090810190601f16801561099c5780820380516001836020036101000a031916815260200191505b509250505060405180910390f35b3480156109b657600080fd5b506109bf611a0a565b005b3480156109cd57600080fd5b506109ec60048036038101908080359060200190929190505050611da4565b604051808373ffffffffffffffffffffffffffffffffffffffff1673ffffffffffffffffffffffffffffffffffffffff1681526020018273ffffffffffffffffffffffffffffffffffffffff1673ffffffffffffffffffffffffffffffffffffffff1681526020019250505060405180910390f35b348015610a6d57600080fd5b50610aa2600480360381019080803573ffffffffffffffffffffffffffffffffffffffff169060200190929190505050611e4d565b005b348015610ab057600080fd5b50610ae5600480360381019080803573ffffffffffffffffffffffffffffffffffffffff169060200190929190505050611f0d565b604051808373ffffffffffffffffffffffffffffffffffffffff1673ffffffffffffffffffffffffffffffffffffffff1681526020018281526020019250505060405180910390f35b610b6d336040805190810160405280600581526020017f61646d696e000000000000000000000000000000000000000000000000000000815250610baf565b610bac816040805190810160405280600881526020017f6d696e6561626c65000000000000000000000000000000000000000000000000815250611f51565b50565b610c2c826000836040518082805190602001908083835b602083101515610beb5780518252602082019150602081019050602083039250610bc6565b6001836020036101000a03801982511681845116808217855250505050505090500191505090815260200160405180910390206120a290919063ffffffff16565b5050565b6000610caf836000846040518082805190602001908083835b602083101515610c6e5780518252602082019150602081019050602083039250610c49565b6001836020036101000a038019825116818451168082178552505050505050905001915050908152602001604051809103902061214a90919063ffffffff16565b905092915050565b610cf6336040805190810160405280600581526020017f61646d696e000000000000000000000000000000000000000000000000000000815250610c30565b80610d3c5750610d3b336040805190810160405280600881526020017f6d696e6561626c65000000000000000000000000000000000000000000000000815250610c30565b5b1515610dfc576040517f08c379a00000000000000000000000000000000000000000000000000000000081526004018080602001828103825260548152602001807f496e737566666963656e742070726976696c656467657320746f20657865637581526020017f746520746869732066756e6374696f6e205b205265676973747261722e6f6e6c81526020017f7941646d696e4f724d696e6561626c652829205d00000000000000000000000081525060600191505060405180910390fd5b610e3b816040805190810160405280600881526020017f6d696e6561626c65000000000000000000000000000000000000000000000000815250611f51565b610e458282611030565b505050565b6000600282815481101515610e5b57fe5b9060005260206000200160009054906101000a900473ffffffffffffffffffffffffffffffffffffffff169050919050565b6000806002805490501415610ea55760009050610f52565b8173ffffffffffffffffffffffffffffffffffffffff166002600160008573ffffffffffffffffffffffffffffffffffffffff1673ffffffffffffffffffffffffffffffffffffffff16815260200190815260200160002060010154815481101515610f0d57fe5b9060005260206000200160009054906101000a900473ffffffffffffffffffffffffffffffffffffffff1673ffffffffffffffffffffffffffffffffffffffff161490505b919050565b6000600280549050905090565b610fa3336040805190810160405280600581526020017f61646d696e000000000000000000000000000000000000000000000000000000815250610baf565b8060038190555050565b610fec336040805190810160405280600581526020017f61646d696e000000000000000000000000000000000000000000000000000000815250610baf565b80600560006101000a81548173ffffffffffffffffffffffffffffffffffffffff021916908373ffffffffffffffffffffffffffffffffffffffff16021790555050565b6000611071336040805190810160405280600581526020017f61646d696e000000000000000000000000000000000000000000000000000000815250610c30565b806110b757506110b6336040805190810160405280600881526020017f6d696e6561626c65000000000000000000000000000000000000000000000000815250610c30565b5b1515611177576040517f08c379a00000000000000000000000000000000000000000000000000000000081526004018080602001828103825260548152602001807f496e737566666963656e742070726976696c656467657320746f20657865637581526020017f746520746869732066756e6374696f6e205b205265676973747261722e6f6e6c81526020017f7941646d696e4f724d696e6561626c652829205d00000000000000000000000081525060600191505060405180910390fd5b61118083610e8d565b15151561121b576040517f08c379a00000000000000000000000000000000000000000000000000000000081526004018080602001828103825260308152602001807f456e74727920616c726561647920657869737473205b2052656769737472617281526020017f2e7075744d696e6561626c652829205d0000000000000000000000000000000081525060400191505060405180910390fd5b81600160008573ffffffffffffffffffffffffffffffffffffffff1673ffffffffffffffffffffffffffffffffffffffff16815260200190815260200160002060000160006101000a81548173ffffffffffffffffffffffffffffffffffffffff021916908373ffffffffffffffffffffffffffffffffffffffff160217905550600160028490806001815401808255809150509060018203906000526020600020016000909192909190916101000a81548173ffffffffffffffffffffffffffffffffffffffff021916908373ffffffffffffffffffffffffffffffffffffffff16021790555003600160008573ffffffffffffffffffffffffffffffffffffffff1673ffffffffffffffffffffffffffffffffffffffff168152602001908152602001600020600101819055506001905092915050565b60035481565b600061136582610e8d565b15156113ff576040517f08c379a00000000000000000000000000000000000000000000000000000000081526004018080602001828103825260318152602001807f496e76616c69642c20656e74727920657869737473205b20526567697374726181526020017f722e6765744d696e6561626c652829205d00000000000000000000000000000081525060400191505060405180910390fd5b600160008373ffffffffffffffffffffffffffffffffffffffff1673ffffffffffffffffffffffffffffffffffffffff16815260200190815260200160002060000160009054906101000a900473ffffffffffffffffffffffffffffffffffffffff169050919050565b60006001600060028481548110151561147e57fe5b9060005260206000200160009054906101000a900473ffffffffffffffffffffffffffffffffffffffff1673ffffffffffffffffffffffffffffffffffffffff1673ffffffffffffffffffffffffffffffffffffffff16815260200190815260200160002060000160009054906101000a900473ffffffffffffffffffffffffffffffffffffffff169050919050565b61154d336040805190810160405280600581526020017f61646d696e000000000000000000000000000000000000000000000000000000815250610baf565b61155782826121a3565b5050565b600560009054906101000a900473ffffffffffffffffffffffffffffffffffffffff1681565b6115c0336040805190810160405280600581526020017f61646d696e000000000000000000000000000000000000000000000000000000815250610baf565b6115ca8282611f51565b5050565b600061160f336040805190810160405280600581526020017f61646d696e000000000000000000000000000000000000000000000000000000815250610baf565b61161883610e8d565b15156116b2576040517f08c379a00000000000000000000000000000000000000000000000000000000081526004018080602001828103825260348152602001807f496e76616c69642c20656e74727920657869737473205b20526567697374726181526020017f722e7570646174654d696e6561626c652829205d00000000000000000000000081525060400191505060405180910390fd5b81600160008573ffffffffffffffffffffffffffffffffffffffff1673ffffffffffffffffffffffffffffffffffffffff16815260200190815260200160002060000160006101000a81548173ffffffffffffffffffffffffffffffffffffffff021916908373ffffffffffffffffffffffffffffffffffffffff1602179055506001905092915050565b6000806000611781336040805190810160405280600581526020017f61646d696e000000000000000000000000000000000000000000000000000000815250610baf565b61178a84610e8d565b1515611824576040517f08c379a00000000000000000000000000000000000000000000000000000000081526004018080602001828103825260348152602001807f496e76616c69642c20656e74727920657869737473205b20526567697374726181526020017f722e72656d6f76654d696e6561626c652829205d00000000000000000000000081525060400191505060405180910390fd5b600160008573ffffffffffffffffffffffffffffffffffffffff1673ffffffffffffffffffffffffffffffffffffffff168152602001908152602001600020600101549150600260016002805490500381548110151561188057fe5b9060005260206000200160009054906101000a900473ffffffffffffffffffffffffffffffffffffffff169050806002838154811015156118bd57fe5b9060005260206000200160006101000a81548173ffffffffffffffffffffffffffffffffffffffff021916908373ffffffffffffffffffffffffffffffffffffffff16021790555081600160008373ffffffffffffffffffffffffffffffffffffffff1673ffffffffffffffffffffffffffffffffffffffff1681526020019081526020016000206001018190555060028054809190600190036119619190612470565b50600192505050919050565b600460009054906101000a900473ffffffffffffffffffffffffffffffffffffffff1681565b6002818154811015156119a257fe5b906000526020600020016000915054906101000a900473ffffffffffffffffffffffffffffffffffffffff1681565b6040805190810160405280600581526020017f61646d696e00000000000000000000000000000000000000000000000000000081525081565b6000611a4b336040805190810160405280600581526020017f61646d696e000000000000000000000000000000000000000000000000000000815250610c30565b80611a915750611a90336040805190810160405280600881526020017f6d696e6561626c65000000000000000000000000000000000000000000000000815250610c30565b5b1515611b51576040517f08c379a00000000000000000000000000000000000000000000000000000000081526004018080602001828103825260548152602001807f496e737566666963656e742070726976696c656467657320746f20657865637581526020017f746520746869732066756e6374696f6e205b205265676973747261722e6f6e6c81526020017f7941646d696e4f724d696e6561626c652829205d00000000000000000000000081525060600191505060405180910390fd5b611b663a6003546122f490919063ffffffff16565b905080600460009054906101000a900473ffffffffffffffffffffffffffffffffffffffff1673ffffffffffffffffffffffffffffffffffffffff166370a08231306040518263ffffffff167c0100000000000000000000000000000000000000000000000000000000028152600401808273ffffffffffffffffffffffffffffffffffffffff1673ffffffffffffffffffffffffffffffffffffffff168152602001915050602060405180830381600087803b158015611c2657600080fd5b505af1158015611c3a573d6000803e3d6000fd5b505050506040513d6020811015611c5057600080fd5b8101908080519060200190929190505050101515611da157600460009054906101000a900473ffffffffffffffffffffffffffffffffffffffff1673ffffffffffffffffffffffffffffffffffffffff1663a9059cbb32836040518363ffffffff167c0100000000000000000000000000000000000000000000000000000000028152600401808373ffffffffffffffffffffffffffffffffffffffff1673ffffffffffffffffffffffffffffffffffffffff16815260200182815260200192505050602060405180830381600087803b158015611d2d57600080fd5b505af1158015611d41573d6000803e3d6000fd5b505050506040513d6020811015611d5757600080fd5b8101908080519060200190929190505050507f0e31a34a4fff19b7b02b797d016418fd8933ca9de258aa32c735d8fa4ecce43c816040518082815260200191505060405180910390a15b50565b600080600283815481101515611db657fe5b9060005260206000200160009054906101000a900473ffffffffffffffffffffffffffffffffffffffff169150600160008373ffffffffffffffffffffffffffffffffffffffff1673ffffffffffffffffffffffffffffffffffffffff16815260200190815260200160002060000160009054906101000a900473ffffffffffffffffffffffffffffffffffffffff169050915091565b611e8c336040805190810160405280600581526020017f61646d696e000000000000000000000000000000000000000000000000000000815250610baf565b611ecb816040805190810160405280600881526020017f6d696e6561626c65000000000000000000000000000000000000000000000000815250610baf565b611f0a816040805190810160405280600881526020017f6d696e6561626c650000000000000000000000000000000000000000000000008152506121a3565b50565b60016020528060005260406000206000915090508060000160009054906101000a900473ffffffffffffffffffffffffffffffffffffffff16908060010154905082565b611fce826000836040518082805190602001908083835b602083101515611f8d5780518252602082019150602081019050602083039250611f68565b6001836020036101000a03801982511681845116808217855250505050505090500191505090815260200160405180910390206123b490919063ffffffff16565b7fbfec83d64eaa953f2708271a023ab9ee82057f8f3578d548c1a4ba0b5b7004898282604051808373ffffffffffffffffffffffffffffffffffffffff1673ffffffffffffffffffffffffffffffffffffffff16815260200180602001828103825283818151815260200191508051906020019080838360005b83811015612063578082015181840152602081019050612048565b50505050905090810190601f1680156120905780820380516001836020036101000a031916815260200191505b50935050505060405180910390a15050565b6120ac828261214a565b1515612146576040517f08c379a00000000000000000000000000000000000000000000000000000000081526004018080602001828103825260358152602001807f4164647265737320646f6573206e6f742068617665207265717569726564207281526020017f6f6c65205b20526f6c65732e636865636b2829205d000000000000000000000081525060400191505060405180910390fd5b5050565b60008260000160008373ffffffffffffffffffffffffffffffffffffffff1673ffffffffffffffffffffffffffffffffffffffff16815260200190815260200160002060009054906101000a900460ff16905092915050565b612220826000836040518082805190602001908083835b6020831015156121df57805182526020820191506020810190506020830392506121ba565b6001836020036101000a038019825116818451168082178552505050505050905001915050908152602001604051809103902061241290919063ffffffff16565b7fd211483f91fc6eff862467f8de606587a30c8fc9981056f051b897a418df803a8282604051808373ffffffffffffffffffffffffffffffffffffffff1673ffffffffffffffffffffffffffffffffffffffff16815260200180602001828103825283818151815260200191508051906020019080838360005b838110156122b557808201518184015260208101905061229a565b50505050905090810190601f1680156122e25780820380516001836020036101000a031916815260200191505b50935050505060405180910390a15050565b600081830290506000831480612314575081838281151561231157fe5b04145b15156123ae576040517f08c379a000000000000000000000000000000000000000000000000000000000815260040180806020018281038252603b8152602001807f496e76616c696420726571756972656d656e742061203d3d2030207c7c20632081526020017f2f2061203d3d2062205b20536166654d6174682e6d756c2829205d000000000081525060400191505060405180910390fd5b92915050565b60018260000160008373ffffffffffffffffffffffffffffffffffffffff1673ffffffffffffffffffffffffffffffffffffffff16815260200190815260200160002060006101000a81548160ff0219169083151502179055505050565b60008260000160008373ffffffffffffffffffffffffffffffffffffffff1673ffffffffffffffffffffffffffffffffffffffff16815260200190815260200160002060006101000a81548160ff0219169083151502179055505050565b81548183558181111561249757818360005260206000209182019101612496919061249c565b5b505050565b6124be91905b808211156124ba5760008160009055506001016124a2565b5090565b905600a165627a7a723058209a986b7572df9a38c74323995e1d83e866b49e98f7ba10b801bb03c9f356a0930029",
  "source": "pragma solidity ^0.4.24;\n\nimport \"./MithrilToken.sol\";\nimport \"./IMithrilBooster.sol\";\nimport \"./SafeMath.sol\";\nimport \"./ERC721Basic.sol\";\nimport \"./ERC20Interface.sol\";\nimport \"./Registrar.sol\";\n\ncontract IMithrilToken is ERC20Interface {\n    function transferFromOrigin(address to, uint tokens) public returns (bool success);\n}\n\n/**\n * The MithrilTokenQuarry contract is a registrar for the Mineables network. It holds a listing of all \n * available Mineable Tokens that have been registered, provides access control to underlying token factories,\n * and provisions 0xMithril anti-gas rebates to all mint operations on the Mineables network.\n *\n * author: jlogelin (https://github.com/jlogelin)\n *\n */\ncontract MithrilTokenQuarry is Registrar {\n\n    using SafeMath for uint;\n\n    // default antigas reward\n    uint public MITHRIL_ANTIGAS_REWARD = 82727;\n\n    // 0xMithril token address\n    address public mithrilTokenAddress;\n\n    // Base artifact booster address\n    address public boosterAddress;\n\n    event AntigasReward(uint amount);\n\n    event Mined(address indexed from,  address tokenContract, bytes32 newChallengeNumber);\n    \n    event TokenRegistered(address tokenAddress, string tokenSymbol, string tokenName, \n        uint8 tokenDecimals, uint initialReward);\n\n    /**\n     * Constructor function\n     *\n     * Initializes contract with a target booster contract address and the 0xMithril token\n     * address, allocating 1 million 0xMithril for anti-gas rewards.\n     *\n     * @param _boosterToken the address of the ERC721 base artifact\n     * @param _mithrilTokenAddress the address of the ERC20/ERC918 0xMithril Token\n     */\n    constructor(address _boosterToken, address _mithrilTokenAddress) public {\n      require(address(0x0) != _boosterToken, \"Invalid booster address 0x0 [ MithrilTokenQuarry.constructor() ]\");\n      require(address(0x0) != _mithrilTokenAddress, \"Invalid Mithril address 0x0 [ MithrilTokenQuarry.constructor() ]\");\n        \n      boosterAddress = _boosterToken;\n      mithrilTokenAddress = _mithrilTokenAddress;\n\n      // Mithril Mining Network Tokens antigas rewards\n      IMithrilToken(mithrilTokenAddress).transferFromOrigin(this, 1000000*10**uint(18));\n    }\n\n    /**\n     * registerMineable function\n     *\n     * Public function that registers a mineable token with the quarry, by applying\n     * appropriate network permissions and storing the token's address into the registry.\n     *\n     * @param _targetToken the address of the target token\n     * @param _mineableToken the address of the ERC918 Mineable Token\n     */\n    function registerMineable(address _targetToken, address _mineableToken) \n        public onlyAdminOrMineable\n    {   \n        addRole(_mineableToken, ROLE_MINEABLE);\n        putMineable(_targetToken, _mineableToken);\n    }\n\n    /**\n     * setAntigasReward function\n     *\n     * Public protected function that allows the quarry owner to set antigas reward amount.\n     *\n     * @param _antigasReward the new anti-gas reward\n     */\n    function setAntigasReward(uint _antigasReward) public onlyAdmin {\n        MITHRIL_ANTIGAS_REWARD = _antigasReward;\n    }\n\n    /**\n     * setAntigasReward function\n     *\n     * Public protected function that rewards 0xMithril anti-gas to target minter.\n     *\n     */\n    function rewardAntigas()\n         public onlyAdminOrMineable\n    {\n        uint antigas = MITHRIL_ANTIGAS_REWARD.mul(tx.gasprice);\n        if( ERC20Interface(mithrilTokenAddress).balanceOf(this) >= antigas ) {\n            ERC20Interface(mithrilTokenAddress).transfer(tx.origin, antigas);\n            emit AntigasReward(antigas);\n        }\n    }\n\n    /**\n     * upgradeBoosterAddress function\n     *\n     * Public protected function that allows the contract owner to upgrade the booster address.\n     *\n     * @param _newBoosterAddress the new booster contract address\n     */\n    function upgradeBoosterAddress(address _newBoosterAddress) public onlyAdmin {\n        boosterAddress = _newBoosterAddress;\n    }\n\n    /**\n     * addMineableRole function\n     *\n     * Public protected function that allows the contract owner to add a mineable role\n     * to a target user or contract.\n     *\n     * @param _target the target contract address\n     */\n    function addMineableRole(address _target)\n        onlyAdmin\n        public\n    {\n        addRole(_target, ROLE_MINEABLE);\n    }\n\n    /**\n     * revokeMineableRole function\n     *\n     * Public protected function that allows the contract owner to revoke a mineable role\n     * from a target user or contract.\n     *\n     * @param _target the target contract address\n     */\n    function revokeMineableRole(address _target)\n        onlyAdmin\n        public\n    {\n        // revert if the user isn't an advisor\n        checkRole(_target, ROLE_MINEABLE);\n\n        // remove the mineable's role\n        removeRole(_target, ROLE_MINEABLE);\n    }\n\n}",
  "sourcePath": "/Users/logelj1/Documents/playground/0xMithril/mithril-repo/0xmithriltoken/contracts/MithrilTokenQuarry.sol",
  "compiler": {
    "name": "solc",
    "version": "0.4.24+commit.e67f0147.Emscripten.clang"
  },
  "schemaVersion": "2.0.1",
  "updatedAt": "2018-10-07T16:59:21.616Z"
}