{
  "contractName": "VirtualMiningBoard",
  "abi": [
    {
      "constant": true,
      "inputs": [
        {
          "name": "_id",
          "type": "uint256"
        }
      ],
      "name": "name",
      "outputs": [
        {
          "name": "",
          "type": "string"
        }
      ],
      "payable": false,
      "stateMutability": "view",
      "type": "function"
    },
    {
      "constant": true,
      "inputs": [],
      "name": "name",
      "outputs": [
        {
          "name": "",
          "type": "string"
        }
      ],
      "payable": false,
      "stateMutability": "view",
      "type": "function"
    },
    {
      "constant": true,
      "inputs": [
        {
          "name": "_tokenId",
          "type": "uint256"
        }
      ],
      "name": "getApproved",
      "outputs": [
        {
          "name": "",
          "type": "address"
        }
      ],
      "payable": false,
      "stateMutability": "view",
      "type": "function"
    },
    {
      "constant": false,
      "inputs": [
        {
          "name": "_to",
          "type": "address"
        },
        {
          "name": "_tokenId",
          "type": "uint256"
        }
      ],
      "name": "approve",
      "outputs": [],
      "payable": false,
      "stateMutability": "nonpayable",
      "type": "function"
    },
    {
      "constant": true,
      "inputs": [
        {
          "name": "_id",
          "type": "uint256"
        }
      ],
      "name": "childArtifacts",
      "outputs": [
        {
          "name": "",
          "type": "uint256[]"
        }
      ],
      "payable": false,
      "stateMutability": "view",
      "type": "function"
    },
    {
      "constant": true,
      "inputs": [
        {
          "name": "",
          "type": "address"
        }
      ],
      "name": "coolDownEndTimes",
      "outputs": [
        {
          "name": "",
          "type": "uint256"
        }
      ],
      "payable": false,
      "stateMutability": "view",
      "type": "function"
    },
    {
      "constant": true,
      "inputs": [],
      "name": "totalSupply",
      "outputs": [
        {
          "name": "",
          "type": "uint256"
        }
      ],
      "payable": false,
      "stateMutability": "view",
      "type": "function"
    },
    {
      "constant": false,
      "inputs": [
        {
          "name": "_from",
          "type": "address"
        },
        {
          "name": "_to",
          "type": "address"
        },
        {
          "name": "_tokenId",
          "type": "uint256"
        }
      ],
      "name": "transferFrom",
      "outputs": [],
      "payable": false,
      "stateMutability": "nonpayable",
      "type": "function"
    },
    {
      "constant": true,
      "inputs": [
        {
          "name": "_owner",
          "type": "address"
        },
        {
          "name": "_index",
          "type": "uint256"
        }
      ],
      "name": "tokenOfOwnerByIndex",
      "outputs": [
        {
          "name": "",
          "type": "uint256"
        }
      ],
      "payable": false,
      "stateMutability": "view",
      "type": "function"
    },
    {
      "constant": true,
      "inputs": [],
      "name": "childArtifactAddress",
      "outputs": [
        {
          "name": "",
          "type": "address"
        }
      ],
      "payable": false,
      "stateMutability": "view",
      "type": "function"
    },
    {
      "constant": false,
      "inputs": [
        {
          "name": "_from",
          "type": "address"
        },
        {
          "name": "_to",
          "type": "address"
        },
        {
          "name": "_tokenId",
          "type": "uint256"
        }
      ],
      "name": "safeTransferFrom",
      "outputs": [],
      "payable": false,
      "stateMutability": "nonpayable",
      "type": "function"
    },
    {
      "constant": true,
      "inputs": [
        {
          "name": "_tokenId",
          "type": "uint256"
        }
      ],
      "name": "exists",
      "outputs": [
        {
          "name": "",
          "type": "bool"
        }
      ],
      "payable": false,
      "stateMutability": "view",
      "type": "function"
    },
    {
      "constant": true,
      "inputs": [
        {
          "name": "_index",
          "type": "uint256"
        }
      ],
      "name": "tokenByIndex",
      "outputs": [
        {
          "name": "",
          "type": "uint256"
        }
      ],
      "payable": false,
      "stateMutability": "view",
      "type": "function"
    },
    {
      "constant": true,
      "inputs": [
        {
          "name": "_tokenId",
          "type": "uint256"
        }
      ],
      "name": "ownerOf",
      "outputs": [
        {
          "name": "",
          "type": "address"
        }
      ],
      "payable": false,
      "stateMutability": "view",
      "type": "function"
    },
    {
      "constant": false,
      "inputs": [
        {
          "name": "_boosterId",
          "type": "uint256"
        },
        {
          "name": "_children",
          "type": "uint256[]"
        }
      ],
      "name": "configureChildren",
      "outputs": [],
      "payable": false,
      "stateMutability": "nonpayable",
      "type": "function"
    },
    {
      "constant": true,
      "inputs": [
        {
          "name": "_owner",
          "type": "address"
        }
      ],
      "name": "balanceOf",
      "outputs": [
        {
          "name": "",
          "type": "uint256"
        }
      ],
      "payable": false,
      "stateMutability": "view",
      "type": "function"
    },
    {
      "constant": true,
      "inputs": [
        {
          "name": "_id",
          "type": "uint256"
        }
      ],
      "name": "mergedStats",
      "outputs": [
        {
          "name": "",
          "type": "string"
        },
        {
          "name": "",
          "type": "uint256[]"
        },
        {
          "name": "",
          "type": "uint256[]"
        }
      ],
      "payable": false,
      "stateMutability": "view",
      "type": "function"
    },
    {
      "constant": false,
      "inputs": [
        {
          "name": "num",
          "type": "uint256"
        }
      ],
      "name": "parseBigNum",
      "outputs": [
        {
          "name": "multiplier",
          "type": "uint256"
        },
        {
          "name": "exp",
          "type": "uint256"
        }
      ],
      "payable": false,
      "stateMutability": "nonpayable",
      "type": "function"
    },
    {
      "constant": true,
      "inputs": [],
      "name": "owner",
      "outputs": [
        {
          "name": "",
          "type": "address"
        }
      ],
      "payable": false,
      "stateMutability": "view",
      "type": "function"
    },
    {
      "constant": true,
      "inputs": [],
      "name": "symbol",
      "outputs": [
        {
          "name": "",
          "type": "string"
        }
      ],
      "payable": false,
      "stateMutability": "view",
      "type": "function"
    },
    {
      "constant": false,
      "inputs": [
        {
          "name": "_to",
          "type": "address"
        },
        {
          "name": "_approved",
          "type": "bool"
        }
      ],
      "name": "setApprovalForAll",
      "outputs": [],
      "payable": false,
      "stateMutability": "nonpayable",
      "type": "function"
    },
    {
      "constant": false,
      "inputs": [
        {
          "name": "_to",
          "type": "address"
        },
        {
          "name": "_tokenId",
          "type": "uint256"
        }
      ],
      "name": "transfer",
      "outputs": [],
      "payable": false,
      "stateMutability": "nonpayable",
      "type": "function"
    },
    {
      "constant": false,
      "inputs": [
        {
          "name": "_from",
          "type": "address"
        },
        {
          "name": "_to",
          "type": "address"
        },
        {
          "name": "_tokenId",
          "type": "uint256"
        },
        {
          "name": "_data",
          "type": "bytes"
        }
      ],
      "name": "safeTransferFrom",
      "outputs": [],
      "payable": false,
      "stateMutability": "nonpayable",
      "type": "function"
    },
    {
      "constant": false,
      "inputs": [
        {
          "name": "_boosterId",
          "type": "uint256"
        }
      ],
      "name": "removeAllChildren",
      "outputs": [],
      "payable": false,
      "stateMutability": "nonpayable",
      "type": "function"
    },
    {
      "constant": false,
      "inputs": [
        {
          "name": "_boosterId",
          "type": "uint256"
        },
        {
          "name": "_index",
          "type": "uint256"
        }
      ],
      "name": "removeChildArtifact",
      "outputs": [],
      "payable": false,
      "stateMutability": "nonpayable",
      "type": "function"
    },
    {
      "constant": true,
      "inputs": [
        {
          "name": "_tokenId",
          "type": "uint256"
        }
      ],
      "name": "tokenURI",
      "outputs": [
        {
          "name": "",
          "type": "string"
        }
      ],
      "payable": false,
      "stateMutability": "view",
      "type": "function"
    },
    {
      "constant": true,
      "inputs": [
        {
          "name": "num",
          "type": "uint256"
        }
      ],
      "name": "parseOp",
      "outputs": [
        {
          "name": "target",
          "type": "uint256"
        },
        {
          "name": "op",
          "type": "uint256"
        }
      ],
      "payable": false,
      "stateMutability": "pure",
      "type": "function"
    },
    {
      "constant": true,
      "inputs": [
        {
          "name": "_owner",
          "type": "address"
        },
        {
          "name": "_operator",
          "type": "address"
        }
      ],
      "name": "isApprovedForAll",
      "outputs": [
        {
          "name": "",
          "type": "bool"
        }
      ],
      "payable": false,
      "stateMutability": "view",
      "type": "function"
    },
    {
      "constant": true,
      "inputs": [
        {
          "name": "_id",
          "type": "uint256"
        }
      ],
      "name": "baseStats",
      "outputs": [
        {
          "name": "",
          "type": "string"
        },
        {
          "name": "",
          "type": "uint256[]"
        },
        {
          "name": "",
          "type": "uint256[]"
        }
      ],
      "payable": false,
      "stateMutability": "view",
      "type": "function"
    },
    {
      "constant": false,
      "inputs": [
        {
          "name": "_newOwner",
          "type": "address"
        }
      ],
      "name": "transferOwnership",
      "outputs": [],
      "payable": false,
      "stateMutability": "nonpayable",
      "type": "function"
    },
    {
      "inputs": [
        {
          "name": "_childArtifactAddress",
          "type": "address"
        },
        {
          "name": "_symbol",
          "type": "string"
        },
        {
          "name": "_name",
          "type": "string"
        }
      ],
      "payable": false,
      "stateMutability": "nonpayable",
      "type": "constructor"
    },
    {
      "anonymous": false,
      "inputs": [
        {
          "indexed": false,
          "name": "boosterId",
          "type": "uint256"
        },
        {
          "indexed": false,
          "name": "adjustedReward",
          "type": "uint256"
        }
      ],
      "name": "AdjustReward",
      "type": "event"
    },
    {
      "anonymous": false,
      "inputs": [
        {
          "indexed": false,
          "name": "boosterId",
          "type": "uint256"
        },
        {
          "indexed": false,
          "name": "difficulty",
          "type": "uint256"
        },
        {
          "indexed": false,
          "name": "adjustedDifficulty",
          "type": "uint256"
        }
      ],
      "name": "AdjustDifficulty",
      "type": "event"
    },
    {
      "anonymous": false,
      "inputs": [
        {
          "indexed": false,
          "name": "owner",
          "type": "address"
        },
        {
          "indexed": false,
          "name": "tokenId",
          "type": "uint256"
        },
        {
          "indexed": false,
          "name": "name",
          "type": "string"
        },
        {
          "indexed": false,
          "name": "statistics",
          "type": "uint256[]"
        }
      ],
      "name": "MintBaseArtifact",
      "type": "event"
    },
    {
      "anonymous": false,
      "inputs": [
        {
          "indexed": false,
          "name": "boosterId",
          "type": "uint256"
        },
        {
          "indexed": false,
          "name": "artifactId",
          "type": "uint256"
        }
      ],
      "name": "AddChildArtifact",
      "type": "event"
    },
    {
      "anonymous": false,
      "inputs": [
        {
          "indexed": false,
          "name": "boosterId",
          "type": "uint256"
        },
        {
          "indexed": false,
          "name": "artifactId",
          "type": "uint256"
        }
      ],
      "name": "RemoveChildArtifact",
      "type": "event"
    },
    {
      "anonymous": false,
      "inputs": [
        {
          "indexed": true,
          "name": "_from",
          "type": "address"
        },
        {
          "indexed": true,
          "name": "_to",
          "type": "address"
        }
      ],
      "name": "OwnershipTransferred",
      "type": "event"
    },
    {
      "anonymous": false,
      "inputs": [
        {
          "indexed": true,
          "name": "_from",
          "type": "address"
        },
        {
          "indexed": true,
          "name": "_to",
          "type": "address"
        },
        {
          "indexed": false,
          "name": "_tokenId",
          "type": "uint256"
        }
      ],
      "name": "Transfer",
      "type": "event"
    },
    {
      "anonymous": false,
      "inputs": [
        {
          "indexed": true,
          "name": "_owner",
          "type": "address"
        },
        {
          "indexed": true,
          "name": "_approved",
          "type": "address"
        },
        {
          "indexed": false,
          "name": "_tokenId",
          "type": "uint256"
        }
      ],
      "name": "Approval",
      "type": "event"
    },
    {
      "anonymous": false,
      "inputs": [
        {
          "indexed": true,
          "name": "_owner",
          "type": "address"
        },
        {
          "indexed": true,
          "name": "_operator",
          "type": "address"
        },
        {
          "indexed": false,
          "name": "_approved",
          "type": "bool"
        }
      ],
      "name": "ApprovalForAll",
      "type": "event"
    },
    {
      "constant": false,
      "inputs": [
        {
          "name": "_owner",
          "type": "address"
        },
        {
          "name": "_name",
          "type": "string"
        },
        {
          "name": "_statistics",
          "type": "uint256[]"
        }
      ],
      "name": "mint",
      "outputs": [
        {
          "name": "_boosterId",
          "type": "uint256"
        }
      ],
      "payable": false,
      "stateMutability": "nonpayable",
      "type": "function"
    },
    {
      "constant": false,
      "inputs": [
        {
          "name": "_boosterId",
          "type": "uint256"
        },
        {
          "name": "_artifactId",
          "type": "uint256"
        }
      ],
      "name": "addChildArtifact",
      "outputs": [],
      "payable": false,
      "stateMutability": "nonpayable",
      "type": "function"
    },
    {
      "constant": false,
      "inputs": [
        {
          "name": "_tokenId",
          "type": "uint256"
        },
        {
          "name": "_miningTarget",
          "type": "uint256"
        }
      ],
      "name": "adjustDifficulty",
      "outputs": [
        {
          "name": "adjustedMiningTarget",
          "type": "uint256"
        }
      ],
      "payable": false,
      "stateMutability": "nonpayable",
      "type": "function"
    },
    {
      "constant": false,
      "inputs": [
        {
          "name": "_tokenId",
          "type": "uint256"
        },
        {
          "name": "_miningReward",
          "type": "uint256"
        }
      ],
      "name": "adjustReward",
      "outputs": [
        {
          "name": "adjustedReward",
          "type": "uint256"
        }
      ],
      "payable": false,
      "stateMutability": "nonpayable",
      "type": "function"
    },
    {
      "constant": true,
      "inputs": [
        {
          "name": "_id",
          "type": "uint256"
        }
      ],
      "name": "experience",
      "outputs": [
        {
          "name": "",
          "type": "uint256"
        }
      ],
      "payable": false,
      "stateMutability": "view",
      "type": "function"
    },
    {
      "constant": true,
      "inputs": [
        {
          "name": "_id",
          "type": "uint256"
        }
      ],
      "name": "lifeDecrementer",
      "outputs": [
        {
          "name": "",
          "type": "uint256"
        }
      ],
      "payable": false,
      "stateMutability": "view",
      "type": "function"
    },
    {
      "constant": true,
      "inputs": [
        {
          "name": "_id",
          "type": "uint256"
        }
      ],
      "name": "executionCost",
      "outputs": [
        {
          "name": "",
          "type": "uint256"
        }
      ],
      "payable": false,
      "stateMutability": "view",
      "type": "function"
    },
    {
      "constant": true,
      "inputs": [
        {
          "name": "_id",
          "type": "uint256"
        }
      ],
      "name": "sockets",
      "outputs": [
        {
          "name": "",
          "type": "uint256"
        }
      ],
      "payable": false,
      "stateMutability": "view",
      "type": "function"
    },
    {
      "constant": true,
      "inputs": [
        {
          "name": "_id",
          "type": "uint256"
        }
      ],
      "name": "vHash",
      "outputs": [
        {
          "name": "",
          "type": "uint256"
        }
      ],
      "payable": false,
      "stateMutability": "view",
      "type": "function"
    },
    {
      "constant": true,
      "inputs": [
        {
          "name": "_id",
          "type": "uint256"
        }
      ],
      "name": "accuracy",
      "outputs": [
        {
          "name": "",
          "type": "uint256"
        }
      ],
      "payable": false,
      "stateMutability": "view",
      "type": "function"
    },
    {
      "constant": true,
      "inputs": [
        {
          "name": "_id",
          "type": "uint256"
        }
      ],
      "name": "level",
      "outputs": [
        {
          "name": "",
          "type": "uint256"
        }
      ],
      "payable": false,
      "stateMutability": "view",
      "type": "function"
    }
  ],
  "bytecode": "0x60806040527d040000000000000000000000000000000000000000000000000000000000600e557fffffffffffffffffffffffffffffffffffffffffffffffffffffffffffffffff600f553480156200005757600080fd5b50604051620048143803806200481483398101806040528101908080519060200190929190805182019291906020018051820192919050505082828281818160049080519060200190620000ad92919062000157565b508060059080519060200190620000c692919062000157565b50505033600b60006101000a81548173ffffffffffffffffffffffffffffffffffffffff021916908373ffffffffffffffffffffffffffffffffffffffff16021790555082600d60006101000a81548173ffffffffffffffffffffffffffffffffffffffff021916908373ffffffffffffffffffffffffffffffffffffffff16021790555050505050505062000206565b828054600181600116156101000203166002900490600052602060002090601f016020900481019282601f106200019a57805160ff1916838001178555620001cb565b82800160010185558215620001cb579182015b82811115620001ca578251825591602001919060010190620001ad565b5b509050620001da9190620001de565b5090565b6200020391905b80821115620001ff576000816000905550600101620001e5565b5090565b90565b6145fe80620002166000396000f3006080604052600436106101f8576000357c0100000000000000000000000000000000000000000000000000000000900463ffffffff168062ad800c146101fd57806305c58df2146102a357806306fdde03146102e4578063081812fc14610374578063095ea7b3146103e157806311d8a6961461042e578063162eba74146104b057806318160ddd1461050757806323b872dd146105325780632f745c591461059f5780633455c25c1461060057806336d257d61461063757806342842e0e1461068e5780634f558e79146106fb5780634f6ccce7146107405780636352211e146107815780636b9fd813146107ee57806370a082311461085e57806373706743146108b55780637accd3bc146109eb5780638da5cb5b14610a335780638ff142eb14610a8a578063912ca8b414610b6a5780639499cf6914610bb557806395d89b4114610bf6578063978098fd14610c86578063a22cb46514610cd1578063a9059cbb14610d20578063a9ac8ac414610d6d578063b88d4fde14610dae578063c0194e7614610e61578063c351815f14610e8e578063c4739f8914610ec5578063c87b56dd14610f06578063ca739abc14610fac578063d3e9716514610fed578063e564cdb81461102e578063e60ddf2114611076578063e985e9c5146110b7578063ea13259114611132578063f2fde38b14611268575b600080fd5b34801561020957600080fd5b50610228600480360381019080803590602001909291905050506112ab565b6040518080602001828103825283818151815260200191508051906020019080838360005b8381101561026857808201518184015260208101905061024d565b50505050905090810190601f1680156102955780820380516001836020036101000a031916815260200191505b509250505060405180910390f35b3480156102af57600080fd5b506102ce60048036038101908080359060200190929190505050611363565b6040518082815260200191505060405180910390f35b3480156102f057600080fd5b506102f961139b565b6040518080602001828103825283818151815260200191508051906020019080838360005b8381101561033957808201518184015260208101905061031e565b50505050905090810190601f1680156103665780820380516001836020036101000a031916815260200191505b509250505060405180910390f35b34801561038057600080fd5b5061039f6004803603810190808035906020019092919050505061143d565b604051808273ffffffffffffffffffffffffffffffffffffffff1673ffffffffffffffffffffffffffffffffffffffff16815260200191505060405180910390f35b3480156103ed57600080fd5b5061042c600480360381019080803573ffffffffffffffffffffffffffffffffffffffff1690602001909291908035906020019092919050505061147a565b005b34801561043a57600080fd5b5061045960048036038101908080359060200190929190505050611640565b6040518080602001828103825283818151815260200191508051906020019060200280838360005b8381101561049c578082015181840152602081019050610481565b505050509050019250505060405180910390f35b3480156104bc57600080fd5b506104f1600480360381019080803573ffffffffffffffffffffffffffffffffffffffff1690602001909291905050506116ae565b6040518082815260200191505060405180910390f35b34801561051357600080fd5b5061051c6116c6565b6040518082815260200191505060405180910390f35b34801561053e57600080fd5b5061059d600480360381019080803573ffffffffffffffffffffffffffffffffffffffff169060200190929190803573ffffffffffffffffffffffffffffffffffffffff169060200190929190803590602001909291905050506116d3565b005b3480156105ab57600080fd5b506105ea600480360381019080803573ffffffffffffffffffffffffffffffffffffffff169060200190929190803590602001909291905050506117ea565b6040518082815260200191505060405180910390f35b34801561060c57600080fd5b506106356004803603810190808035906020019092919080359060200190929190505050611861565b005b34801561064357600080fd5b5061064c6118e2565b604051808273ffffffffffffffffffffffffffffffffffffffff1673ffffffffffffffffffffffffffffffffffffffff16815260200191505060405180910390f35b34801561069a57600080fd5b506106f9600480360381019080803573ffffffffffffffffffffffffffffffffffffffff169060200190929190803573ffffffffffffffffffffffffffffffffffffffff16906020019092919080359060200190929190505050611908565b005b34801561070757600080fd5b5061072660048036038101908080359060200190929190505050611940565b604051808215151515815260200191505060405180910390f35b34801561074c57600080fd5b5061076b600480360381019080803590602001909291905050506119b1565b6040518082815260200191505060405180910390f35b34801561078d57600080fd5b506107ac600480360381019080803590602001909291905050506119e9565b604051808273ffffffffffffffffffffffffffffffffffffffff1673ffffffffffffffffffffffffffffffffffffffff16815260200191505060405180910390f35b3480156107fa57600080fd5b5061085c6004803603810190808035906020019092919080359060200190820180359060200190808060200260200160405190810160405280939291908181526020018383602002808284378201915050505050509192919290505050611a66565b005b34801561086a57600080fd5b5061089f600480360381019080803573ffffffffffffffffffffffffffffffffffffffff169060200190929190505050611b13565b6040518082815260200191505060405180910390f35b3480156108c157600080fd5b506108e060048036038101908080359060200190929190505050611b97565b60405180806020018060200180602001848103845287818151815260200191508051906020019080838360005b8381101561092857808201518184015260208101905061090d565b50505050905090810190601f1680156109555780820380516001836020036101000a031916815260200191505b50848103835286818151815260200191508051906020019060200280838360005b83811015610991578082015181840152602081019050610976565b50505050905001848103825285818151815260200191508051906020019060200280838360005b838110156109d35780820151818401526020810190506109b8565b50505050905001965050505050505060405180910390f35b3480156109f757600080fd5b50610a1660048036038101908080359060200190929190505050611d2b565b604051808381526020018281526020019250505060405180910390f35b348015610a3f57600080fd5b50610a48611d66565b604051808273ffffffffffffffffffffffffffffffffffffffff1673ffffffffffffffffffffffffffffffffffffffff16815260200191505060405180910390f35b348015610a9657600080fd5b50610b54600480360381019080803573ffffffffffffffffffffffffffffffffffffffff169060200190929190803590602001908201803590602001908080601f016020809104026020016040519081016040528093929190818152602001838380828437820191505050505050919291929080359060200190820180359060200190808060200260200160405190810160405280939291908181526020018383602002808284378201915050505050509192919290505050611d8c565b6040518082815260200191505060405180910390f35b348015610b7657600080fd5b50610b9f6004803603810190808035906020019092919080359060200190929190505050611e0f565b6040518082815260200191505060405180910390f35b348015610bc157600080fd5b50610be060048036038101908080359060200190929190505050611ee2565b6040518082815260200191505060405180910390f35b348015610c0257600080fd5b50610c0b611f1a565b6040518080602001828103825283818151815260200191508051906020019080838360005b83811015610c4b578082015181840152602081019050610c30565b50505050905090810190601f168015610c785780820380516001836020036101000a031916815260200191505b509250505060405180910390f35b348015610c9257600080fd5b50610cbb6004803603810190808035906020019092919080359060200190929190505050611fbc565b6040518082815260200191505060405180910390f35b348015610cdd57600080fd5b50610d1e600480360381019080803573ffffffffffffffffffffffffffffffffffffffff169060200190929190803515159060200190929190505050612188565b005b348015610d2c57600080fd5b50610d6b600480360381019080803573ffffffffffffffffffffffffffffffffffffffff169060200190929190803590602001909291905050506122c4565b005b348015610d7957600080fd5b50610d98600480360381019080803590602001909291905050506122db565b6040518082815260200191505060405180910390f35b348015610dba57600080fd5b50610e5f600480360381019080803573ffffffffffffffffffffffffffffffffffffffff169060200190929190803573ffffffffffffffffffffffffffffffffffffffff16906020019092919080359060200190929190803590602001908201803590602001908080601f0160208091040260200160405190810160405280939291908181526020018383808284378201915050505050509192919290505050612313565b005b348015610e6d57600080fd5b50610e8c60048036038101908080359060200190929190505050612352565b005b348015610e9a57600080fd5b50610ec3600480360381019080803590602001909291908035906020019092919050505061256f565b005b348015610ed157600080fd5b50610ef06004803603810190808035906020019092919050505061285b565b6040518082815260200191505060405180910390f35b348015610f1257600080fd5b50610f3160048036038101908080359060200190929190505050612893565b6040518080602001828103825283818151815260200191508051906020019080838360005b83811015610f71578082015181840152602081019050610f56565b50505050905090810190601f168015610f9e5780820380516001836020036101000a031916815260200191505b509250505060405180910390f35b348015610fb857600080fd5b50610fd76004803603810190808035906020019092919050505061295c565b6040518082815260200191505060405180910390f35b348015610ff957600080fd5b5061101860048036038101908080359060200190929190505050612994565b6040518082815260200191505060405180910390f35b34801561103a57600080fd5b50611059600480360381019080803590602001909291905050506129cc565b604051808381526020018281526020019250505060405180910390f35b34801561108257600080fd5b506110a160048036038101908080359060200190929190505050612a09565b6040518082815260200191505060405180910390f35b3480156110c357600080fd5b50611118600480360381019080803573ffffffffffffffffffffffffffffffffffffffff169060200190929190803573ffffffffffffffffffffffffffffffffffffffff169060200190929190505050612a41565b604051808215151515815260200191505060405180910390f35b34801561113e57600080fd5b5061115d60048036038101908080359060200190929190505050612ad5565b60405180806020018060200180602001848103845287818151815260200191508051906020019080838360005b838110156111a557808201518184015260208101905061118a565b50505050905090810190601f1680156111d25780820380516001836020036101000a031916815260200191505b50848103835286818151815260200191508051906020019060200280838360005b8381101561120e5780820151818401526020810190506111f3565b50505050905001848103825285818151815260200191508051906020019060200280838360005b83811015611250578082015181840152602081019050611235565b50505050905001965050505050505060405180910390f35b34801561127457600080fd5b506112a9600480360381019080803573ffffffffffffffffffffffffffffffffffffffff169060200190929190505050612c69565b005b6060600c60008381526020019081526020016000206000018054600181600116156101000203166002900480601f0160208091040260200160405190810160405280929190818152602001828054600181600116156101000203166002900480156113575780601f1061132c57610100808354040283529160200191611357565b820191906000526020600020905b81548152906001019060200180831161133a57829003601f168201915b50505050509050919050565b6000600c6000838152602001908152602001600020600301600681548110151561138957fe5b90600052602060002001549050919050565b606060048054600181600116156101000203166002900480601f0160208091040260200160405190810160405280929190818152602001828054600181600116156101000203166002900480156114335780601f1061140857610100808354040283529160200191611433565b820191906000526020600020905b81548152906001019060200180831161141657829003601f168201915b5050505050905090565b60006001600083815260200190815260200160002060009054906101000a900473ffffffffffffffffffffffffffffffffffffffff169050919050565b6000611485826119e9565b90508073ffffffffffffffffffffffffffffffffffffffff168373ffffffffffffffffffffffffffffffffffffffff16141515156114c257600080fd5b8073ffffffffffffffffffffffffffffffffffffffff163373ffffffffffffffffffffffffffffffffffffffff16148061150257506115018133612a41565b5b151561150d57600080fd5b600073ffffffffffffffffffffffffffffffffffffffff1661152e8361143d565b73ffffffffffffffffffffffffffffffffffffffff1614158061157e5750600073ffffffffffffffffffffffffffffffffffffffff168373ffffffffffffffffffffffffffffffffffffffff1614155b1561163b57826001600084815260200190815260200160002060006101000a81548173ffffffffffffffffffffffffffffffffffffffff021916908373ffffffffffffffffffffffffffffffffffffffff1602179055508273ffffffffffffffffffffffffffffffffffffffff168173ffffffffffffffffffffffffffffffffffffffff167f8c5be1e5ebec7d5bd14f71427d1e84f3dd0314c0f7b2291e5b200ac8c7c3b925846040518082815260200191505060405180910390a35b505050565b6060600c60008381526020019081526020016000206001018054806020026020016040519081016040528092919081815260200182805480156116a257602002820191906000526020600020905b81548152602001906001019080831161168e575b50505050509050919050565b60106020528060005260406000206000915090505481565b6000600880549050905090565b806116de3382612d09565b15156116e957600080fd5b600073ffffffffffffffffffffffffffffffffffffffff168473ffffffffffffffffffffffffffffffffffffffff161415151561172557600080fd5b600073ffffffffffffffffffffffffffffffffffffffff168373ffffffffffffffffffffffffffffffffffffffff161415151561176157600080fd5b61176b8483612d9e565b6117758483612f07565b61177f838361311f565b8273ffffffffffffffffffffffffffffffffffffffff168473ffffffffffffffffffffffffffffffffffffffff167fddf252ad1be2c89b69c2b068fc378daa952ba7f163c4a11628f55a4df523b3ef846040518082815260200191505060405180910390a350505050565b60006117f583611b13565b8210151561180257600080fd5b600660008473ffffffffffffffffffffffffffffffffffffffff1673ffffffffffffffffffffffffffffffffffffffff1681526020019081526020016000208281548110151561184e57fe5b9060005260206000200154905092915050565b813273ffffffffffffffffffffffffffffffffffffffff16611882826119e9565b73ffffffffffffffffffffffffffffffffffffffff161415156118a457600080fd5b6118ad83612a09565b600c6000858152602001908152602001600020600101805490501015156118d357600080fd5b6118dd83836131f6565b505050565b600d60009054906101000a900473ffffffffffffffffffffffffffffffffffffffff1681565b806119133382612d09565b151561191e57600080fd5b61193a8484846020604051908101604052806000815250612313565b50505050565b60008060008084815260200190815260200160002060009054906101000a900473ffffffffffffffffffffffffffffffffffffffff169050600073ffffffffffffffffffffffffffffffffffffffff168173ffffffffffffffffffffffffffffffffffffffff161415915050919050565b60006119bb6116c6565b821015156119c857600080fd5b6008828154811015156119d757fe5b90600052602060002001549050919050565b60008060008084815260200190815260200160002060009054906101000a900473ffffffffffffffffffffffffffffffffffffffff169050600073ffffffffffffffffffffffffffffffffffffffff168173ffffffffffffffffffffffffffffffffffffffff1614151515611a5d57600080fd5b80915050919050565b60003273ffffffffffffffffffffffffffffffffffffffff16611a88846119e9565b73ffffffffffffffffffffffffffffffffffffffff16141515611aaa57600080fd5b600c60008481526020019081526020016000206001016000611acc9190614441565b5b8151811015611b0457611af7838383815181101515611ae857fe5b9060200190602002015161336f565b8080600101915050611acd565b611b0d8361347a565b50505050565b60008073ffffffffffffffffffffffffffffffffffffffff168273ffffffffffffffffffffffffffffffffffffffff1614151515611b5057600080fd5b600260008373ffffffffffffffffffffffffffffffffffffffff1673ffffffffffffffffffffffffffffffffffffffff168152602001908152602001600020549050919050565b6060806060600c6000858152602001908152602001600020600001600c6000868152602001908152602001600020600301600c6000878152602001908152602001600020600101828054600181600116156101000203166002900480601f016020809104026020016040519081016040528092919081815260200182805460018160011615610100020316600290048015611c735780601f10611c4857610100808354040283529160200191611c73565b820191906000526020600020905b815481529060010190602001808311611c5657829003601f168201915b5050505050925081805480602002602001604051908101604052809291908181526020018280548015611cc557602002820191906000526020600020905b815481526020019060010190808311611cb1575b5050505050915080805480602002602001604051908101604052809291908181526020018280548015611d1757602002820191906000526020600020905b815481526020019060010190808311611d03575b505050505090509250925092509193909250565b6000806000839050606481811515611d3f57fe5b069150606481811515611d4e57fe5b049050600a81811515611d5d57fe5b06925050915091565b600b60009054906101000a900473ffffffffffffffffffffffffffffffffffffffff1681565b6000600b60009054906101000a900473ffffffffffffffffffffffffffffffffffffffff1673ffffffffffffffffffffffffffffffffffffffff163373ffffffffffffffffffffffffffffffffffffffff16141515611dea57600080fd5b6007825110151515611dfb57600080fd5b611e06848484613587565b90509392505050565b600080833273ffffffffffffffffffffffffffffffffffffffff16611e33826119e9565b73ffffffffffffffffffffffffffffffffffffffff16141515611e5557600080fd5b611e5e8561285b565b9150611e866064611e78848761379690919063ffffffff16565b6137c790919063ffffffff16565b92508383141515611eda57611e9a856137eb565b7f7d0941d6b095b74cfc1d8a196ff517ed8b55e42dd9dc3bfa5891a8f431cd34d18584604051808381526020018281526020019250505060405180910390a15b505092915050565b6000600c60008381526020019081526020016000206003016002815481101515611f0857fe5b90600052602060002001549050919050565b606060058054600181600116156101000203166002900480601f016020809104026020016040519081016040528092919081815260200182805460018160011615610100020316600290048015611fb25780601f10611f8757610100808354040283529160200191611fb2565b820191906000526020600020905b815481529060010190602001808311611f9557829003601f168201915b5050505050905090565b600080600080600080873273ffffffffffffffffffffffffffffffffffffffff16611fe6826119e9565b73ffffffffffffffffffffffffffffffffffffffff1614151561200857600080fd5b612039887d0400000000000000000000000000000000000000000000000000000000006137c790919063ffffffff16565b95506120448961295c565b945061205c866240000061379690919063ffffffff16565b93506120738561025861379690919063ffffffff16565b9250838311156120da57600e5496507f9b853d71afabc077f0955001e4b574bb4323add8ae415946ca581d28703c5eeb89898960405180848152602001838152602001828152602001935050505060405180910390a16120d2896137eb565b86965061217c565b6120ed83856139f290919063ffffffff16565b9150600f548210156121255761210e82600f546137c790919063ffffffff16565b9650600e5487111561212057600e5496505b61212b565b600e5496505b7f9b853d71afabc077f0955001e4b574bb4323add8ae415946ca581d28703c5eeb89898960405180848152602001838152602001828152602001935050505060405180910390a161217b896137eb565b5b50505050505092915050565b3373ffffffffffffffffffffffffffffffffffffffff168273ffffffffffffffffffffffffffffffffffffffff16141515156121c357600080fd5b80600360003373ffffffffffffffffffffffffffffffffffffffff1673ffffffffffffffffffffffffffffffffffffffff16815260200190815260200160002060008473ffffffffffffffffffffffffffffffffffffffff1673ffffffffffffffffffffffffffffffffffffffff16815260200190815260200160002060006101000a81548160ff0219169083151502179055508173ffffffffffffffffffffffffffffffffffffffff163373ffffffffffffffffffffffffffffffffffffffff167f17307eab39ab6107e8899845ad3d59bd9653f200f220920489ca2b5937696c3183604051808215151515815260200191505060405180910390a35050565b6122cd81612352565b6122d78282613a0e565b5050565b6000600c6000838152602001908152602001600020600301600181548110151561230157fe5b90600052602060002001549050919050565b8161231e3382612d09565b151561232957600080fd5b6123348585856116d3565b61234085858585613a1d565b151561234b57600080fd5b5050505050565b6000803273ffffffffffffffffffffffffffffffffffffffff16612375846119e9565b73ffffffffffffffffffffffffffffffffffffffff1614151561239757600080fd5b6000600c6000858152602001908152602001600020600101805490501115156123bf5761256a565b600091505b600c60008481526020019081526020016000206001018054905082101561250a57600c60008481526020019081526020016000206001018281548110151561240857fe5b90600052602060002001549050600d60009054906101000a900473ffffffffffffffffffffffffffffffffffffffff1673ffffffffffffffffffffffffffffffffffffffff1663986b7d8a826040518263ffffffff167c010000000000000000000000000000000000000000000000000000000002815260040180828152602001915050600060405180830381600087803b1580156124a657600080fd5b505af11580156124ba573d6000803e3d6000fd5b505050507f26d4f2af75577a829b5609e9527f1e4baca1e8e27f0f9db66fc8f9db34f8cf458382604051808381526020018281526020019250505060405180910390a181806001019250506123c4565b6000600c60008581526020019081526020016000206001018161252d9190614462565b50600c6000848152602001908152602001600020600201600c600085815260200190815260200160002060030190805461256892919061448e565b505b505050565b6000803273ffffffffffffffffffffffffffffffffffffffff16612592856119e9565b73ffffffffffffffffffffffffffffffffffffffff161415156125b457600080fd5b600c600085815260200190815260200160002060010180549050831015156125db57612855565b600d60009054906101000a900473ffffffffffffffffffffffffffffffffffffffff1673ffffffffffffffffffffffffffffffffffffffff1663986b7d8a600c60008781526020019081526020016000206001018581548110151561263c57fe5b90600052602060002001546040518263ffffffff167c010000000000000000000000000000000000000000000000000000000002815260040180828152602001915050600060405180830381600087803b15801561269957600080fd5b505af11580156126ad573d6000803e3d6000fd5b505050508291505b6001600c6000868152602001908152602001600020600101805490500382101561274857600c6000858152602001908152602001600020600101600183018154811015156126ff57fe5b9060005260206000200154600c60008681526020019081526020016000206001018381548110151561272d57fe5b906000526020600020018190555081806001019250506126b5565b600c60008581526020019081526020016000206001016001600c6000878152602001908152602001600020600101805490500381548110151561278757fe5b90600052602060002001549050600c60008581526020019081526020016000206001016001600c600087815260200190815260200160002060010180549050038154811015156127d357fe5b9060005260206000200160009055600c600085815260200190815260200160002060010180548091906001900361280a9190614462565b506128148461347a565b507f26d4f2af75577a829b5609e9527f1e4baca1e8e27f0f9db66fc8f9db34f8cf458484604051808381526020018281526020019250505060405180910390a15b50505050565b6000600c6000838152602001908152602001600020600301600581548110151561288157fe5b90600052602060002001549050919050565b606061289e82611940565b15156128a957600080fd5b600a60008381526020019081526020016000208054600181600116156101000203166002900480601f0160208091040260200160405190810160405280929190818152602001828054600181600116156101000203166002900480156129505780601f1061292557610100808354040283529160200191612950565b820191906000526020600020905b81548152906001019060200180831161293357829003601f168201915b50505050509050919050565b6000600c6000838152602001908152602001600020600301600481548110151561298257fe5b90600052602060002001549050919050565b6000600c600083815260200190815260200160002060030160008154811015156129ba57fe5b90600052602060002001549050919050565b6000806000839050612710818115156129e157fe5b069150612710818115156129f157fe5b049050606481811515612a0057fe5b06925050915091565b6000600c60008381526020019081526020016000206003016003815481101515612a2f57fe5b90600052602060002001549050919050565b6000600360008473ffffffffffffffffffffffffffffffffffffffff1673ffffffffffffffffffffffffffffffffffffffff16815260200190815260200160002060008373ffffffffffffffffffffffffffffffffffffffff1673ffffffffffffffffffffffffffffffffffffffff16815260200190815260200160002060009054906101000a900460ff16905092915050565b6060806060600c6000858152602001908152602001600020600001600c6000868152602001908152602001600020600201600c6000878152602001908152602001600020600101828054600181600116156101000203166002900480601f016020809104026020016040519081016040528092919081815260200182805460018160011615610100020316600290048015612bb15780601f10612b8657610100808354040283529160200191612bb1565b820191906000526020600020905b815481529060010190602001808311612b9457829003601f168201915b5050505050925081805480602002602001604051908101604052809291908181526020018280548015612c0357602002820191906000526020600020905b815481526020019060010190808311612bef575b5050505050915080805480602002602001604051908101604052809291908181526020018280548015612c5557602002820191906000526020600020905b815481526020019060010190808311612c41575b505050505090509250925092509193909250565b600b60009054906101000a900473ffffffffffffffffffffffffffffffffffffffff1673ffffffffffffffffffffffffffffffffffffffff163373ffffffffffffffffffffffffffffffffffffffff16141515612cc557600080fd5b80600b60006101000a81548173ffffffffffffffffffffffffffffffffffffffff021916908373ffffffffffffffffffffffffffffffffffffffff16021790555050565b600080612d15836119e9565b90508073ffffffffffffffffffffffffffffffffffffffff168473ffffffffffffffffffffffffffffffffffffffff161480612d8457508373ffffffffffffffffffffffffffffffffffffffff16612d6c8461143d565b73ffffffffffffffffffffffffffffffffffffffff16145b80612d955750612d948185612a41565b5b91505092915050565b8173ffffffffffffffffffffffffffffffffffffffff16612dbe826119e9565b73ffffffffffffffffffffffffffffffffffffffff16141515612de057600080fd5b600073ffffffffffffffffffffffffffffffffffffffff166001600083815260200190815260200160002060009054906101000a900473ffffffffffffffffffffffffffffffffffffffff1673ffffffffffffffffffffffffffffffffffffffff16141515612f035760006001600083815260200190815260200160002060006101000a81548173ffffffffffffffffffffffffffffffffffffffff021916908373ffffffffffffffffffffffffffffffffffffffff160217905550600073ffffffffffffffffffffffffffffffffffffffff168273ffffffffffffffffffffffffffffffffffffffff167f8c5be1e5ebec7d5bd14f71427d1e84f3dd0314c0f7b2291e5b200ac8c7c3b925836040518082815260200191505060405180910390a35b5050565b6000806000612f168585613c0b565b60076000858152602001908152602001600020549250612f826001600660008873ffffffffffffffffffffffffffffffffffffffff1673ffffffffffffffffffffffffffffffffffffffff168152602001908152602001600020805490506139f290919063ffffffff16565b9150600660008673ffffffffffffffffffffffffffffffffffffffff1673ffffffffffffffffffffffffffffffffffffffff16815260200190815260200160002082815481101515612fd057fe5b9060005260206000200154905080600660008773ffffffffffffffffffffffffffffffffffffffff1673ffffffffffffffffffffffffffffffffffffffff1681526020019081526020016000208481548110151561302a57fe5b90600052602060002001819055506000600660008773ffffffffffffffffffffffffffffffffffffffff1673ffffffffffffffffffffffffffffffffffffffff1681526020019081526020016000208381548110151561308657fe5b9060005260206000200181905550600660008673ffffffffffffffffffffffffffffffffffffffff1673ffffffffffffffffffffffffffffffffffffffff1681526020019081526020016000208054809190600190036130e69190614462565b50600060076000868152602001908152602001600020819055508260076000838152602001908152602001600020819055505050505050565b600061312b8383613d39565b600660008473ffffffffffffffffffffffffffffffffffffffff1673ffffffffffffffffffffffffffffffffffffffff168152602001908152602001600020805490509050600660008473ffffffffffffffffffffffffffffffffffffffff1673ffffffffffffffffffffffffffffffffffffffff168152602001908152602001600020829080600181540180825580915050906001820390600052602060002001600090919290919091505550806007600084815260200190815260200160002081905550505050565b60003273ffffffffffffffffffffffffffffffffffffffff16613218846119e9565b73ffffffffffffffffffffffffffffffffffffffff1614151561323a57600080fd5b600d60009054906101000a900473ffffffffffffffffffffffffffffffffffffffff16905060008173ffffffffffffffffffffffffffffffffffffffff1663cddc9944846040518263ffffffff167c010000000000000000000000000000000000000000000000000000000002815260040180828152602001915050602060405180830381600087803b1580156132d057600080fd5b505af11580156132e4573d6000803e3d6000fd5b505050506040513d60208110156132fa57600080fd5b810190808051906020019092919050505014151561331757600080fd5b613321838361336f565b61332a8361347a565b507fbe5299213cdfd3ff5dfa97a362ebf98062034017f0e6f38c5bdaf6883452fddd8383604051808381526020018281526020019250505060405180910390a1505050565b6133798282613e91565b15151561338557600080fd5b600c6000838152602001908152602001600020600101819080600181540180825580915050906001820390600052602060002001600090919290919091505550600d60009054906101000a900473ffffffffffffffffffffffffffffffffffffffff1673ffffffffffffffffffffffffffffffffffffffff1663c55e0ec582846040518363ffffffff167c01000000000000000000000000000000000000000000000000000000000281526004018083815260200182815260200192505050600060405180830381600087803b15801561345e57600080fd5b505af1158015613472573d6000803e3d6000fd5b505050505050565b6060600080600c60008581526020019081526020016000206002018054806020026020016040519081016040528092919081815260200182805480156134df57602002820191906000526020600020905b8154815260200190600101908083116134cb575b50505050509250600c6000858152602001908152602001600020600101805490509150600090505b8181101561355557613546600c60008681526020019081526020016000206001018281548110151561353557fe5b906000526020600020015484613f53565b92508080600101915050613507565b82600c6000868152602001908152602001600020600301908051906020019061357f9291906144e0565b505050919050565b600080600b60009054906101000a900473ffffffffffffffffffffffffffffffffffffffff1673ffffffffffffffffffffffffffffffffffffffff163373ffffffffffffffffffffffffffffffffffffffff161415156135e657600080fd5b61360160016135f36116c6565b61410c90919063ffffffff16565b9150600c600083815260200190815260200160002090508381600001908051906020019061363092919061452d565b50828160020190805190602001906136499291906144e0565b50828160030190805190602001906136629291906144e0565b5061366d8583614128565b7fece952c5890c3df112a6316d0093513b3dc2f9851655290a4919839490a2a07e85838686604051808573ffffffffffffffffffffffffffffffffffffffff1673ffffffffffffffffffffffffffffffffffffffff1681526020018481526020018060200180602001838103835285818151815260200191508051906020019080838360005b8381101561370e5780820151818401526020810190506136f3565b50505050905090810190601f16801561373b5780820380516001836020036101000a031916815260200191505b50838103825284818151815260200191508051906020019060200280838360005b8381101561377757808201518184015260208101905061375c565b50505050905001965050505050505060405180910390a1509392505050565b6000818302905060008314806137b657508183828115156137b357fe5b04145b15156137c157600080fd5b92915050565b600080821115156137d757600080fd5b81838115156137e257fe5b04905092915050565b600060606000806000806138376001600c60008a8152602001908152602001600020600301600081548110151561381e57fe5b906000526020600020015461410c90919063ffffffff16565b5061384187611640565b519550856040519080825280602002602001820160405280156138735781602001602082028038833980820191505090505b50945060009350600092505b858310156139ae57600d60009054906101000a900473ffffffffffffffffffffffffffffffffffffffff1673ffffffffffffffffffffffffffffffffffffffff166374cd64316138ce89611640565b858151811015156138db57fe5b906020019060200201516040518263ffffffff167c010000000000000000000000000000000000000000000000000000000002815260040180828152602001915050602060405180830381600087803b15801561393757600080fd5b505af115801561394b573d6000803e3d6000fd5b505050506040513d602081101561396157600080fd5b8101908080519060200190929190505050915060008214156139a15782858580600101965081518110151561399257fe5b90602001906020020181815250505b828060010193505061387f565b600090505b838110156139e9576139dc8786838151811015156139cd57fe5b9060200190602002015161256f565b80806001019150506139b3565b50505050505050565b6000828211151515613a0357600080fd5b818303905092915050565b613a193283836116d3565b5050565b600080613a3f8573ffffffffffffffffffffffffffffffffffffffff1661417f565b1515613a4e5760019150613c02565b8473ffffffffffffffffffffffffffffffffffffffff1663f0b9e5ba8786866040518463ffffffff167c0100000000000000000000000000000000000000000000000000000000028152600401808473ffffffffffffffffffffffffffffffffffffffff1673ffffffffffffffffffffffffffffffffffffffff16815260200183815260200180602001828103825283818151815260200191508051906020019080838360005b83811015613b10578082015181840152602081019050613af5565b50505050905090810190601f168015613b3d5780820380516001836020036101000a031916815260200191505b50945050505050602060405180830381600087803b158015613b5e57600080fd5b505af1158015613b72573d6000803e3d6000fd5b505050506040513d6020811015613b8857600080fd5b8101908080519060200190929190505050905063f0b9e5ba7c0100000000000000000000000000000000000000000000000000000000027bffffffffffffffffffffffffffffffffffffffffffffffffffffffff1916817bffffffffffffffffffffffffffffffffffffffffffffffffffffffff19161491505b50949350505050565b8173ffffffffffffffffffffffffffffffffffffffff16613c2b826119e9565b73ffffffffffffffffffffffffffffffffffffffff16141515613c4d57600080fd5b613ca06001600260008573ffffffffffffffffffffffffffffffffffffffff1673ffffffffffffffffffffffffffffffffffffffff168152602001908152602001600020546139f290919063ffffffff16565b600260008473ffffffffffffffffffffffffffffffffffffffff1673ffffffffffffffffffffffffffffffffffffffff16815260200190815260200160002081905550600080600083815260200190815260200160002060006101000a81548173ffffffffffffffffffffffffffffffffffffffff021916908373ffffffffffffffffffffffffffffffffffffffff1602179055505050565b600073ffffffffffffffffffffffffffffffffffffffff1660008083815260200190815260200160002060009054906101000a900473ffffffffffffffffffffffffffffffffffffffff1673ffffffffffffffffffffffffffffffffffffffff16141515613da657600080fd5b8160008083815260200190815260200160002060006101000a81548173ffffffffffffffffffffffffffffffffffffffff021916908373ffffffffffffffffffffffffffffffffffffffff160217905550613e4a6001600260008573ffffffffffffffffffffffffffffffffffffffff1673ffffffffffffffffffffffffffffffffffffffff1681526020019081526020016000205461410c90919063ffffffff16565b600260008473ffffffffffffffffffffffffffffffffffffffff1673ffffffffffffffffffffffffffffffffffffffff168152602001908152602001600020819055505050565b6000803273ffffffffffffffffffffffffffffffffffffffff16613eb4856119e9565b73ffffffffffffffffffffffffffffffffffffffff16141515613ed657600080fd5b600090505b600c600085815260200190815260200160002060010180549050811015613f475782600c600086815260200190815260200160002060010182815481101515613f2057fe5b90600052602060002001541415613f3a5760019150613f4c565b8080600101915050613edb565b600091505b5092915050565b6060806000806000600d60009054906101000a900473ffffffffffffffffffffffffffffffffffffffff1673ffffffffffffffffffffffffffffffffffffffff16635345c676886040518263ffffffff167c010000000000000000000000000000000000000000000000000000000002815260040180828152602001915050600060405180830381600087803b158015613fec57600080fd5b505af1158015614000573d6000803e3d6000fd5b505050506040513d6000823e3d601f19601f82011682018060405250602081101561402a57600080fd5b81019080805164010000000081111561404257600080fd5b8281019050602081018481111561405857600080fd5b815185602082028301116401000000008211171561407557600080fd5b50509291905050509350600092505b83518310156140ff576140ad848481518110151561409e57fe5b906020019060200201516129cc565b80925081935050506140d686838151811015156140c657fe5b9060200190602002015182614192565b86838151811015156140e457fe5b90602001906020020181815250508280600101935050614084565b8594505050505092915050565b6000818301905082811015151561412257600080fd5b92915050565b6141328282614354565b600880549050600960008381526020019081526020016000208190555060088190806001815401808255809150509060018203906000526020600020016000909192909190915055505050565b600080823b905060008111915050919050565b60008060008060006141a386614404565b809450819550505060018314156141ce576141c7848861410c90919063ffffffff16565b945061434a565b60028314156141f1576141ea84886139f290919063ffffffff16565b9450614349565b60038314156142145761420d848861379690919063ffffffff16565b9450614348565b60048314156142375761423084886137c790919063ffffffff16565b9450614347565b600583141561427f57614278614269606461425b878b61379690919063ffffffff16565b6137c790919063ffffffff16565b8861410c90919063ffffffff16565b9450614346565b60068314156142c7576142c06142b160646142a3878b61379690919063ffffffff16565b6137c790919063ffffffff16565b886139f290919063ffffffff16565b9450614345565b60078314156142e65783871115156142de57600080fd5b869450614344565b60088314156143055783871015156142fd57600080fd5b869450614343565b600983141561433e5761431784611d2b565b809250819350505061433781600a0a83028861410c90919063ffffffff16565b9450614342565b8694505b5b5b5b5b5b5b5b5b5050505092915050565b600073ffffffffffffffffffffffffffffffffffffffff168273ffffffffffffffffffffffffffffffffffffffff161415151561439057600080fd5b61439a828261311f565b8173ffffffffffffffffffffffffffffffffffffffff16600073ffffffffffffffffffffffffffffffffffffffff167fddf252ad1be2c89b69c2b068fc378daa952ba7f163c4a11628f55a4df523b3ef836040518082815260200191505060405180910390a35050565b60008060008390506103e88181151561441957fe5b0692506103e88181151561442957fe5b049050600a8181151561443857fe5b06915050915091565b508054600082559060005260206000209081019061445f91906145ad565b50565b8154818355818111156144895781836000526020600020918201910161448891906145ad565b5b505050565b8280548282559060005260206000209081019282156144cf5760005260206000209182015b828111156144ce5782548255916001019190600101906144b3565b5b5090506144dc91906145ad565b5090565b82805482825590600052602060002090810192821561451c579160200282015b8281111561451b578251825591602001919060010190614500565b5b50905061452991906145ad565b5090565b828054600181600116156101000203166002900490600052602060002090601f016020900481019282601f1061456e57805160ff191683800117855561459c565b8280016001018555821561459c579182015b8281111561459b578251825591602001919060010190614580565b5b5090506145a991906145ad565b5090565b6145cf91905b808211156145cb5760008160009055506001016145b3565b5090565b905600a165627a7a723058208f45cd148bb5b43a7a08863198aee794bf86c0cc2e8c1971f6303507b544ab090029",
  "source": "pragma solidity ^0.4.23;\n\nimport \"./IMithrilBooster.sol\";\nimport \"./BaseArtifact.sol\";\n\n/*\n * Base Virtual Mining Board Device use to affect Mining statistics\n *\n *      [0]: experience ( total alltime nubmer of successful mintings )\n *\t\t[1]: lifeDecrement ( defaulted to 1, this can optionally be increased in 'virtual overclocking' scenarios)\n *\t\t[2]: executionCost (additional cost in Mithril)\n *      [3]: sockets ( # of slots for adding vGPUs or other components )\n *      [4]: vHash ( the combined current Virtual Hashing power, default to 0 )\n *      [5]: accuracy ( total reward as a percent default to 100 )\n *      [6]: level\n *\n **/\ncontract VirtualMiningBoard is BaseArtifact, IMithrilBooster {\n\tusing SafeMath for uint;\n\n\tuint MAXIMUM_TARGET = 2**234;\n\n    uint CEILING = 2**256-1;\n\n    mapping(address => uint) public coolDownEndTimes;\n\n    modifier onlyTokenOwner(uint _tokenId){\n      require(ownerOf(_tokenId) == tx.origin);\n      _;\n    }\n \n    constructor(address _childArtifactAddress, string _symbol, string _name) \n    \tBaseArtifact(_childArtifactAddress, _symbol, _name)\n    \tpublic { }\n\n    function mint(address _owner, string _name, uint[] _statistics) \n        public onlyOwner returns (uint _boosterId) \n    {\n        // minimum base statistics\n        require(_statistics.length >= 7);\n        _boosterId = super.mint(_owner, _name, _statistics);\n    }\n\n    function addChildArtifact(uint _boosterId, uint _artifactId) \n        public \n        onlyTokenOwner(_boosterId) {\n        // ensure there are enough slots\n        require(boosters[_boosterId].childArtifacts.length < sockets(_boosterId) );\n        super.addChildArtifact(_boosterId, _artifactId);\n    }\n\n    function adjustDifficulty(uint _tokenId, uint _miningTarget) \n    \tpublic \n    \tonlyTokenOwner(_tokenId)\n\t\treturns (uint adjustedMiningTarget) {\n\n        uint difficulty = uint(2**234).div(_miningTarget);\n    \tuint virtualHashrate = vHash(_tokenId);\n        uint alpha = uint(2**22).mul(difficulty);\n        uint beta = uint(600).mul(virtualHashrate);\n\n        if(beta > alpha) {\n            adjustedMiningTarget = MAXIMUM_TARGET;\n            emit AdjustDifficulty(_tokenId, _miningTarget, adjustedMiningTarget);\n            cycle(_tokenId);\n            return adjustedMiningTarget;\n        }\n        \n        uint denominator = alpha.sub(beta);\n        if(denominator < CEILING) {\n            adjustedMiningTarget = CEILING.div( denominator );\n            if(adjustedMiningTarget > MAXIMUM_TARGET){\n                adjustedMiningTarget = MAXIMUM_TARGET;\n            }\n        } else {\n            adjustedMiningTarget = MAXIMUM_TARGET;\n        }\n\n        emit AdjustDifficulty(_tokenId, _miningTarget, adjustedMiningTarget);\n        cycle(_tokenId);\n        \n    }\n\n    function adjustReward(uint _tokenId, uint _miningReward) \n        public \n        onlyTokenOwner(_tokenId)\n        returns (uint adjustedReward) {\n\n        uint acc = accuracy(_tokenId);\n        adjustedReward = _miningReward.mul(acc).div(100);\n        // only cycle if the mining reward was updated\n        if(adjustedReward != _miningReward) {\n            cycle(_tokenId);\n            emit AdjustReward(_tokenId, adjustedReward);\n        }\n\n    }\n\n    function cycle(uint _id) internal {\n\t\t// +1 to exp\n\t\tboosters[_id].mergedStatistics[0].add(1);\n\n        uint len = childArtifacts(_id).length;\n        uint [] memory toDelete = new uint[](len);\n        uint count = 0;\n        for (uint i = 0; i < len; i++) {\n            uint remainingLife = ChildArtifact(childArtifactAddress).decrementLife( childArtifacts(_id)[i] );\n            if(remainingLife == 0) {\n                toDelete[count++] = i;\n            }\n        }\n\n        for (uint j = 0; j < count; j++) {\n            removeChildArtifact(_id, toDelete[j]);\n        }\n\n    }\n\n \tfunction experience(uint _id) public view returns (uint) {\n    \treturn boosters[_id].mergedStatistics[0];\n    }\n\n    function lifeDecrementer(uint _id) public view returns (uint) {\n    \treturn boosters[_id].mergedStatistics[1];\n    }\n\n    function executionCost(uint _id) public view returns (uint) {\n    \treturn boosters[_id].mergedStatistics[2];\n    }\n\n    function sockets(uint _id) public view returns (uint) {\n    \treturn boosters[_id].mergedStatistics[3];\n    }\n\n    function vHash(uint _id) public view returns (uint) {\n    \treturn boosters[_id].mergedStatistics[4];\n    }\n\n    function accuracy(uint _id) public view returns (uint) {\n    \treturn boosters[_id].mergedStatistics[5];\n    }\n\n    function level(uint _id) public view returns (uint) {\n        return boosters[_id].mergedStatistics[6];\n    }\n\n}",
  "sourcePath": "/Users/logelj1/Documents/playground/0xMithril/mithril-repo/0xmithriltoken/contracts/VirtualMiningBoard.sol",
  "compiler": {
    "name": "solc",
    "version": "0.4.23+commit.124ca40d.Emscripten.clang"
  },
  "schemaVersion": "2.0.0",
  "updatedAt": "2018-06-06T20:13:07.931Z"
}